:020000040000FA
:100000000C945A010C9434190C940D190C94E618A4
:100010000C94BF180C9482010C9482010C949818D3
:100020000C9482010C9482010C9455150C94C41507
:100030000C945B190C9482010C9482010C94820143
:100040000C9482010C9482010C9482010C94820124
:100050000C9482010C9482010C9482010C944E1831
:100060000C9482010C941C180C94F6170C948201C9
:100070000C9482010C9482010C9482010C948201F4
:100080000C9482010C9482010C9482010C948201E4
:100090000C9482010C9482010C9482010C948201D4
:1000A0000C9482010C9482010C94820100407A101D
:1000B000F35A00A0724E18090010A5D4E80000E819
:1000C0007648170000E40B54020000CA9A3B000077
:1000D00000E1F505000080969800000040420F0006
:1000E0000000A08601000000102700000000E803C7
:1000F000000000006400000000000A000000000092
:100100000100000000002C76D888DC674F0823DF50
:10011000C1DFAE59E1B1B796E5E3E453C63AE65123
:10012000997696E8E6C28426EB898C9B62ED407C4A
:100130006FFCEFBC9C9F40F2BAA56FA5F490055AE6
:100140002AF75C936B6CF9676DC11BFCE0E40D470B
:10015000FEF520E6B500D0ED902E0300943577052E
:100160000080841E080000204E0A000000C80C33E6
:100170003333330F986E12831141EF8D2114893B75
:10018000E65516CFFEE6DB18D1844B381BF77C1DF5
:10019000901DA4BBE424203284725E228100C9F148
:1001A00024ECA1E53D2725753B25753B25753B25B1
:1001B000753B25753B25730A0000000000240027CD
:1001C000002A002D00300000000000250028002B30
:1001D000002E003100080B0002020200000904009A
:1001E00000010202000005240010010524010101A4
:1001F00004240206052406000107058103100040BF
:1002000009040100020A0000000705020240000084
:10021000070583024000000403090412010002EFF5
:100220000201404123378000010102030141726451
:1002300075696E6F204C4C430046616E58205246E3
:1002400020446F6E676C65000000000023002600EC
:1002500029002C002F0004040404040304050202F6
:10026000020204030202020206060606060604044F
:1002700002020204040408020110408040102040E1
:10028000804080080204018040201002011080108C
:10029000204040200000000200090F00000304017C
:1002A000000C000000000000000000000000000042
:1002B00000007A1911241FBECFEFDAE0DEBFCDBFF8
:1002C00012E0A0E0B1E0EEE4F9E402C005900D9286
:1002D000A038B107D9F727E0A0E8B2E001C01D922D
:1002E000AC30B207E1F711E0CAE5D1E004C02197D4
:1002F000FE010E94C323C935D107C9F70E944A1ADB
:100300000C94A5240C940000FC018091BC0388236C
:1003100011F13FB7F89482E08093E9002091F20058
:10032000822F90E01816190614F481E090E08823DB
:1003300039F0289844E64093BB034091F100408394
:10034000222339F02091F200211103C02BE62093E3
:10035000E8003FBF08958FEF9FEF0895FC0190E004
:1003600030E020E06150770B492F50E046175707E7
:1003700044F44E0F5F1FDA014C91240F311D9F5F33
:10038000F3CF2130B1E03B0714F03A95FACF822F3A
:10039000819508958F929F92AF92BF92CF92DF92F4
:1003A000EF92FF920F931F93CF93DF93CDB7DEB7FA
:1003B00060970FB6F894DEBF0FBECDBF8C0180E111
:1003C000E5E2F1E0DE01119601900D928A95E1F7E8
:1003D00090E0E92FEE0FE61778F5DE0111967D012A
:1003E00020E048018E0E911C64013FEFC31AD30A2E
:1003F0005A01A90EB11CF70181917F01F6013081EC
:10040000381302C0F50120832F5F2031A1F720E0CF
:100410007A01E90EF11C8D91F4013081381307C087
:10042000F7013081722F7295707F372B30832F5FE9
:10043000203189F79F5FCDCFCA0160960FB6F8943F
:10044000DEBF0FBECDBFDF91CF911F910F91FF9007
:10045000EF90DF90CF90BF90AF909F908F900895D6
:100460002FB7F89483E08093E9009091E800892FFA
:10047000807295FF04C09091F20080E4891B2FBF29
:1004800008958091B30381110DC082E08093AF0382
:1004900084E08093B0031092B2031092B10381E024
:1004A0008093B3038FEA93E008954091A90350919C
:1004B000AA032091A7033091A80342175307B4F46D
:1004C0009091E8009570E1F39091E80092FD19C0D9
:1004D0008093F1008091A9039091AA0301968F73F4
:1004E0009927892B19F48EEF8093E8008091A90356
:1004F0009091AA0301969093AA038093A90381E0A7
:10050000089580E00895EF92FF920F931F93CF9389
:10051000DF93F82E192FE62E042F81E0860F880F27
:100520000E94550283E00E945502CF2DD12FEC0E80
:10053000FD2EF11CCE15DF05B9F007FF13C0FE013B
:1005400084910E945502182F80E00E945502812359
:1005500021968111EFCFDF91CF911F910F91FF90E5
:10056000EF9008958881EDCF81E0F5CFDF92EF9293
:10057000FF920F931F93CF93DF93D82E8A01EB0145
:100580007B01E40EF51ECE15DF0559F0D7FE12C033
:10059000FE0184910E94550221968111F4CF0FEF44
:1005A0001FEFC801DF91CF911F910F91FF90EF9046
:1005B000DF9008958881EECF0F931F93CF93DF9341
:1005C0001F92CDB7DEB782E0898342E450E065ED4B
:1005D00071E080E80E94B6020E944102DC0112969E
:1005E0000D911C910115110589F0D801ED91FC9137
:1005F0000280F381E02DBE016F5F7F4FC801099536
:1006000097FD04C0F80100851185ECCF89810F901A
:10061000DF91CF911F910F910895615030F020919B
:10062000F100FC0120830196F8CF289884E680939E
:10063000BB030895AF92BF92CF92DF92EF92FF92E9
:100640000F931F93CF93DF936C017B018B01040FFA
:10065000151FEB015E01AE18BF08C017D10759F096
:100660006991D601ED91FC910190F081E02DC601D8
:100670000995892B79F7C501DF91CF911F910F91D2
:10068000FF90EF90DF90CF90BF90AF900895FC0166
:10069000538D448D252F30E0842F90E0821B930BE7
:1006A000541710F0CF96089501970895FC01918D8D
:1006B000828D981761F0A28DAE0FBF2FB11D5D9690
:1006C0008C91928D9F5F9F73928F90E008958FEF32
:1006D0009FEF0895FC01918D828D981731F0828DE6
:1006E000E80FF11D858D90E008958FEF9FEF08953D
:1006F000FC01918D228D892F90E0805C9F4F821BA1
:1007000091098F73992708958DEB93E00E947803E8
:1007100021E0892B09F420E0822F0895FC01A48DAB
:10072000A80FB92FB11DA35ABF4F2C91848D90E013
:1007300001968F739927848FA689B7892C93A089F6
:10074000B1898C9182748C93938D848D981306C09B
:100750000288F389E02D80818F7D80830895EF9258
:10076000FF920F931F93CF93DF93EC0181E0888F6B
:100770009B8D8C8D981319C0E889F989808185FF3C
:1007800014C09FB7F894EE89FF896083E889F989DE
:100790008081827480839FBF81E090E0DF91CF9160
:1007A0001F910F91FF90EF900895F62E0B8D10E0A2
:1007B0000F5F1F4F0F731127E02E8C8D8E110CC011
:1007C0000FB607FCFACFE889F989808185FFF5CF5C
:1007D000CE010E948E03F1CFEB8DEC0FFD2FF11DAA
:1007E000E35AFF4FF0829FB7F8940B8FEA89FB8999
:1007F00080818062CFCFCF93DF93EC01888D8823F7
:10080000B9F0AA89BB89E889F9898C9185FD03C073
:10081000808186FD0DC00FB607FCF7CF8C9185FF58
:10082000F2CF808185FFEDCFCE010E948E03E9CF0C
:10083000DF91CF91089580E090E0892B29F00E940C
:10084000840381110C9400000895CF93DF931F92CD
:10085000CDB7DEB76983DC01ED91FC910280F381B5
:10086000E02D41E050E0BE016F5F7F4F09950F9092
:10087000DF91CF91089583E08093E9008091F200A9
:10088000882319F08AE38093E80008950E943002DB
:1008900090E00895CF93DF931F92CDB7DEB7FC01B0
:1008A0008485958597FD08C02FEF3FEF3587248716
:1008B0000F90DF91CF910895CE0101960E9484019F
:1008C000019719F4898190E0F3CF8FEF9FEFF0CF7C
:1008D0000F931F93CF93DF931F92CDB7DEB78C0199
:1008E000FC018485958597FF0BC0CE0101960E947F
:1008F0008401019771F4898190E0F80195878487DC
:10090000F801848595850F90DF91CF911F910F910C
:1009100008958FEF9FEFF1CFFC018485958597FDBA
:100920000BC09FB7F89482E08093E9008091F200B9
:100930009FBF90E0019608959FB7F89482E080935E
:10094000E9008091F2009FBF90E0089581508F30C0
:1009500008F047C0E82FF0E0E055FB4F0C94C323AC
:10096000CD04D104BF04C504C904F104F104F104A9
:10097000D404DA04DE04E204E804F104EC04809117
:1009800080008F77809380000895809180008F7D14
:10099000F9CF80918000877FF5CF84B58F7784BDB4
:1009A000089584B58F7DFBCF809190008F778093E1
:1009B00090000895809190008F7DF9CF80919000F4
:1009C000877FF5CF8091C0008F778093C000089516
:1009D0008091C0008F7DF9CF8091C200877F809386
:1009E000C2000895CF93DF93E2EAF2E08491E3E856
:1009F000F2E0D491E4E6F2E0C491CC23A1F08111BD
:100A00000E94A604EC2FF0E0EE0FFF1FE85BFD4F05
:100A1000A591B491EC91ED2381E090E009F480E0A0
:100A2000DF91CF91089580E090E0FACF1F93CF93AC
:100A3000DF93282F30E0F901EC56FD4F8491F90146
:100A4000EB58FD4FD491F901EA5AFD4FC491CC23E4
:100A5000A9F0162F81110E94A604EC2FF0E0EE0FF2
:100A6000FF1FE953FE4FA591B4918FB7F894EC9115
:100A7000111108C0D095DE23DC938FBFDF91CF9199
:100A80001F910895DE2BF8CFCF93DF9390E0FC0108
:100A9000EB58FD4F24918A5A9D4FFC018491882385
:100AA000D1F090E0880F991FFC01E754FE4FA5910B
:100AB000B491FC01E953FE4FC591D49161110EC070
:100AC0009FB7F8948C91E22FE0958E238C93288128
:100AD000E223E8839FBFDF91CF9108958FB7F89409
:100AE000EC91E22BEC938FBFF6CF3FB7F894809157
:100AF000A3039091A403A091A503B091A60326B5EA
:100B0000A89B05C02F3F19F00196A11DB11D3FBF45
:100B1000BA2FA92F982F8827BC01CD01620F711D14
:100B2000811D911D43E0660F771F881F991F4A950D
:100B3000D1F708958F929F92AF92BF92CF92DF929A
:100B4000EF92FF924B015C010E9475056B017C01E5
:100B50000E9475056C197D098E099F09683E7340D6
:100B600081059105A8F321E0821A9108A108B10836
:100B700088EEC80E83E0D81EE11CF11C811491049C
:100B8000A104B10429F7FF90EF90DF90CF90BF90C0
:100B9000AF909F908F9008958F929F92AF92BF9247
:100BA000CF92DF92EF92FF920F931F93CF93DF9339
:100BB0006C017B018A0180911E01882309F45CC0CD
:100BC0008091BC03882309F457C08091AD0380FF56
:100BD00005C08091E00082608093E000E801B12CC4
:100BE0008AEFA82E93E0892E2AE3922E209711F403
:100BF000BB20D9F10E94300281110AC0AA94AA2018
:100C0000D9F161E070E080E090E00E949A05EECFBB
:100C10008C171D0611F00CF08C2F9FB7F894809262
:100C2000E9002091E80025FD02C09FBFDFCF282FFB
:100C300030E0C21BD30BF701815020F0419140936B
:100C4000F100FACFE20EF31EBB2021F09092E800F3
:100C5000B12CEBCF8091E80085FDE7CF9092E800C2
:100C6000BB24B394209709F3F3CF5D9884E6809377
:100C7000AE03101611063CF081E090E0F60193837C
:100C8000828310E000E0C801DF91CF911F910F91A6
:100C9000FF90EF90DF90CF90BF90AF909F908F909C
:100CA00008952FB7F89460919F037091A0038091ED
:100CB000A1039091A2032FBF0895CF92DF92EF92EC
:100CC000FF920F931F93CF93DF938C01D0E0C0E08E
:100CD0000E9451066093C5037093C6038093C703B7
:100CE0009093C8038DEB93E00E94560397FF25C0B5
:100CF0000E945106C090C503D090C603E090C70380
:100D0000F090C8036C197D098E099F09C090C1033A
:100D1000D090C203E090C303F090C4036C157D052E
:100D20008E059F05F8F2CE01DF91CF911F910F91B3
:100D3000FF90EF90DF90CF9008958533910599F360
:100D4000F80181938F012196C539D10509F6EBCFC2
:100D500008958EBD00000DB407FEFDCF8EB5089539
:100D6000CF93C82F60E084E00E9416050E94F20431
:100D700018161906DCF38C2F0E94A90661E084E0A6
:100D8000CF910C94160561E084E00E94160586E080
:100D900090E00197F1F760E084E00E94160580E1A1
:100DA00090E00197F1F761E084E00E9416058EE47F
:100DB00090E00197F1F760E084E00E9416050E9440
:100DC000F20418161906DCF380E30E94A9060E94BB
:100DD000F20418161906DCF361E084E00C941605A1
:100DE000CF93DF93D82FC62F60E084E00E941605D2
:100DF0000E94F20418161906DCF38D2F0E94A90632
:100E00008C2F0E94A90661E084E0DF91CF910C94C1
:100E1000160560E082E10E94F0066DE082E00E942B
:100E2000F00684E30C94B0060FB6F894A895809170
:100E30006000886180936000109260000FBE61E0E6
:100E400087E00E94440561E087E00E941605EDEB13
:100E5000F3E0A089B18982E08C93A485B5851C92CA
:100E6000A685B78589E18C93108EA489B58986E023
:100E70008C93A289B3898C9180618C93A289B38968
:100E80008C9188608C93A289B3898C9180688C93B3
:100E90000288F389E02D80818F7D808381E08093BB
:100EA000F60688E199E20FB6F894A8958093600061
:100EB0000FBE909360000895CF9361E084E00E949C
:100EC0004405CFB7F89480919003811127C0E7E6DD
:100ED000F2E08491E6E8F2E09491E82FF0E0EE0F82
:100EE000FF1FE754FE4FA591B491EC91E92321F443
:100EF00061E081E10E94160561E081E10E94440504
:100F00008CB580618CBD8CB580648CBD61E08FE058
:100F10000E94440561E080E10E94440580919003B5
:100F20008F5F80939003CFBF60E08BE00E94440509
:100F30000E94C30686E30E94B00689E30E94B006C1
:100F400080EA92E19093DF068093DE0681EF92E2E1
:100F50009093DC068093DB068AED91E39093E206A2
:100F60008093E106CF910895FC01838187708061B1
:100F7000838384818F718064848370876783CF01CA
:100F80000895FC01838187708860838384818F71D9
:100F9000806284836783CF010895EF92FF920F935D
:100FA0001F93CF93DF93CDB7DEB728970FB6F89492
:100FB000DEBF0FBECDBF0E94C30661E28DE00E947E
:100FC000F00665E68EE00E94F0066AE88FE00E9477
:100FD000F0066EE282E00E94F0066AE080E00E9485
:100FE000F00668E08BE00E94F00660E08CE00E9472
:100FF000F0066AE580E10E94F00663E881E10E9464
:10100000F00660E082E10E94F00662E283E10E9465
:10101000F00668EF84E10E94F00660E08AE00E943A
:10102000F00660E585E10E94F00666EB81E20E9431
:10103000F00667E182E20E94F00668E188E10E9422
:10104000F0066DE189E10E94F0066CE18AE10E9400
:10105000F00667EC8BE10E94F00660E08CE10E94F4
:10106000F00662EB8DE10E94F0066BEF80E20E94D9
:10107000F00669EE83E20E94F0066AE284E20E94D2
:10108000F00660E085E20E94F0066FE186E20E94D1
:10109000F00669E08EE20E94F00664E087E00E94BC
:1010A000F00662E388E00E94F00688E0E5E3F1E004
:1010B000DE01119601900D928A95E1F760E084E0DF
:1010C0000E9416050E94F20418161906DCF38EE73A
:1010D0000E94A9068E010F5F1F4F7E0189E0E80E76
:1010E000F11CF80181918F010E94A9060E151F05C0
:1010F000C1F761E084E00E94160586E30E94B00615
:1011000086E328960FB6F894DEBF0FBECDBFDF9101
:10111000CF911F910F91FF90EF900C94B0062F92FA
:101120003F924F925F926F927F928F929F92AF9277
:10113000BF92CF92DF92EF92FF920F931F93CF93C4
:10114000DF93CDB7DEB7C759D1090FB6F894DEBF2C
:101150000FBECDBF8DB69EB6262F220F215FE22E89
:10116000F12C9701215031092DB63EB62E183F08BB
:101170000FB6F8943EBE0FBE2DBE0DB71EB70F5F63
:101180001F4F70E0AB01440F551FEDB7FEB7E41BD6
:10119000F50B0FB6F894FEBF0FBEEDBF4DB75EB7AF
:1011A0004F5F5F4FB0E1DB2EE5E2F1E0DE0111962B
:1011B00001900D92DA94E1F7DC01B12CAD906A0157
:1011C000CB0CD11CEA2DE07FF0E0689413F8F59584
:1011D000E7951694E1F722242394312C2C0E3D1E22
:1011E000E20DF31D3080F6013082CC24C394CB0C89
:1011F000C40ED52ED11CEA2DEF7022242394312C5D
:101200002C0E3D1E2E0E311CF101A080F601A08295
:10121000B394B394FD01E81BF90BE617F70774F2DA
:10122000F801C801099665E561938E179F07E1F7FC
:101230008FEFF8018187128683E38387648783E5D4
:101240008587D8011E96FA0181918D93CF01841B69
:10125000950B82179307C4F3200F311F85E3F90123
:1012600080838CE291E0A0E0B0E08093C103909392
:10127000C203A093C303B093C4030E94CD076EE2E0
:1012800082E00E94F00660E082E10E94F00685E3C1
:101290000E94B006A701B8018DEB93E00E941A03EB
:1012A0008DEB93E00E94FB038DEB93E00E947803AB
:1012B000892B29F08DEB93E00E945603F5CF86E34E
:1012C0000E94B0060E9409070E9451066B017C0132
:1012D0008DEB93E00E94780318161906CCF78DEB7E
:1012E00093E00E945603182F833599F4F5E55F12B9
:1012F00010C053E3252E62100CC071100AC04F12AB
:1013000008C0CE0101960E945D060097D9F4F12C29
:1013100076C00E9451066C197D098E099F096D32B5
:1013200071408105910598F7C956DF4F4880C7592C
:10133000D040C956DF4F7882C759D040762C652CF3
:10134000512EC6CF8436910511F380FDE0CFCDB686
:10135000DEB65C0197FF03C03FEFA31AB30AB59452
:10136000A794750141E0E41AF108EDB7FEB7EA1958
:10137000FB090FB6F894FEBF0FBEEDBF0DB71EB749
:101380000F5F1F4FA801682FCE0101960E94CA016E
:101390006A2DC8010E94AE01F801EE0DFF1D90817B
:1013A00089136FC0F80191818091F30632812091F9
:1013B000F406321303C0FF24F3949813F12CF801C0
:1013C00093818091F50698135CC0FF2099F0878186
:1013D00090859827892798272185813FF2E29F07EA
:1013E000D9F5233039F4F80183858093E40681E050
:1013F0008093DD060FB6F894DEBE0FBECDBE86E349
:101400000E94B0066EE282E00E94F00686E30E942F
:10141000B00689E30E94B0068F2D0FB6F8949EBEE9
:101420000FBE8DBEC956DF4F0FB6F894DEBF0FBE9C
:10143000CDBFDF91CF911F910F91FF90EF90DF9083
:10144000CF90BF90AF909F908F907F906F905F9064
:101450004F903F902F900895893DF1E39F0719F435
:10146000F8018485C2CF803AF2E19F0761F422300F
:1014700009F6F80183858093E50681E08093E00614
:10148000B9CFF12CB7CF8A3D914309F0B3CF2E31BC
:1014900009F0B0CFF80187858093E50680898093B5
:1014A000E606818990E0982F88272289820F911D76
:1014B0009093E8068093E706838990E0982F882729
:1014C0002489820F911D9093EA068093E90687890B
:1014D0008093EB06818D8093EC06828D8093ED06E0
:1014E00080A18093EF0682A18093EE0681E0809335
:1014F000E30680CF6F927F928F929F92AF92BF92BE
:10150000CF92DF92EF92FF920F931F93CF93DF93CF
:10151000CDB7DEB7C659D1090FB6F894DEBF0FBEFE
:10152000CDBFEDB6FEB68CE291E0A0E0B0E08093D6
:10153000C1039093C203A093C303B093C4038DEB84
:1015400093E00E947803892B29F08DEB93E00E94B1
:101550005603F5CF0E9451064B015C018DEB93E0E1
:101560000E94780318161906CCF78DEB93E00E94C1
:101570005603082F833591F4153581F423E3D212F5
:101580000DC0C1100BC035E5631208C0CE01019635
:101590000E945D06009799F480E052C00E945106B7
:1015A000681979098A099B09693873418105910590
:1015B00098F7672C7C2CCD2CD12E102FCFCF8436D2
:1015C000910551F380FDE8CFCDB6DEB64C0197FF13
:1015D00003C03FEF831A930A95948794540121E046
:1015E000A21AB1082DB73EB7281939090FB6F894D9
:1015F0003EBF0FBE2DBF0DB71EB70F5F1F4FA80117
:10160000682FCE0101960E94CA01682DC8010E9470
:10161000AE01F801EA0DFB1D908189132CC0F80181
:101620003196A0EFB6E0095F1F4F81918D930E17A1
:101630001F07D9F781E00FB6F894DEBE0FBECDBE0E
:101640000FB6F894FEBE0FBEEDBECA56DF4F0FB602
:10165000F894DEBF0FBECDBFDF91CF911F910F91E8
:10166000FF90EF90DF90CF90BF90AF909F908F90C2
:101670007F906F90089580E0DECF0F931F93CF93FC
:10168000DF93EC0188819981009759F02A813B8191
:101690002617370730F081E0DF91CF911F910F912E
:1016A00008958B016F5F7F4F0E94C923009759F007
:1016B000998388831B830A832C813D81232B59F7CF
:1016C000FC011082E8CF80E0E7CFCF93DF93EC01FD
:1016D00088819981009711F00E94F51B1982188268
:1016E0001D821C821B821A82DF91CF9108950F9375
:1016F0001F93CF93DF93EC010C811D810F5F1F4F70
:10170000B8010E943D0B882391F0288139818C819A
:101710009D8168E671E0820F931F0E948F241D83D4
:101720000C83CE01DF91CF911F910F910895CE01CF
:101730000E94650BF6CFEF92FF920F931F93CF930A
:10174000DF93EC01FB01E080F180E114F10411F181
:101750000481158101151105A9F08C819D81080F67
:10176000191FB801CE010E943D0B882399F02881F2
:1017700039818C819D81B701820F931F0E948F2434
:101780001D830C83CE01DF91CF911F910F91FF90AC
:10179000EF900895CE010E94650BF4CFEF92FF9277
:1017A0000F931F93CF93DF93EC017B018A01BA0162
:1017B0000E943D0B81110BC0CE010E94650BCE0132
:1017C000DF91CF911F910F91FF90EF9008951D83AE
:1017D0000C83B701888199810E948F24F0CFEF920A
:1017E000FF920F931F93CF93DF93CDB7DEB7A197EF
:1017F0000FB6F894DEBF0FBECDBF8C01CB01BA018E
:10180000F8011182108213821282158214822AE05A
:10181000AE014F5F5F4F7A010E94211DF7010190D9
:101820000020E9F73197AF014E195F09B701C801F0
:101830000E94CE0BA1960FB6F894DEBF0FBECDBFAF
:10184000DF91CF911F910F91FF90EF900895EF924C
:10185000FF920F931F93CF93DF93CDB7DEB72997F6
:101860000FB6F894DEBF0FBECDBF8C01862FF801F6
:101870001182108213821282158214824AE09E0124
:101880002F5F3F4F7901B90190E00E94431DF7019E
:1018900001900020E9F73197AF014E195F09B701B8
:1018A000C8010E94CE0B29960FB6F894DEBF0FBE7A
:1018B000CDBFDF91CF911F910F91FF90EF900895D1
:1018C000FB01DC0111961C921E9213961C921E9233
:1018D000129715961C921E9214978617970749F037
:1018E000608171816115710521F0448155810C94ED
:1018F000CE0B0895FC0180819181009711F00C942A
:10190000F51B08950F931F93CF93DF938C0180E015
:101910006115710551F0EB0109900020E9F721975D
:101920008C2F861B8A3108F089E1F801C381C770CA
:10193000F8E08F9FC0011124C82BF801C383848174
:101940008F718483C695C695C695CA3108F0C9E1E2
:10195000D0E0AE01C80107960E949624C00FD11FA7
:101960001F82C801DF91CF911F910F910895FC0153
:101970002481229526952770213039F4878191E0C2
:10198000811101C090E0892F0895211104C00796AC
:101990000E947E1CF4CF80E0F2CF0F931F93CF9371
:1019A000DF93EC018C81829586958770D9F44B8109
:1019B0004695469546954A3108F049E150E0BE010A
:1019C000695F7F4F8DE593E00E949624EB81E69559
:1019D000E695E695EA3108F0E9E1F0E0E35AFC4FDC
:1019E00010820AC0813009F044C08F814AE06DE561
:1019F00073E090E00E94EA1C8C812DE533E03F9378
:101A00002F939D811F929F9384FB992790F91F929A
:101A10009F9387701F928F938E811F928F938981DE
:101A20001F928F9386EA91E09F938F931F9288E78E
:101A30008F93C5EED2E0DF93CF930E945D1D099096
:101A40000020E9F7AE01465E524065EE72E08AE59D
:101A500094E00E94CC05EDB7FEB772960FB6F894ED
:101A6000FEBF0FBEEDBF81E0DF91CF911F910F91BF
:101A70000895823031F44AE06DE573E08F819885F6
:101A8000B9CF833041F44AE06DE573E08F819885EA
:101A90000E94431DB1CF843051F46F8178858985D0
:101AA0009A852AE04DE553E00E94F51CA5CF8530CC
:101AB00051F46F81788589859A852AE04DE553E058
:101AC0000E94211D99CF20E0873071F42B852930A9
:101AD00008F028E06F81788589859A850DE513E007
:101AE00042E00E943B1B88CFEB81E695E695E695A8
:101AF000EA3108F0E9E12E1738F5E22FF0E0AF0106
:101B0000440F551FDA01A35ABC4FEC0FFD1F87810C
:101B1000082E000C990B34E0959587953A95E1F7DE
:101B20008F708A3068F4805D8C93425A5C4F878155
:101B30008F708A3038F4805DFA0180832F5FD4CFB4
:101B4000895CF2CF895CF8CFF0E0EE0FFF1F46CF43
:101B5000FC012281211102C00C94CD0C80E008957B
:101B6000FC0111829481907F91609483CF010C9449
:101B7000A80DBC0183ED95E00E94B4070C94B00D54
:101B8000BC0184EF95E00E94B4070C94B00DCF9295
:101B9000DF92EF92FF92CF93DF93CDB7DEB76897D6
:101BA0000FB6F894DEBF0FBECDBFEBEDF6E0858932
:101BB000C688D12CF12CE12CFE2CED2CDC2CCC2475
:101BC000E82A8789C82AB701A60163707727CE0162
:101BD0000D960E94EF0BC701B60122E196958795FD
:101BE000779567952A95D1F7CE0101960E94270C2B
:101BF000BE016F5F7F4FCE0107960E94600CCE0141
:101C000007960E94770BBE01635F7F4F0E949B0B7C
:101C1000BC01CE0143960E94600CCE0107960E9443
:101C20007A0CCE0101960E947A0CCE010D960E948C
:101C30007A0C6B897C8986E396E00E94820C0E9474
:101C4000B00DCE0143960E947A0C68960FB6F894B8
:101C5000DEBF0FBECDBFDF91CF91FF90EF90DF9041
:101C6000CF900895CF92DF92EF92FF92CF93DF93C0
:101C7000CDB7DEB768970FB6F894DEBF0FBECDBF05
:101C8000EBEDF6E0808DC18CD12CF12CE12CFE2CFB
:101C9000ED2CDC2CCC24E82A828DC82AB701A601C1
:101CA00063707727CE010D960E94EF0BC701B60136
:101CB00022E196958795779567952A95D1F7CE017C
:101CC00001960E94270CBE016F5F7F4FCE010796E1
:101CD0000E94600CCE0107960E94770BBE01635FE5
:101CE0007F4F0E949B0BBC01CE0143960E94600C6B
:101CF000CE0107960E947A0CCE0101960E947A0CC2
:101D0000CE010D960E947A0C6B897C8987E596E05E
:101D10000E94820C0E94B00DCE0143960E947A0C64
:101D200068960FB6F894DEBF0FBECDBFDF91CF919E
:101D3000FF90EF90DF90CF900895CF93DF93FC0159
:101D4000248124FD8DC0EC0185818230B1F486812F
:101D5000823099F4CF010E94B70C882371F081E0A2
:101D600090E090939B0380939A0361E070E085E19B
:101D700096E00E94B4070E94B00D8E81813009F078
:101D80006FC08D818230A1F4CE010E94B70C811109
:101D90004FC08091F60690E0909394038093930354
:101DA000109208011092070190E080E00E94B90DA6
:101DB0008D81833009F054C08C818295869587701F
:101DC000823009F040C08F8198859C01853691054D
:101DD00014F024E630E037FF02C030E020E030931A
:101DE0000801209307018091070190910801049751
:101DF0008CF58091070190910801909308018093E0
:101E000007018091070190910801181619062CF519
:101E10008091070190910801909308018093070138
:101E20008091070190910801DF91CF910C94C00D32
:101E300080919303909194039093080180930701FC
:101E400081E090E0B3CF8111C8CFCE0107960E9408
:101E50007E1CBBCF84E090E0D0CF90E080E0DCCF70
:101E6000DF91CF9108951092790610927A068093AF
:101E70007E0660937D0690917C06907E90937C0612
:101E80008F3F11F44AE651E0BA0188E796E00E94DC
:101E9000820C0C94A80D1F93CF93DF93C8E7D6E074
:101EA00019821A821FEF1E838BE08D838C81807EC6
:101EB00083608C8360E771E0CE010E94820C0E94F7
:101EC000A80D19821A821E838CE08D838C81807EFE
:101ED00083608C8365E771E0CE010E94820C0E94D2
:101EE000A80D49E751E064E070E081E00E94330F03
:101EF00043E851E063E070E082E00E94330F40E984
:101F000051E067E170E083E00E94330F4FE951E058
:101F100067E170E084E00E94330F4EEA51E067E031
:101F200070E085E00E94330F42EC51E067E070E022
:101F300086E00E94330F47ED51E066E070E087E0F5
:101F40000E94330F40EF51E066E070E088E00E94AD
:101F5000330F4AE052E067E170E089E00E94330FFE
:101F60004EE152E067E170E08AE00E94330F4EE2FA
:101F700052E067E170E08BE00E94330F4DE352E0E6
:101F800065E270E08CE00E94330F40E552E065E2CC
:101F900070E08DE0DF91CF911F910C94330F4DE2F3
:101FA00052E061E170E08FEF0E94330F0C944B0F11
:101FB000EF92FF921F93CF93DF93CDB7DEB76B976E
:101FC0000FB6F894DEBF0FBECDBF8AE594E00E9445
:101FD0008C04892B09F4E0C08AE594E00E944A044D
:101FE0009091E402933608F0FCC0E92FF0E0E0584D
:101FF000FD4F8A3009F0F0C010821092BB0610929B
:10200000BA068091BE068F7E8093BE06AE01465E04
:102010005F4F64E672E080E892E00E94C31C47E0F4
:10202000E42EF12C10E0009709F483C1153009F477
:102030008BC10E947E1C1230D1F078F41130A1F0D7
:102040008093BC06AE01465E5F4F64E672E090E0AE
:1020500080E00E94C31C1F5FE6CF133091F0143064
:1020600079F78093BF06EECF8093C006EBCF7C015B
:102070008091BE06887F9E2D9770892B8093BE0627
:10208000E1CF2091BE06277F41E050E0892B11F47B
:1020900050E040E0CA0133E0880F991F3A95E1F71C
:1020A000822BECCF913614F097555DC197535BC1ED
:1020B000213614F027555EC127535CC14091BD06FF
:1020C00047708A3108F089E128E0829FC00111241D
:1020D000482B4093BD068091BE068F71806C809323
:1020E000BE064695469546954A3108F049E150E0CE
:1020F000BE016F5F7F4F81EC96E00E9486241092B4
:10210000E40281E2EAEBF6E0A9E9B6E001900D9283
:102110008A95E1F710919B0611113EC080919D06B2
:1021200083FF17C091E2E9E9F6E0A8E7B6E0019085
:102130000D929A95E1F7877E806180937C061092DC
:10214000790680919A0680937A0688E796E00E9445
:10215000CD0C80919D06982F9770933009F0E4C0C4
:1021600090919E06923009F03FC01092790610922D
:102170007A068FEF80937E0690937D0680917C0691
:10218000807E836080937C066AE671E088E796E053
:102190000E94820C0E94CD0C6B960FB6F894DEBFA5
:1021A0000FBECDBFDF91CF911F91FF90EF900895AB
:1021B00001900020E9F7E81BE250E80FF92FF11D2C
:1021C00020812D3011F02A3009F41082BC018AEBF5
:1021D00096E00E94820C93CF80839F5F9093E402ED
:1021E000F4CE1092E402F1CEF0909A06F11071C094
:1021F0009D3059F488E198E00FB6F894A895809343
:1022000060000FBE90936000FFCF9B3109F4C4CFF4
:10221000963099F49091A00681E0992319F09D34AD
:1022200009F080E080939C0341E050E063E071E0BE
:102230008CE993E00E94F822AFCF933119F40E9409
:10224000CF0FAACF923111F50E9451061092790654
:1022500010927A062FEF20937E0626E120937D06CA
:1022600020917B062770206220937B0623EA20932F
:102270007C0660937F06709380068093810690931E
:10228000820688E796E00E94A80D86CF913009F07B
:1022900083CF20E030E0232B09F47ECF8295869512
:1022A0008770853059F46091A0067091A1068091E5
:1022B000A2069091A3060E9400006ECF811105C076
:1022C00080EA96E00E949C1CF6CF60E070E0CB01B3
:1022D000F2CF9A3109F060CF829586958770813070
:1022E000D9F41091A00610927906F0927A068FEF39
:1022F00080937E068BE180937D0680917C06807EB4
:10230000836080937C0661E0123008F460E088E727
:1023100096E00E94C107B7CF8111E5CF80EA96E031
:102320000E947E1C182FDFCF89E996E00E949D0E47
:1023300033CF60E08AEB96E00E94C1071092E4027E
:10234000153009F4DECE28CFFC0124E0E216F104BA
:1023500009F02ECF80E09081992309F4AFCE9A3313
:102360000CF0A0CE90539295907F21812A330CF0EF
:102370009FCE2053A1E0B0E0AC0FBD1FA80FB11D50
:10238000920F9C938F5F3296E6CF8F929F92AF927F
:10239000BF92CF92DF92EF92FF924B015C010E94BD
:1023A00051066B017C010E9451066C197D098E0952
:1023B0009F09681579058A059B0520F4A8950E9458
:1023C000D80FF1CFFF90EF90DF90CF90BF90AF90FC
:1023D0009F908F9008950F931F93CF93DF93D0E03A
:1023E000C0E0082F10E0C017D107B4F460E087E028
:1023F0000E94160562E370E080E090E00E94C51143
:1024000061E087E00E94160562E370E080E090E002
:102410000E94C5112196E7CFDF91CF911F910F91B7
:102420000895CF92DF92EF92FF920F931F93CF9375
:10243000DF93CDB7DEB72E970FB6F894DEBF0FBE91
:10244000CDBF80919A0390919B038130910509F44F
:10245000CFC0B8F08230910509F40CC1039709F49C
:1024600011C1A8952E960FB6F894DEBF0FBECDBF52
:10247000DF91CF911F910F91FF90EF90DF90CF9060
:10248000089581E00E94EB1170E060E087E596E03E
:102490000E94B4070E94B00D70E060E086E396E011
:1024A0000E94B4070E94B00D70E060E085E196E004
:1024B0000E94B4070E94B00D70E060E084EF95E0E8
:1024C0000E94B4070E94B00D70E060E083ED95E0DB
:1024D0000E94B4070E94B00D70E060E082EB95E0CE
:1024E0000E94B4070E94B00D70E060E081E995E0C1
:1024F0000E94B4070E94B00D70E060E080E795E0B4
:102500000E94B4070E94B00D70E060E08FE495E097
:102510000E94B4070E94B00D70E060E08EE295E08A
:102520000E94B4070E94B00D70E060E08DE095E07D
:102530000E94B4070E94B00D70E060E08CEE94E061
:102540000E94B4070E94B00D70E060E08BEC94E054
:102550000E94B4070E94B00D70E060E08AEA94E047
:102560000E94B4070E94B00D60E084E00E9416054E
:102570000E94F20418161906DCF385EF0E94A906E2
:1025800080E00E94A906182F61E084E00E941605F1
:102590001F71113031F540EFC42E46E0D42E0DE905
:1025A00011E0FF24F394C8010E94F022F601819308
:1025B0006F018F3F09F0F12C0F5F1F4F033AF1E0DD
:1025C0001F0789F782E090E0F11006C00E94320EEA
:1025D0000E94C70D83E090E090939B0380939A0341
:1025E00040CF68EE73E080E090E00E94C51139CFE3
:1025F00060E087E00E9416050E94CD070E9409074F
:102600000E947A0A882399F130EFE32E36E0F32E08
:102610000DE911E0F70161917F01C8010E940823D3
:102620000F5F1F4F033AF1E01F07A1F70E94320E20
:102630000E94C70D0E945106609396037093970302
:10264000809398039093990383E090E090939B0389
:1026500080939A0361E087E00E94160570E060E0D5
:1026600085E196E00E94B4070E94B00DFACE82E0A8
:1026700090E0ECCF82E00E94EB116EEE72E080E021
:1026800090E0B3CF80910701909108012091F60668
:102690002817190609F440C0809195038530A8F5E4
:1026A00080910701909108012CE12983E0EFF6E089
:1026B000DE01129626EF36E041914D932E173F072B
:1026C000D9F792E2988791EF998793E09A871B86D2
:1026D0008C8784E08D876EE0CE0101960E94AE016A
:1026E0008E876EE0CE0101960E948F08882339F014
:1026F00081E00E94EB118091E4068093F6068091C0
:1027000095038F5F80939503ACCE809107019091E4
:1027100008018093F606A5CE109295030E945106FB
:10272000009196031091970320919803309199039B
:10273000AB01BC01401B510B620B730B4938534179
:102740006105710508F48DCED901C80188579C4EEA
:10275000AF4FBF4F8093960390939703A093980336
:10276000B09399031C861B868CE0898301E00A875D
:102770008091F0068A838091F1068B838091F20626
:102780008C838091F3068D838091F4068E838091F3
:10279000F5068F8310919203E12FF0E0ED5FFE4F7D
:1027A000E0818E2F90E0FC01EE0FFF1FE80FF91F74
:1027B000E552F94F80819181988789876CE0CE013D
:1027C00001960E94AE018C87809191038C3090F528
:1027D000123068F51F5F109392038F5F809391030F
:1027E0006CE0CE0101960E948F08882309F439CE4F
:1027F00081E00E94EB1180910601882399F180917C
:10280000E4068093F606282F30E0309308012093E9
:102810000701811124C090E080E00E94B90D8091F1
:10282000F60690E00E94C00D109206011ACE10929A
:102830009203D3CF109203018091E306882349F0DD
:1028400082E080930401111107C081E0809392031C
:10285000C7CF00930401F7CF10929203C1CF81E05C
:1028600090E0DBCF6091E5068091F706861751F086
:1028700082EB95E00E94C1070E94B00D8091E506B1
:102880008093F7066091E6068091F806861751F06E
:1028900081E995E00E94C1070E94B00D8091E60693
:1028A0008093F8066091E7067091E8068091F9063A
:1028B0009091FA068617970721F18091730587702A
:1028C00088628093730580917405806E809374058F
:1028D00090E080E00E94522220E030E048EC52E498
:1028E0000E94512360937705709378058093790552
:1028F00090937A0581E080937B0580E795E00E94C4
:10290000B00D6091E9067091EA068091FB06909106
:10291000FC068617970721F180915205877088621F
:102920008093520580915305806E8093530590E00B
:1029300080E00E94522220E030E048EC52E40E9405
:1029400051236093560570935705809358059093D3
:10295000590581E080935A058FE495E00E94B00DFF
:102960006091EB068091FD06861731F08EE295E0CE
:102970000E94C1070E94B00D6091EC068091FE0696
:10298000861731F08DE095E00E94C1070E94B00DDE
:102990006091ED068091FF06861731F08CEE94E091
:1029A0000E94C1070E94B00D6091EF06809101075F
:1029B000861729F18091CE04877088628093CE04B7
:1029C0008091CF04806E8093CF0470E090E080E02F
:1029D0000E94542220E030E048EC52E40E9451234F
:1029E0006093D2047093D3048093D4049093D5045D
:1029F00081E08093D6048BEC94E00E94B00D60914E
:102A0000EE0680910007861729F18091AD0487704A
:102A100088628093AD048091AE04806E8093AE0492
:102A200070E090E080E00E94542220E030E048EC2A
:102A300052E40E9451236093B1047093B2048093D6
:102A4000B3049093B40481E08093B5048AEA94E0DF
:102A50000E94B00D8091F6069091E406891709F462
:102A600000CD911110C090E0909394038093930354
:102A70001092F606109208011092070190E080E093
:102A80000E94B90DEECC811104C081E090E00E945B
:102A9000B90D8091E4068093F60690E090930801CA
:102AA000809307010E94C00DDCCC1F920F920FB6DD
:102AB0000F9211248F939F938091E1009091E100F8
:102AC000937F9093E10083FF0FC01092E90091E0A3
:102AD0009093EB001092EC0092E39093ED00109233
:102AE000BC0398E09093F00082FF22C093E09093A3
:102AF000E9009091F200992319F09AE39093E8008D
:102B00009091AE03992341F09091AE039150909330
:102B1000AE03911101C05D9A9091BB03992341F0DE
:102B20009091BB0391509093BB03911101C0289ADF
:102B300084FF18C08091E2008E7E81608093E20065
:102B40008091E1008F7E8093E1008091AD038E7EC5
:102B500080618093AD039F918F910F900FBE0F9076
:102B60001F90189580FFF7CF8091E2008E7E8061E4
:102B70008093E2008091E1008E7E8093E10080915D
:102B8000AD038E7E8160E5CF1F920F920FB60F923C
:102B90001124CF92DF92EF92FF920F931F932F9306
:102BA0003F934F935F936F937F938F939F93AF93D5
:102BB000BF93EF93FF93CF93DF93CDB7DEB76C97BF
:102BC000DEBFCDBF1092E9008091E80083FF25C0F1
:102BD00068E0CE0145960E940D0382EF8093E800E5
:102BE0008D8987FF39C09091E80090FFFCCF982F26
:102BF000907609F034C19E894F89588D2F89F88CC1
:102C0000911131C0803861F58091AC038093F1005F
:102C10001092F1008EEF8093E8006C960FB6F89456
:102C2000DEBF0FBECDBFDF91CF91FF91EF91BF917E
:102C3000AF919F918F917F916F915F914F913F9154
:102C40002F911F910F91FF90EF90DF90CF900F90F9
:102C50000FBE0F901F9018959EEF9093E800C7CF7E
:102C60001092F100D5CF913059F48111D3CF41307A
:102C7000510581F68091AC038D7F8093AC03CACF60
:102C8000933049F48111C6CF4130510519F6809136
:102C9000AC038260F2CF953041F48091E80080FF70
:102CA000FCCF20682093E300B5CF963009F0A9C08F
:102CB0000B8D1C8D22E01092E9001092AA03109255
:102CC000A903F2122EC01092A8031092A7030E942B
:102CD000DC021F8299E09983FA8291E09E8390EA58
:102CE00098879AEF99872091A9033091AA03275FCB
:102CF0003F4F3C832B838D831092E9001092AA03EF
:102D00001092A9031093A8030093A70349E050E091
:102D1000BE016F5F7F4F80E00E94B6020E94DC021E
:102D200079CF1093A8030093A7030E944102DC010E
:102D300012960D911C910115110509F451C1D8018C
:102D4000ED91FC910480F581E02DBE016B5E7F4F1B
:102D5000C8010995009709F03EC1F8010085118569
:102D6000EACFF3E0FF120EC08F89882309F440C038
:102D7000823061F440E86EE089E392E00E948302D1
:102D8000811148CF81E28093EB0047CF813029F455
:102D900040E86BE08DE292E0F1CF833099F70E943A
:102DA0004102DC011296ED90FC908E010F5F1F4FE7
:102DB0006801E114F10479F0D701ED91FC910680EE
:102DC000F781E02DB801C7010995080F111DF70122
:102DD000E084F184EECFD8011C92F601019000202E
:102DE000E9F73197BF016C197D0940E0C601C6CFF4
:102DF00067E172E0FB01449150E080E80E94B60276
:102E000009CF973009F4BECF983021F481E0809348
:102E1000F10000CF993009F0FDCE837009F0B2CFF8
:102E2000EEE3F1E081E031E096E32191222371F0BD
:102E30008093E9003093EB00DF0111972C912093F0
:102E4000EC009093ED008F5F873079F78EE78093E9
:102E5000EA001092EA008F898093BC03DBCE8B8D51
:102E60009C8D1092E9001092AA031092A9039093EE
:102E7000A8038093A703898D811192C08E899D89B3
:102E8000913A49F4813209F07DCF47E050E067E1A3
:102E900071E080E0B3CF913209F074CF833269F4EE
:102EA0008F89988DB0E0A0E0809313019093140176
:102EB000A0931501B0931601ADCE803269F48091D4
:102EC000E80082FFFCCF67E087E191E00E940D03FC
:102ED0008BEF8093E8009ECE823209F09BCE8F89E3
:102EE00080931E01EEEFFFE7859194918B3F9C4DFF
:102EF00051F1E0E0F8E08091170190911801A09164
:102F00001901B0911A01803B9440A105B105F1F47B
:102F100080911E0180FD1AC0EE3F8AE0F80789F516
:102F200087E797E791838083809160008093AB036C
:102F300088E19BE00FB6F894A895809360000FBEDF
:102F40009093600067CEEEEFFAE0D5CF808191815B
:102F50008737974709F05ECEA89580916000886119
:102F6000809360008091AB0380936000EE3F2AE085
:102F7000F20789F08091FE0A9091FF0A9183808385
:102F800049CE808191818737980751F29093FF0A4B
:102F90008093FE0AC5CF1092FF0A1092FE0A3ACE25
:102FA0000E944102DC0112960D911C910115110540
:102FB00009F4E8CED801ED91FC910190F081E02D6B
:102FC000BE016B5E7F4FC8010995811123CEF801C8
:102FD00000851185EBCF181619060CF41BCED2CE46
:102FE000F1E0FF12BECE6BE172E004CF1F920F92B0
:102FF0000FB60F9211242F933F934F935F936F93CC
:103000007F938F939F93AF93BF93EF93FF938DEB3A
:1030100093E00E948E03FF91EF91BF91AF919F913A
:103020008F917F916F915F914F913F912F910F9071
:103030000FBE0F901F9018951F920F920FB60F9210
:1030400011242F938F939F93EF93FF93E091CD03E0
:10305000F091CE038081E091D303F091D40382FDFF
:103060001BC090818091D6038F5F8F732091D7030F
:10307000821741F0E091D603F0E0E354FC4F958FC6
:103080008093D603FF91EF919F918F912F910F9095
:103090000FBE0F901F9018958081F4CF1F920F9252
:1030A0000FB60F9211242F933F938F939F93AF935B
:1030B000BF9380919F039091A003A091A103B09131
:1030C000A20330919E0326E0230F2D3758F5029678
:1030D000A11DB11D20939E0380939F039093A00395
:1030E000A093A103B093A2038091A3039091A403A2
:1030F000A091A503B091A6030196A11DB11D8093D7
:10310000A3039093A403A093A503B093A603BF9138
:10311000AF919F918F913F912F910F900FBE0F9084
:103120001F90189529E8230F0396A11DB11DD2CF3A
:103130001F920F920FB60F9211242F933F934F932C
:103140005F936F937F938F939F93AF93BF93EF930F
:10315000FF93E0911101F09112010995FF91EF9118
:10316000BF91AF919F918F917F916F915F914F919F
:103170003F912F910F900FBE0F901F9018951F92A7
:103180000F920FB60F9211242F933F934F935F939B
:103190006F937F938F939F93AF93BF93EF93FF931F
:1031A000E0910F01F09110010995FF91EF91BF910E
:1031B000AF919F918F917F916F915F914F913F91CF
:1031C0002F910F900FBE0F901F9018951F920F9286
:1031D0000FB60F9211242F933F934F935F936F93EA
:1031E0007F938F939F93AF93BF93EF93FF93E09160
:1031F0000D01F0910E010995FF91EF91BF91AF91F3
:103200009F918F917F916F915F914F913F912F91FE
:103210000F900FBE0F901F9018951F920F920FB630
:103220000F9211242F933F934F935F936F937F934C
:103230008F939F93AF93BF93EF93FF93E0910B0115
:10324000F0910C010995FF91EF91BF91AF919F9182
:103250008F917F916F915F914F913F912F910F903F
:103260000FBE0F901F9018951F920F920FB60F92DE
:1032700011242F933F934F935F936F937F938F937B
:103280009F93AF93BF93EF93FF93E0910901F09168
:103290000A010995FF91EF91BF91AF919F918F9195
:1032A0007F916F915F914F913F912F910F900FBE42
:1032B0000F901F9018951F920F920FB60F92112426
:1032C0000F900FBE0F901F901895CF93DF93FC01C6
:1032D000108211821282148215821682DC011796E6
:1032E0008AE1ED0119928A95E9F782E08383DF9103
:1032F000CF9108950F931F93CF93DF93EDEBF3E0FE
:103300001382128288EE93E0A0E0B0E0848395837C
:10331000A683B78328E431E0318320832DEC30E0AD
:10332000358724872CEC30E03787268728EC30E07F
:10333000318B208B29EC30E0338B228B2AEC30E070
:10334000358B248B2EEC30E0378B268B118E128E32
:10335000138E148EEAE5F4E013821282848395833F
:10336000A683B7838AE591E0918380838FEF9FEFF7
:10337000958784878AEB96E00E94651989E996E033
:103380000E94651988E796E00E94651987E596E036
:103390000E946519E7E5F6E003E00683C8E1C5830E
:1033A00086E396E00E946519E6E3F6E084E0868312
:1033B000C58385E196E00E946519E5E1F6E012E03B
:1033C0001683158384EF95E00E946519E4EFF5E01C
:1033D000D1E0D683058383ED95E00E946519E3ED86
:1033E000F5E0D683158382EB95E00E946519E2EB48
:1033F000F5E085E08683D58381E995E00E94651933
:10340000E1E9F5E086E08683D58380E795E00E94D8
:103410006519E0E7F5E087E0868315828FE495E0A3
:103420000E946519EFE4F5E088E0868315828EE25C
:1034300095E00E946519EEE2F5E089E08683C58398
:103440008DE095E00E946519EDE0F5E08AE0868365
:10345000C5838CEE94E00E946519ECEEF4E08BE0FD
:103460008683C5838BEC94E00E946519EBECF4E055
:103470008CE08683C2E2C5838AEA94E00E946519E3
:10348000EAEAF4E08DE08683C583DF91CF911F9156
:103490000F910895789484B5826084BD84B581606D
:1034A00084BD85B5826085BD85B5816085BD80910F
:1034B0006E00816080936E00109281008091810087
:1034C000826080938100809181008160809381007F
:1034D0008091800081608093800080919100826063
:1034E0008093910080919100816080939100809100
:1034F00090008160809390008091C10084608093EF
:10350000C1008091C10082608093C1008091C100A0
:1035100081608093C1008091C30081608093C3006B
:103520008091C00082608093C0008091C200816061
:103530008093C20080917A00846080937A008091A9
:103540007A00826080937A0080917A008E7F8093E7
:103550007A0080917A00806880937A001092BC0390
:103560001092AC031092AD038091D70081608093DC
:10357000D70080EA8093D80089B58F7E89BD89B550
:10358000826089BD09B400FEFDCF61E070E080E09B
:1035900090E00E949A058091D8008F7C8061809392
:1035A000D8008091E000807F8093E0008091E1006E
:1035B0008E7E8093E1008DE08093E200559A209A00
:1035C000A89580E090E0892B11F00E9400008FEF19
:1035D0009FEF9093670480936604C0911E016AE098
:1035E00070E080E090E00E949A05CC23B1F38091D6
:1035F0009D038D7F80939D030E945C0741E050E016
:1036000063E071E08CE993E00E94E0221092790679
:1036100010927A068FEF80937E068EE080937D066F
:1036200080917C06807E836080937C0666E672E0F3
:1036300088E796E00E94820C0E94CD0C0E94CF0F7A
:103640000E94140780919D0381FD04C08160826007
:1036500080939D03A895C0E0D0E0A8950E94D80F64
:103660000E9411122097C9F30E9484038823A9F3B2
:103670000E940000F2CFEF920F931F93CF93DF933E
:10368000E80134E047FD34E1042E000C550B57FFF0
:1036900003C0519541955109E32E022F242FAE010D
:1036A0000E94671FCE01DF91CF911F910F91EF9084
:1036B00008950F931F93CF93DF938230910510F4F9
:1036C00082E090E0E0910A07F0910B0730E020E003
:1036D000B0E0A0E0309799F42115310509F44AC013
:1036E000281B390B24303105D8F58A819B8161155F
:1036F000710589F1FB0193838283FE0111C0408132
:1037000051810281138148175907E0F04817590782
:1037100099F4109761F012960C93129713961C93DC
:103720003296CF01DF91CF911F910F9108950093B1
:103730000A0710930B07F4CF2115310551F04217FA
:10374000530738F0A901DB019A01BD01DF01F8013F
:10375000C1CFEF01F9CF90930B0780930A07CDCF2C
:10376000FE01E20FF31F81939193225031093983B7
:103770002883D7CF2091080730910907232B41F4E4
:1037800020912101309122013093090720930807ED
:1037900020911F01309120012115310541F42DB7F1
:1037A0003EB74091230150912401241B350BE09139
:1037B0000807F0910907E217F307A0F42E1B3F0B4F
:1037C0002817390778F0AC014E5F5F4F2417350793
:1037D00048F04E0F5F1F50930907409308078193ED
:1037E00091939FCFF0E0E0E09CCFCF93DF930097E1
:1037F000E9F0FC01329713821282A0910A07B0917E
:103800000B07ED0130E020E01097A1F42081318119
:10381000820F931F20910807309109072817390755
:1038200009F061C0F0930907E0930807DF91CF9199
:103830000895EA01CE17DF07E8F54A815B819E0112
:1038400041155105B1F7E901FB83EA83499159918B
:10385000C40FD51FEC17FD0761F48081918102969A
:10386000840F951FE90199838883828193819B83CB
:103870008A83F0E0E0E012968D919C911397009777
:10388000B9F52D913C911197CD010296820F931FAE
:1038900020910807309109072817390739F6309722
:1038A00051F510920B0710920A07B0930907A093E5
:1038B0000807BCCFD383C28340815181840F951FF9
:1038C000C817D90761F44E5F5F4F88819981480F0F
:1038D000591F518340838A819B8193838283211561
:1038E000310509F0B0CFF0930B07E0930A079ECFA4
:1038F000FD01DC01C0CF13821282D7CFFC018827E3
:103900009927E89421912032E9F3293010F02E30E4
:10391000C8F32B3241F02D3239F4689404C00E9470
:10392000191D820F911D219120532A30C0F31EF4DE
:10393000909581959F4F08951F93FC0199278827A3
:10394000BC01E89411911032E9F3193010F01E30E7
:10395000C8F31B3251F01D3249F4689406C00E942E
:10396000041D610F711D811D911D119110531A309D
:10397000B0F33EF490958095709561957F4F8F4F91
:103980009F4F1F910895FA01A191B081009719F4FA
:103990001097E1F0CD01DC01CD010D90002011F474
:1039A000C00113C0FB012191222319F02015D9F782
:1039B000F3CFFB012191201519F41E92119606C038
:1039C0002223C1F70D900020A1F7D001FA01A193A5
:1039D000B0830895BB274A3031F4992322F4BDE225
:1039E000909581959F4F0C94441DBB272A3051F42C
:1039F000992342F4BDE290958095709561957F4F33
:103A00008F4F9F4F0C94221D592F482F372F262F51
:103A1000660F771F881F991F660F771F881F991FD2
:103A2000620F731F841F951F660F771F881F991FD2
:103A300008957AE0979F902D879F802D910D1124F6
:103A40000895BB27FA01A62F62177105810591051C
:103A5000330B30FB66F0AA27660F771F881F991F6C
:103A6000AA1FA21710F0A21B63953850A9F7A05DFA
:103A7000AA3308F0A95DA19336F7B111B193108272
:103A8000CA010C94B421BB27FB015527AA27880F34
:103A9000991FAA1FA41710F0A41B83955051B9F7C2
:103AA000A05DAA3308F0A95DA193009779F7B11141
:103AB000B1931192CB010C94B421AEE0B0E0E3E6F7
:103AC000FDE10C9428230D891E898F89988D2EE0A5
:103AD0002C831A83098397FF02C080E090E8019746
:103AE0009E838D83AE01455E5F4F698D7A8DCE01D9
:103AF00001960E948D1D4D815E8157FD0AC02F8168
:103B00003885421753070CF49A01020F131FF8016E
:103B100010822E96E4E00C944423ABE0B0E0E3E99D
:103B2000FDE10C941A237C013B018A01FC01178200
:103B30001682838181FFC8C1CE0101965C01F70125
:103B40009381F30193FD859193FF81913F01882338
:103B500009F453C1853239F493FD859193FF819126
:103B60003F01853229F4B70190E00E94C421E7CFDC
:103B7000912C212C312CFFE1F31538F08B3211F10F
:103B800090F4803209F1833229F137FC3CC020EDFA
:103B9000280F2A3050F536FE20C08AE0989E200D6E
:103BA0001124922E06C08D3291F0803371F7689403
:103BB00030F8F30193FD859193FF81913F018111CD
:103BC000DACF21C0689431F8689432F8F2CF689463
:103BD00033F8EFCF689434F8ECCFEAE02E9E200D56
:103BE0001124222E689435F8E4CF8E3229F436FC65
:103BF00004C1689436F8DDCF8C3619F4689437F830
:103C0000D8CF8836B1F2982F9F7D95549330E0F04D
:103C10008336A1F18337C1F1833509F063C02801F0
:103C2000F2E04F0E511CF801C080D180692D70E088
:103C300036FC02C06FEF7FEFC6010E949E214C014F
:103C4000689437F882010AC00C5F1F4FFFE3F983C5
:103C500088248394912C6501E89437F833FE2DC0B5
:103C6000522C8114910471F5552009F468CFB701E5
:103C700080E290E00E94C4215A94F6CFF80180813E
:103C800089830E5F1F4FE4CF2801F2E04F0E511CD5
:103C9000F801C080D180692D70E036FC02C06FEF62
:103CA0007FEFC6010E94A9214C018201D5CFB70147
:103CB00080E290E00E94C4212A942814190409F09B
:103CC000B0F7CECFF60137FC859137FE81916F01B9
:103CD000B70190E00E94C42151105A94F1E08F1A6C
:103CE0009108BFCF843619F0893609F077C0F80102
:103CF00037FE6BC060817181828193810C5F1F4FA1
:103D0000F32DFF763F2E97FF09C090958095709513
:103D100061957F4F8F4F9F4F689437F82AE030E0CE
:103D2000A5010E94F421C82ECA188C2C432C36FE03
:103D30000CC0E89440F8C91440F434FE05C032FCCD
:103D400003C0F32DFE7E4F2E892C44FE95C0FE014C
:103D5000EC0DF11D8081803309F087C0242D297E70
:103D6000422E842D8870582E43FC95C040FE8FC093
:103D70009C2C821418F42C0C922C981844FE91C0A0
:103D8000B70180E390E00E94C42142FE09C088E7A9
:103D900090E041FE02C088E590E0B7010E94C42196
:103DA000C91408F48AC0CA94D12C9FEFC91AD90A41
:103DB000CA0CDB1CF60182916F01B70190E00E94F2
:103DC000C421AC14BD04B1F74FCF60817181072EBF
:103DD000000C880B990B0E5F1F4F92CFD32CE894E9
:103DE000D4F82AE030E0853739F1232D297FD22E0F
:103DF0008F3601F148F48835A9F0F7018681978163
:103E00002B96E2E10C943623803749F08837A9F7E6
:103E1000D4FE02C06894D2F820E130E00DC068946E
:103E2000D4F8F6CF34FE03C0822F8660D82E20E16E
:103E300032E002C028E030E0F801D7FE0FC0608118
:103E40007181828193810C5F1F4FA5010E94F42133
:103E5000C82ECA183D2CE89437F867CF608171816D
:103E600090E080E00E5F1F4FF0CF42FC02C08394D1
:103E700078CF8394839475CF842D867809F471CF9D
:103E8000F6CFB70180E290E00E94C42183948214AF
:103E9000C0F3512C73CF522C5818821408F46ECFF3
:103EA000F8CF842D867809F47BCF8BE241FE80E247
:103EB00047FC8DE2B70190E071CFB70180E390E05D
:103EC0000E94C4219A946CCF8FEF9FEF99CFA9E005
:103ED000B0E0EDE6FFE10C9420236A01F22EB02E53
:103EE000102FFBE3AF2EA01608F41BE31F5F012F7A
:103EF00027E0AE014F5F5F4F0E94C620BC01898161
:103F0000982F9970913009F43FC09BE2E1FC04C006
:103F10009E2D9170E0FC3AC05E2D5071E82FE87044
:103F200083FF46C084E0911101C083E0EF2DE81BC0
:103F30008F1508F0E0E0D6018E2F20E2552351F1D5
:103F4000992329F0D6019C93C60101966C01960134
:103F50002D5F3F4FE2FE24C08EE4D6018C9391E4A6
:103F600011969C93119712968C93D9018E2F90E203
:103F700081111BC0E20FF32FF11D10828EEF9FEF16
:103F80002996ECE00C943C239DE2C6CF90E2C4CF8E
:103F90002D9381508111FCCFCE0ED11CE0E0D0CF0B
:103FA0008EE6D6018C9391E6DBCF9D938150E0CFD6
:103FB000482F447082FF3DC084E0911101C083E02E
:103FC0008F1510F4EF2DE81BD6018E2F20E255231C
:103FD00009F1992329F0D6019C93C60101966C0141
:103FE00096012D5F3F4FE2FE1BC089E4D6018C9302
:103FF0008EE411968C93119786E412968C93D901D6
:104000008E2F90E2882309F4B5CF9D938150FACF8B
:104010002D9381508111FCCFCE0ED11CE0E0D9CF81
:1040200089E6D6018C938EE611968C93119786E6DD
:10403000E4CF9B0177FF02C030E020E0A1E0B0E0D8
:10404000911102C0B0E0A0E0F9013196AE0FBF1FA0
:104050008B2C912CBB2009F461C05401EFEFAE1AF8
:10406000BE0AAA0DBB1DFA161B0619F014F04F2D3F
:104070004A1B511188C0E3FC59C07601A42FB0E25D
:10408000A1114FC0C40ED11C992309F45BC040E0BC
:10409000D6011196F60190836D01552309F448C0AD
:1040A000012F060F9A81582F507184FF03C091335E
:1040B00009F4015010160CF047C0093008F008E070
:1040C000EEE2FE2E5B01A01AB10885019194819465
:1040D00091082F3F320729F4D601FC92F601319660
:1040E0006F016217730794F1021713077CF5DB0168
:1040F000A21BB30BAA24A394B12CAC0EBD1EAA0D17
:10410000BB1D11968C9121503109D60111962815AD
:104110003905F4F0F60180836D01DBCFB12CA12CC1
:10412000A0CFF701B1937F01A150AACF9111B0CFD9
:10413000D601942F50E302C05D9391509111FCCFB2
:10414000C40ED11C40E0ACCF01E0BACF80E3DBCF9E
:104150006217730731F4963388F4953311F45523BD
:1041600069F0F6018083FD01842F90E2811108C07F
:10417000A40FB11D1C9290E080E002CF81E3F1CF4B
:1041800091938150F3CF911183CF8ACF283008F0DB
:1041900027E03327DA01990F311D87FD91600096E2
:1041A0006105710539F432602E5F3D9330E32A9545
:1041B000E1F708959F3F30F080387105610509F0FF
:1041C0003C5F3C5F3D93913008F08068911DDF9328
:1041D000CF931F930F93FF92EF92192F987F96958D
:1041E000E92F96959695E90FFF27EA5FFE4F9927ED
:1041F0003327EE24FF24A701E701059008940794D4
:1042000028F4360FE71EF81E491F511D660F771F51
:10421000881F991F0694A1F70590079428F4E70ECC
:10422000F81E491F561FC11D770F881F991F661F53
:104230000694A1F70590079428F4F80E491F561F1D
:10424000C71FD11D880F991F661F771F0694A1F7FE
:104250000590079420F4490F561FC71FD81F990FC8
:10426000661F771F881F0694A9F784911095177011
:1042700041F0D695C79557954795F794E7941A95C9
:10428000C1F7ECEAF0E068941590159135916591CD
:10429000959105907FE27395E118F10A430B560B57
:1042A000C90BD009C0F7E10CF11E431F561FC91FEF
:1042B000D01D7EF4703311F48A95E6CFE894015056
:1042C00030F0080F0AF40027021708F4202F239576
:1042D000022F7A3328F079E37D932A95E9F710C00D
:1042E0007D932A9589F60694979567953795179546
:1042F0001794E118F10A430B560BC90BD00998F03B
:1043000023957E9173957A3308F070E37C932013A4
:10431000B8F77E9170617D9330F0839571E37D9362
:1043200070E32A95E1F71124EF90FF900F911F9110
:10433000CF91DF91992787FD90950895FC01059015
:10434000615070400110D8F7809590958E0F9F1F97
:104350000895FC016150704001900110D8F78095DC
:1043600090958E0F9F1F0895DC01FC01672F7191BE
:104370007723E1F7329704C07C916D93708362914B
:10438000AE17BF07C8F308950F931F93CF93DF9322
:10439000182F092FEB018B8181FD09C01FEF0FEF53
:1043A000812F902FDF91CF911F910F91089582FF60
:1043B00014C02E813F818C819D81281739073CF4E0
:1043C000E881F981CF0101969983888310838E81DA
:1043D0009F8101969F838E83E3CFE885F985812FA6
:1043E0000995892BA1F3DACFFA01AA27283051F1D8
:1043F000203181F1E8946F936E7F6E5F7F4F8F4F16
:104400009F4FAF4FB1E03ED0B4E03CD0670F781F74
:10441000891F9A1FA11D680F791F8A1F911DA11D59
:104420006A0F711D811D911DA11D20D009F4689492
:104430003F912AE0269F11243019305D3193DEF63A
:10444000CF010895462F4770405D4193B3E00FD0F0
:10445000C9F7F6CF462F4F70405D4A3318F0495DDB
:1044600031FD4052419302D0A9F7EACFB4E0A695BE
:104470009795879577956795BA95C9F700976105E0
:10448000710508959B01AC010A2E06945795479536
:1044900037952795BA95C9F7620F731F841F951F2B
:1044A000A01D0895E89409C097FB3EF4909580956F
:1044B000709561957F4F8F4F9F4F9923A9F0F92FEA
:1044C00096E9BB279395F695879577956795B79568
:1044D000F111F8CFFAF4BB0F11F460FF1BC06F5F4E
:1044E0007F4F8F4F9F4F16C0882311F096E911C060
:1044F000772321F09EE8872F762F05C0662371F081
:1045000096E8862F70E060E02AF09A95660F771F94
:10451000881FDAF7880F9695879597F9089597F988
:104520009F6780E870E060E008959FEF80EC089559
:1045300000240A9416161706180609060895002482
:104540000A9412161306140605060895092E0394FC
:10455000000C11F4882352F0BB0F40F4BF2B11F470
:1045600060FF04C06F5F7F4F8F4F9F4F089557FDCF
:104570009058440F551F59F05F3F71F04795880FD1
:1045800097FB991F61F09F3F79F087950895121668
:1045900013061406551FF2CF4695F1DF08C0161614
:1045A00017061806991FF1CF8695710561050894C5
:1045B0000895E894BB2766277727CB0197F90895DC
:1045C000DC01CB01FC01F999FECF06C0F2BDE1BDD3
:1045D000F89A319600B40D9241505040B8F70895C2
:1045E000F999FECF92BD81BDF89A992780B50895BB
:1045F000DC01A40FB51F4150504048F0CB01840F9F
:10460000951F2E910E94092341505040D0F70895E4
:10461000262FF999FECF92BD81BDF89A019700B47B
:10462000021639F01FBA20BD0FB6F894FA9AF99A1B
:104630000FBE08952F923F924F925F926F927F929A
:104640008F929F92AF92BF92CF92DF92EF92FF92A2
:104650000F931F93CF93DF93CDB7DEB7CA1BDB0B4E
:104660000FB6F894DEBF0FBECDBF09942A883988F3
:1046700048885F846E847D848C849B84AA84B984FA
:10468000C884DF80EE80FD800C811B81AA81B98106
:10469000CE0FD11D0FB6F894DEBF0FBECDBFED011A
:1046A00008950E9465230C94A6220E949F2258F030
:1046B0000E94982240F029F45F3F29F00C948F2249
:1046C00051110C94DA220C9495220E94B72268F3BF
:1046D0009923B1F3552391F3951B550BBB27AA27BB
:1046E00062177307840738F09F5F5F4F220F331FF5
:1046F000441FAA1FA9F335D00E2E3AF0E0E832D0BD
:1047000091505040E695001CCAF72BD0FE2F29D0BF
:10471000660F771F881FBB1F261737074807AB0791
:10472000B0E809F0BB0B802DBF01FF2793585F4F06
:104730003AF09E3F510578F00C948F220C94DA22C7
:104740005F3FE4F3983ED4F3869577956795B795E8
:10475000F7959F5FC9F7880F911D9695879597F9F3
:104760000895E1E0660F771F881FBB1F621773076C
:104770008407BA0720F0621B730B840BBA0BEE1F81
:1047800088F7E0950895EE0FFF1F0590F491E02D56
:104790000994B0E0A0E0EFECF3E20C941C238C0150
:1047A000009751F4CB010E94591B8C01C801CDB771
:1047B000DEB7E0E10C943823FC01E60FF71F9C0103
:1047C00022503109E217F30708F49DC0D901CD91B9
:1047D000DC911197C617D70798F0C530D10530F393
:1047E000CE0104978617970708F3C61BD70B2297AD
:1047F000C193D1936D937C93CF010E94F51BD6CFCB
:104800005B01AC1ABD0A4C018C0E9D1EA0910A07DB
:10481000B0910B07512C412CF12CE12C109731F564
:1048200080910807909109078815990509F05CC0E7
:104830004616570608F058C080911F01909120013C
:10484000009741F48DB79EB7409123015091240108
:10485000841B950BE817F90708F055C0F09309077A
:10486000E0930807F90171836083A0CF8D919C913B
:10487000119712966C90129713967C901397A81527
:10488000B90559F56C0142E0C40ED11CCA14DB0411
:1048900020F1AC014A195B09DA011296159780F0F4
:1048A0006282738251834083D9016D937C93E114BA
:1048B000F10471F0D7011396FC93EE93129776CF23
:1048C00022968C0F9D1FF90191838083F301EFCF16
:1048D000F0930B07E0930A0769CF4816590608F4CE
:1048E0002C017D01D3019ACFCB010E94591B7C0181
:1048F000009749F0AE01B8010E948624C8010E94C9
:10490000F51B870153CF10E000E050CFFB01DC0125
:1049100002C001900D9241505040D8F70895FB011C
:10492000DC0101900D920020E1F70895FB01DC010C
:104930004150504048F001900D920020C9F701C04D
:104940001D9241505040E0F70895F894FFCFFFFFCB
:10495000FF000102010100A806A806A806A806A8F3
:1049600006FFFFFFFF00E100000000000000000C58
:10497000078000AAA9A6A59A9996956A6966655ABC
:104980005956556F262E7F8A84CAC400C180810083
:10499000000000000000AF031A034703FB03780385
:1049A00056036A03000000002504CC0546043B04BE
:1049B0008C044A0468043A00322E332E32004661D9
:1049C0006E5800312E320046414E2073706565648A
:1049D00000436C6F6E65207377697463680054617F
:1049E00072676574206164647265737300536F75D8
:1049F000726365206164647265737300496E646FED
:104A00006F722068756D69646974792028252900A2
:104A10004F7574646F6F722068756D69646974791D
:104A20002028252900496E646F6F722074656D70AF
:104A3000657261747572652028C2BA4329004F758A
:104A400074646F6F722074656D70657261747572D5
:104A5000652028C2BA4329004279706173732070BF
:104A60006F736974696F6E20282529004578686125
:104A70007573742046414E202825290053757070A7
:104A80006C792046414E2028252900537570706CA2
:104A90007920666C6F7720286D332F682900457860
:104AA000686175737420666C6F7720286D332F688A
:104AB00029003B00476174657761792073746172E6
:0E4AC00074757020636F6D706C6574652E00E8
:1070000055C000006EC000006CC000006AC00000E7
:1070100068C0000066C0000064C0000062C00000DC
:1070200060C000005EC00000FCC400005AC0000048
:1070300058C0000056C0000054C0000052C00000FC
:1070400050C000005DC000004CC000004AC00000FD
:1070500048C0000046C0000044C0000042C000001C
:1070600040C000003EC000003CC000003AC000002C
:1070700038C0000036C0000034C0000032C000003C
:1070800030C000002EC000002CC000002AC000004C
:1070900028C0000026C0000024C0000022C000005C
:1070A00020C000001EC000001CC0000011241FBE34
:1070B000CFEFDAE0DEBFCDBF11E0A0E0B1E0E2E467
:1070C000FFE702C005900D92A43BB107D9F711E08C
:1070D000A4EBB1E001C01D92AD3CB107E1F74FD385
:1070E0002EC78ECFF89410926F001092810081E02D
:1070F00085BF15BE47985D9A289A0C9400000895A4
:107100001F920F920FB60F9211242F938F939F937C
:10711000EF93FF9310928500109284008091B40148
:107120009091B501009741F001979093B50180933C
:10713000B401892B09F45D9A8091B6019091B70151
:10714000009741F001979093B7018093B601892B86
:1071500009F4289A8091BA019091BB01019690930D
:10716000BB018093BA01E0E0F0E0859194918F5FDC
:107170009F4F49F08091B8019091B9010196909389
:10718000B9018093B801FF91EF919F918F912F9159
:107190000F900FBE0F901F90189584E08093E90028
:1071A0000DC08091E8008B778093E80003C08EB318
:1071B000882351F08091E80082FFF9CF8091E800A8
:1071C00085FFEFCF8091F1000895982F83E08093A1
:1071D000E9008091E80085FD0DC08091E8008E7780
:1071E0008093E80003C08EB3882369F08091E800A3
:1071F00080FFF9CF9093F1005D9884E690E0909342
:10720000B5018093B40108954F925F926F927F927F
:107210008F929F92AF92BF92CF92DF92EF92FF92A6
:107220000F931F93CF93DF9384E08093E9008091C5
:10723000E80082FF57C2289884E690E09093B70157
:107240008093B601AADF182F853481F48CEA9DE083
:107250009093B9018093B80107B600FCFDCFF9996E
:10726000FECF81E180935700E89503C0843519F47F
:1072700094DF8DE00DC28C34E1F38035D1F3843797
:1072800021F484E4A2DF80E003C2813611F489E5B1
:10729000FFC18134B1F481DF182F7FDF90E0880FC8
:1072A000991FAA2797FDA095BA2F312F330F20E001
:1072B000442737FD4095542F822B932BA42BB52BBD
:1072C000B8C1803711F483E5E3C1833549F4C0E0E8
:1072D000D1E089917ADF21E0C730D207D1F7D9C157
:1072E000863521F481E371DF80E3D2C1833731F445
:1072F00087E86BDF85E969DF8EE1CAC18536B9F4BD
:10730000E0E0F0E093E085E090935700E89507B661
:1073100000FCFDCF80935700E89507B600FCFDCF39
:10732000E058FF4FA0E7E030FA0771F7A2CF8237AD
:1073300039F4E1E0F0E089E0809357008491A8C13E
:10734000863439F4E0E0F0E089E0809357008491DE
:107350009FC18E3439F4E3E0F0E089E08093570078
:10736000849196C1813539F4E2E0F0E089E08093C0
:10737000570084918DC1823631F489E526DF80E0A3
:1073800024DF80E885C1823419F0873609F0E5C032
:107390001092B9011092B80100DF082FFEDEF82E1E
:1073A000FCDE682E8554823008F071C1902F80E099
:1073B000CF2DD0E0C82BD92B10926F00173609F0D3
:1073C0004BC081E180935700E895DD24CC24C39421
:1073D0003FC0E090BD01F090BE010091BF0110914F
:1073E000C001B6E46B16D9F4ED2DF0E0EE29FF29CB
:1073F000E4918E2FEADEDD2081F082E090E0A0E0D3
:10740000B0E0E80EF91E0A1F1B1FE092BD01F092CA
:10741000BE010093BF011093C001DC2418C0D80145
:10742000C701B695A7959795879573D5CEDE82E06F
:1074300090E0A0E0B0E0E80EF91E0A1F1B1FE092EA
:10744000BD01F092BE010093BF011093C0012197CE
:10745000209709F0BECF7DC08090BD019090BE0105
:10746000A090BF01B090C00196E4691609F05DC01C
:1074700083E0F40180935700E89507B600FCFDCF48
:1074800054C0F6E46F1661F5772031F1E090BD014C
:10749000F090BE010091BF011091C0017EDED82E98
:1074A000CC24852D90E08C299D29F7010C01409278
:1074B0005700E895112482E090E0A0E0B0E0E80EEB
:1074C000F91E0A1F1B1FE092BD01F092BE0100933E
:1074D000BF011093C00102C060DE582E742423C087
:1074E000E090BD01F090BE010091BF011091C0017C
:1074F00016950795F794E79450DE682FC70111D5CC
:107500008091BD019091BE01A091BF01B091C001D9
:107510000296A11DB11D8093BD019093BE01A09361
:10752000BF01B093C001219704C05524772444249F
:107530004394209709F0A5CF96E4691641F485E0BD
:10754000F40180935700E89507B600FCFDCF8DE06D
:107550003CDE82E080936F009CC0833471F4009124
:10756000BD011091BE0119DE90E021E0F8010C018F
:1075700020935700E89511247CCE833619F5E090CE
:10758000BD01F090BE010091BF011091C00105DE68
:10759000F701E16090E021E00C0120935700E895AD
:1075A000112482E090E0A0E0B0E0E80EF91E0A1F8E
:1075B0001B1FE092BD01F092BE010093BF0110932A
:1075C000C00157CE8D3661F4E091BD01F091BE014E
:1075D00085E080935700E89507B600FCFDCF49CEC3
:1075E000823551F4E091BD01F091BE0105911491F5
:1075F000812FEBDD802F4CC0843421F5E090BD015C
:10760000F090BE010091BF011091C0011695079541
:10761000F794E794C2DD682FC70183D48091BD0140
:107620009091BE01A091BF01B091C0010296A11D31
:10763000B11D8093BD019093BE01A093BF01B09393
:10764000C00117CE843609F5E090BD01F090BE016F
:107650000091BF011091C001D801C701B695A7954F
:107660009795879556D4B1DD82E090E0A0E0B0E038
:10767000E80EF91E0A1F1B1FE092BD01F092BE0129
:107680000093BF011093C00104C08B3111F08FE350
:107690009CDD83E08093E9009091E8008091E80010
:1076A0008E778093E80095FF04C010C08EB38823C6
:1076B000C9F08091E80080FFF9CF8091E8008E77D3
:1076C0008093E80003C08EB3882361F08091E800C6
:1076D00080FFF9CF84E08093E9008091E8008B7708
:1076E0008093E800DF91CF911F910F91FF90EF9071
:1076F000DF90CF90BF90AF909F908F907F906F90D2
:107700005F904F9008959091C501892F8F778132B6
:1077100049F58091C6018032A1F0813219F5913A84
:1077200009F58091E800877F8093E8008CE091E084
:1077300067E070E025D28091E8008B778093E800C5
:107740000895913279F48091E800877F8093E80072
:107750008CE091E067E070E077D28091E8008E776E
:107760008093E800089582E061EC42E0D1D083E0AC
:1077700061E842E1CDD084E060E842E1C9C01F93F6
:10778000209100081092000844B714BE88E10FB69B
:10779000F89480936000109260000FBE80E8E0E0F3
:1077A000F0E00FB6F89480936100E09361000FBEA3
:1077B00031E035BF92E095BF3F9A209A559A809369
:1077C00061001092610047985D9A289A1092890092
:1077D0008AEF8093880090936F0083E0809381000C
:1077E000859194918F5F9F4F11F03093BC01942F3E
:1077F00041FF19C0809109012817A9F08093000862
:10780000789480911301882339F08091BA01909186
:10781000BB0188579140C8F3F8941092000881E0AA
:10782000809313010CC090FF04C08091BC01882399
:1078300051F493FF09C080910901281729F0809124
:10784000BC01882309F04EDCD4D078941092B901A1
:107850001092B8011EEF20C0D7DC49D38091B80147
:107860009091B901815A9F4010F0109213018091BC
:10787000C1019091C20101969093C2018093C10110
:10788000292F97FF03C0512F591B252F220F28178F
:1078900010F4479801C0479A809113018823E1F6BC
:1078A0008091E00081608093E0001CDC80E090E04B
:1078B0001F910895FA01923049F0933061F09130B0
:1078C000F9F484E191E022E130E01EC086E291E02B
:1078D0002EE330E019C0882329F484E691E024E007
:1078E00030E012C0813029F488E691E02EE130E0EA
:1078F0000BC0823029F488E891E02AE230E004C02D
:1079000080E090E020E030E091838083C901089519
:107910008093E9008091EB0081608093EB001092EE
:10792000ED006093EC004093ED008091EE00881F25
:107930008827881F08958091C50188238CF403C08F
:107940008EB38823B1F08091E80082FFF9CF809157
:10795000E8008B778093E80008958EB3882349F080
:107960008091E80080FFF9CF8091E8008E778093C6
:10797000E8000895EF92FF920F931F9345D04CD0EB
:1079800008ED10E0F80180818F7780838081806826
:10799000808380818F7D808319BC1EBA1092C301C1
:1079A00080EEE82EF12CF70180818B7F8083F80137
:1079B00080818160808380E060E042E0A9DFE1EEC9
:1079C000F0E080818E7F8083E2EEF0E08081816054
:1079D0008083808188608083F70180818E7F8083AF
:1079E000F8018081806180831F910F91FF90EF905B
:1079F0000895E7EDF0E08081816080838AE482BFB2
:107A000081E08093C401B6CFE8EDF0E080818E7F05
:107A100080831092E20008951092DA001092E10043
:107A200008951F920F920FB60F9211242F933F9338
:107A30004F935F936F937F938F939F93AF93BF9376
:107A4000EF93FF938091DA0080FF1AC08091D800F5
:107A500080FF16C08091DA008E7F8093DA008091DB
:107A6000D90080FF0AC019BC82E089BD09B400FEBC
:107A7000FDCF81E08EBB3AD203C019BC1EBA36D20C
:107A80008091E10080FF17C08091E20080FF13C069
:107A90008091E2008E7F8093E2008091E20080611D
:107AA0008093E2008091D80080628093D80019BC56
:107AB00085E08EBB1BD28091E10084FF2BC08091BA
:107AC000E20084FF27C019BC82E089BD09B400FE32
:107AD000FDCF8091D8008F7D8093D8008091E10008
:107AE0008F7E8093E1008091E2008F7E8093E200A0
:107AF0008091E20081608093E2008091C30188233D
:107B000031F48091E30087FD02C081E001C084E090
:107B10008EBBECD18091E10083FF21C08091E20017
:107B200083FF1DC08091E100877F8093E10082E0A8
:107B30008EBB1092C3018091E1008E7F8093E100A3
:107B40008091E2008E7F8093E2008091E20080616C
:107B50008093E20080E060E042E0DADEC7D1FF918E
:107B6000EF91BF91AF919F918F917F916F915F91B5
:107B70004F913F912F910F900FBE0F901F9018952E
:107B80009C014091CB015091CC014617570718F446
:107B9000F90190E044C06115710511F0AB01F8CF17
:107BA0008091E8008E778093E80040E050E0F0CFCD
:107BB0008EB3882309F444C0853009F443C0809112
:107BC000E80083FF02C081E008958091E80082FD13
:107BD00031C08091E80080FF22C08091F300909135
:107BE000F200782F60E0292F30E0262B372B07C0DA
:107BF00081918093F100415050402F5F3F4F4115DC
:107C0000510519F02830310598F390E028303105FE
:107C100009F491E08091E8008E778093E8004115A7
:107C2000510531F6992321F605C08EB3882341F022
:107C3000853041F08091E80082FFF7CF80E0089521
:107C400082E0089583E008959C016115710529F48F
:107C50008091E8008B778093E800F90126C08EB30D
:107C6000882391F1853091F18091E80083FF02C073
:107C700081E008958091E80082FFF1CF06C08091F5
:107C8000F10081936150704059F02091F300809190
:107C9000F200322F20E090E0822B932B892B79F792
:107CA0008091E8008B778093E80061157105B9F643
:107CB00005C08EB3882341F0853041F08091E80003
:107CC00080FFF7CF80E0089582E0089583E0089573
:107CD0000F931F93DF93CF9300D0CDB7DEB7E5ECC2
:107CE000F1E08091F100819381E0ED3CF807C9F764
:107CF0000ADD8091E80083FFE4C08091C501909186
:107D0000C601953009F46DC0963040F4913081F190
:107D1000913070F0933009F0D4C02AC0983009F443
:107D2000A3C0993009F4B2C0963009F0CAC07CC033
:107D3000803809F4C6C0823809F0C3C08091C901F7
:107D400087708093E9008091EB001092E900209108
:107D5000E800277F2093E80090E025E0969587953E
:107D60002A95E1F781708093F1001092F10087C0AD
:107D7000882319F0823009F0A4C08F71823009F095
:107D8000A0C08091C701882331F52091C9012770D7
:107D900009F497C02093E9008091EB0080FF1BC09D
:107DA000933021F48091EB00806213C08091EB004E
:107DB00080618093EB0081E090E002C0880F991F02
:107DC0002A95E2F78093EA001092EA008091EB0096
:107DD00088608093EB001092E9008091E800877F33
:107DE00051C0882309F06DC01091C7011F770FB7EC
:107DF000F8948091E800877F8093E8009CDD809173
:107E0000E80080FFFCCF8091E3008078812B809395
:107E1000E30080688093E300112311F482E001C045
:107E200083E08EBB0FBF4DC08058823008F049C040
:107E30008091C7019091C8016091C901AE014F5F67
:107E40005F4F38DDBC01009709F43BC08091E8002A
:107E5000877F8093E80089819A8192DE8091E80093
:107E60008B778093E8002DC0803859F58091E80029
:107E7000877F8093E8008091C3018093F100809117
:107E8000E8008E778093E80056DD1BC08823C9F494
:107E90009091C7019230A8F48091E800877F809389
:107EA000E8009093C30147DD8091C301882331F43A
:107EB0008091E30087FD02C081E001C084E08EBBB9
:107EC00052DC8091E80083FF0AC08091EB00806261
:107ED0008093EB008091E800877F8093E8000F900B
:107EE0000F90CF91DF911F910F91089508951F93E7
:107EF0008EB3882361F01091E9001092E90080911F
:107F0000E80083FF01C0E4DE17701093E9001F91C1
:107F10000895F999FECF92BD81BDF89A992780B551
:107F20000895262FF999FECF1FBA92BD81BD20BDBD
:107F30000FB6F894FA9AF99A0FBE01960895F8943C
:107F4000FFCF4341544552494E410077000800009D
:107F500000000000080112011001020000084F1B80
:107F6000039201000201000109023E0002010080AB
:107F7000320904000001020201000524001001047E
:107F80002402040524060001070582030800FF09F6
:107F9000040100020A0000000705040210000107A6
:107FA000058302100001040309041E03500072003F
:107FB0006F0020004D006900630072006F00200018
:107FC00033002E003300560000002A0353007000D7
:107FD000610072006B00460075006E0020004500D5
:107FE0006C0065006300740072006F006E00690031
:067FF000630073000000B5
:00000001FF
