:020000040000FA
:100000000C945A010C9456170C942F170C94081743
:100010000C94E1160C9482010C9482010C94BA1693
:100020000C9482010C9482010C9477130C94E613C7
:100030000C947D170C9482010C9482010C94820123
:100040000C9482010C9482010C9482010C94820124
:100050000C9482010C9482010C9482010C94701611
:100060000C9482010C943E160C9418160C94820188
:100070000C9482010C9482010C9482010C948201F4
:100080000C9482010C9482010C9482010C948201E4
:100090000C9482010C9482010C9482010C948201D4
:1000A0000C9482010C9482010C94820100407A101D
:1000B000F35A00A0724E18090010A5D4E80000E819
:1000C0007648170000E40B54020000CA9A3B000077
:1000D00000E1F505000080969800000040420F0006
:1000E0000000A08601000000102700000000E803C7
:1000F000000000006400000000000A000000000092
:100100000100000000002C76D888DC674F0823DF50
:10011000C1DFAE59E1B1B796E5E3E453C63AE65123
:10012000997696E8E6C28426EB898C9B62ED407C4A
:100130006FFCEFBC9C9F40F2BAA56FA5F490055AE6
:100140002AF75C936B6CF9676DC11BFCE0E40D470B
:10015000FEF520E6B500D0ED902E0300943577052E
:100160000080841E080000204E0A000000C80C33E6
:100170003333330F986E12831141EF8D2114893B75
:10018000E65516CFFEE6DB18D1844B381BF77C1DF5
:10019000901DA4BBE424203284725E228100C9F148
:1001A00024ECA1E53D2725753B25753B25753B25B1
:1001B000753B25753B25730A0000000000240027CD
:1001C000002A002D00300000000000250028002B30
:1001D000002E003100080B0002020200000904009A
:1001E00000010202000005240010010524010101A4
:1001F00004240206052406000107058103100040BF
:1002000009040100020A0000000705020240000084
:10021000070583024000000403090412010002EFF5
:100220000201404123378000010102030141726451
:1002300075696E6F204C4C430046616E58205246E3
:1002400020446F6E676C65000000000023002600EC
:1002500029002C002F0004040404040304050202F6
:10026000020204030202020206060606060604044F
:1002700002020204040408020110408040102040E1
:10028000804080080204018040201002011080108C
:10029000204040200000000200090F00000304017C
:1002A000000C000000000000000000000000000042
:1002B00000009C1711241FBECFEFDAE0DEBFCDBFD8
:1002C00011E0A0E0B1E0EAEEF2E402C005900D9288
:1002D000AA3CB107D9F725E0AAECB1E001C01D9214
:1002E000A830B207E1F711E0CAE5D1E004C02197D8
:1002F000FE010E949120C935D107C9F70E94181844
:100300000C9473210C940000FC0180910403882359
:1003100011F13FB7F89482E08093E9002091F20058
:10032000822F90E01816190614F481E090E08823DB
:1003300039F0289844E6409303034091F10040834C
:10034000222339F02091F200211103C02BE62093E3
:10035000E8003FBF08958FEF9FEF0895FC0190E004
:1003600030E020E06150770B492F50E046175707E7
:1003700044F44E0F5F1FDA014C91240F311D9F5F33
:10038000F3CF2130B1E03B0714F03A95FACF822F3A
:10039000819508958F929F92AF92BF92CF92DF92F4
:1003A000EF92FF920F931F93CF93DF93CDB7DEB7FA
:1003B00060970FB6F894DEBF0FBECDBF8C0180E111
:1003C000E4E2F1E0DE01119601900D928A95E1F7E9
:1003D00090E0292F220FDE0111964D0130E07801C7
:1003E000E20EF11C6701FFEFCF1ADF0A5A01A90ED6
:1003F000B11CF40181914F01F6017081781302C0A4
:10040000F50130833F5F3031A1F730E06A01C90E5A
:10041000D11C8D91F7017081781308C0F6017081AD
:10042000E32FE295E07F7E2BF60170833F5F303152
:1004300081F79F5F2E5F261760F2CA0160960FB6A4
:10044000F894DEBF0FBECDBFDF91CF911F910F910A
:10045000FF90EF90DF90CF90BF90AF909F908F90E4
:1004600008952FB7F89483E08093E9009091E80015
:10047000892F807295FF04C09091F20080E4891B5F
:100480002FBF08958091FB0281110DC082E08093FF
:10049000F70284E08093F8021092FA021092F902B7
:1004A00081E08093FB0287EF92E008954091F10292
:1004B0005091F2022091EF023091F002421753075F
:1004C000B4F49091E8009570E1F39091E80092FD0A
:1004D00019C08093F1008091F1029091F20201968F
:1004E0008F739927892B19F48EEF8093E800809100
:1004F000F1029091F20201969093F2028093F10240
:1005000081E0089580E00895EF92FF920F931F938A
:10051000CF93DF93F82E192FE62E042F81E0860F5C
:10052000880F0E94560283E00E945602CF2DD12FE1
:10053000EC0EFD2EF11CCE15DF05B9F007FF13C040
:10054000FE0184910E945602182F80E00E945602FC
:10055000812321968111EFCFDF91CF911F910F91D0
:10056000FF90EF9008958881EDCF81E0F5CFDF9285
:10057000EF92FF920F931F93CF93DF93D82E8A01B0
:10058000EB017B01E40EF51ECE15DF0559F0D7FE19
:1005900012C0FE0184910E94560221968111F4CF6F
:1005A0000FEF1FEFC801DF91CF911F910F91FF90C7
:1005B000EF90DF9008958881EECF0F931F93CF9334
:1005C000DF931F92CDB7DEB782E0898342E450E02B
:1005D00065ED71E080E80E94B7020E944202DC01F2
:1005E00012960D911C910115110589F0D801ED911C
:1005F000FC910280F381E02DBE016F5F7F4FC80147
:10060000099597FD04C0F80100851185ECCF89811B
:100610000F90DF91CF911F910F910895615030F0AD
:100620002091F100FC0120830196F8CF289884E600
:10063000809303030895AF92BF92CF92DF92EF921F
:10064000FF920F931F93CF93DF936C017B018B017C
:10065000040F151FEB015E01AE18BF08C017D107CC
:1006600059F06991D601ED91FC910190F081E02D56
:10067000C6010995892B79F7C501DF91CF911F91AB
:100680000F91FF90EF90DF90CF90BF90AF900895C3
:10069000FC01538D448D252F30E0842F90E0821B88
:1006A000930B541710F0CF96089501970895FC010D
:1006B000918D828D981761F0A28DAE0FBF2FB11D65
:1006C0005D968C91928D9F5F9F73928F90E00895BD
:1006D0008FEF9FEF0895FC01918D828D981731F077
:1006E000828DE80FF11D858D90E008958FEF9FEFCB
:1006F0000895FC01918D228D892F90E0805C9F4FA1
:10070000821B91098F739927089585E093E00E94D9
:10071000790321E0892B09F420E0822F0895FC0160
:10072000A48DA80FB92FB11DA35ABF4F2C91848D52
:1007300090E001968F739927848FA689B7892C93AF
:10074000A089B1898C9182748C93938D848D981338
:1007500006C00288F389E02D80818F7D8083089513
:10076000EF92FF920F931F93CF93DF93EC0181E001
:10077000888F9B8D8C8D981319C0E889F9898081A9
:1007800085FF14C09FB7F894EE89FF896083E889DC
:10079000F9898081827480839FBF81E090E0DF913E
:1007A000CF911F910F91FF90EF900895F62E0B8D32
:1007B00010E00F5F1F4F0F731127E02E8C8D8E11ED
:1007C0000CC00FB607FCFACFE889F989808185FF54
:1007D000F5CFCE010E948F03F1CFEB8DEC0FFD2FF3
:1007E000F11DE35AFF4FF0829FB7F8940B8FEA890F
:1007F000FB8980818062CFCFCF93DF93EC01888D1E
:100800008823B9F0AA89BB89E889F9898C9185FD8B
:1008100003C0808186FD0DC00FB607FCF7CF8C9119
:1008200085FFF2CF808185FFEDCFCE010E948F033F
:10083000E9CFDF91CF91089580E090E0892B29F0F6
:100840000E94850381110C9400000895CF93DF93DB
:100850001F92CDB7DEB76983DC01ED91FC91028078
:10086000F381E02D41E050E0BE016F5F7F4F0995BD
:100870000F90DF91CF91089583E08093E9008091FC
:10088000F200882319F08AE38093E80008950E941B
:10089000310290E00895CF93DF931F92CDB7DEB77A
:1008A000FC018485958597FD08C02FEF3FEF3587C4
:1008B00024870F90DF91CF910895CE0101960E9479
:1008C0008401019719F4898190E0F3CF8FEF9FEFB6
:1008D000F0CF0F931F93CF93DF931F92CDB7DEB767
:1008E0008C01FC018485958597FF0BC0CE01019694
:1008F0000E948401019771F4898190E0F801958745
:100900008487F801848595850F90DF91CF911F91A1
:100910000F9108958FEF9FEFF1CFFC0184859585AE
:1009200097FD0BC09FB7F89482E08093E900809117
:10093000F2009FBF90E0019608959FB7F89482E07F
:100940008093E9008091F2009FBF90E0089581506C
:100950008F3008F047C0E82FF0E0EF54FB4F0C94C5
:100960009120CE04D204C004C604CA04F204F204E6
:10097000F204D504DB04DF04E304E904F204ED042B
:10098000809180008F77809380000895809180000F
:100990008F7DF9CF80918000877FF5CF84B58F77E9
:1009A00084BD089584B58F7DFBCF809190008F77B3
:1009B000809390000895809190008F7DF9CF809171
:1009C0009000877FF5CF8091C0008F778093C00023
:1009D00008958091C0008F7DF9CF8091C200877FFC
:1009E0008093C2000895CF93DF93E2EAF2E084910E
:1009F000E3E8F2E0D491E4E6F2E0C491CC23A1F084
:100A000081110E94A704EC2FF0E0EE0FFF1FE85BBE
:100A1000FD4FA591B491EC91ED2381E090E009F4B4
:100A200080E0DF91CF91089580E090E0FACF1F93AE
:100A3000CF93DF93282F30E0F901EC56FD4F8491DE
:100A4000F901EB58FD4FD491F901EA5AFD4FC491D9
:100A5000CC23A9F0162F81110E94A704EC2FF0E0FF
:100A6000EE0FFF1FE953FE4FA591B4918FB7F89495
:100A7000EC91111108C0D095DE23DC938FBFDF917C
:100A8000CF911F910895DE2BF8CFCF93DF9390E0A5
:100A9000FC01EB58FD4F24918A5A9D4FFC01849133
:100AA0008823D1F090E0880F991FFC01E754FE4F96
:100AB000A591B491FC01E953FE4FC591D491611108
:100AC0000EC09FB7F8948C91E22FE0958E238C9303
:100AD0002881E223E8839FBFDF91CF9108958FB7EC
:100AE000F894EC91E22BEC938FBFF6CF3FB7F894DC
:100AF0008091EB029091EC02A091ED02B091EE0298
:100B000026B5A89B05C02F3F19F00196A11DB11D68
:100B10003FBFBA2FA92F982F8827BC01CD01620FA4
:100B2000711D811D911D43E0660F771F881F991F5E
:100B30004A95D1F708958F929F92AF92BF92CF922C
:100B4000DF92EF92FF924B015C010E9476056B01F0
:100B50007C010E9476056C197D098E099F09683E0B
:100B6000734081059105A8F321E0821A9108A1083C
:100B7000B10888EEC80E83E0D81EE11CF11C811478
:100B80009104A104B10429F7FF90EF90DF90CF907A
:100B9000BF90AF909F908F9008958F929F92AF9249
:100BA000BF92CF92DF92EF92FF920F931F93CF935A
:100BB000DF936C017B018A0180911D01882309F478
:100BC0005CC080910403882309F457C08091F5022A
:100BD00080FF05C08091E00082608093E000E80122
:100BE000B12C8AEFA82E93E0892E2AE3922E20972B
:100BF00011F4BB20D9F10E94310281110AC0AA94DC
:100C0000AA20D9F161E070E080E090E00E949B05AD
:100C1000EECF8C171D0611F00CF08C2F9FB7F894B7
:100C20008092E9002091E80025FD02C09FBFDFCF40
:100C3000282F30E0C21BD30BF701815020F04191E7
:100C40004093F100FACFE20EF31EBB2021F0909208
:100C5000E800B12CEBCF8091E80085FDE7CF9092C2
:100C6000E800BB24B394209709F3F3CF5D9884E6A2
:100C70008093F602101611063CF081E090E0F60138
:100C80009383828310E000E0C801DF91CF911F9130
:100C90000F91FF90EF90DF90CF90BF90AF909F901B
:100CA0008F9008952FB7F8946091E7027091E80251
:100CB0008091E9029091EA022FBF089508958EBDB8
:100CC00000000DB407FEFDCF8EB50895CF93C82F59
:100CD00060E084E00E9417050E94F30418161906CC
:100CE000DCF38C2F0E945F0661E084E0CF910C94CE
:100CF000170561E084E00E94170586E090E0019707
:100D0000F1F760E084E00E94170580E190E0019730
:100D1000F1F761E084E00E9417058EE490E001970E
:100D2000F1F760E084E00E9417050E94F3041816B2
:100D30001906DCF380E30E945F060E94F304181694
:100D40001906DCF361E084E00C941705CF93DF9380
:100D5000D82FC62F60E084E00E9417050E94F3049C
:100D600018161906DCF38D2F0E945F068C2F0E9447
:100D70005F0661E084E0DF91CF910C94170560E09D
:100D800082E10E94A6066DE082E00E94A60684E34E
:100D90000C9466060FB6F894A8958091600088615F
:100DA00080936000109260000FBE61E087E00E94B7
:100DB000450561E087E00E941705E5E0F3E0A089C2
:100DC000B18982E08C93A485B5851C92A685B785F0
:100DD00089E18C93108EA489B58986E08C93A289D1
:100DE000B3898C9180618C93A289B3898C9188603E
:100DF0008C93A289B3898C9180688C930288F38943
:100E0000E02D80818F7D808388E199E20FB6F89490
:100E1000A895809360000FBE909360000895CF93D3
:100E200061E084E00E944505CFB7F8948091DA0232
:100E3000811127C0E7E6F2E08491E6E8F2E09491C0
:100E4000E82FF0E0EE0FFF1FE754FE4FA591B4919D
:100E5000EC91E92321F461E081E10E94170561E052
:100E600081E10E9445058CB580618CBD8CB58064A4
:100E70008CBD61E08FE00E94450561E080E10E9449
:100E800045058091DA028F5F8093DA02CFBF60E080
:100E90008BE00E9445050E94790686E30E94660663
:100EA00089E3CF910C946606FC0183818770806191
:100EB000838384818F718064848370876783CF018B
:100EC0000895EF92FF920F931F93CF93DF93CDB7C7
:100ED000DEB728970FB6F894DEBF0FBECDBF0E94D5
:100EE000790661E28DE00E94A60665E68EE00E942A
:100EF000A6066AE88FE00E94A6066EE282E00E94E3
:100F0000A6066AE080E00E94A60668E08BE00E94E8
:100F1000A60660E08CE00E94A6066AE580E10E94D9
:100F2000A60663E881E10E94A60660E082E10E94D5
:100F3000A60662E283E10E94A60668EF84E10E94B1
:100F4000A60660E08AE00E94A60660E585E10E94B0
:100F5000A60666EB81E20E94A60667E182E20E9495
:100F6000A60668E188E10E94A6066DE189E10E947B
:100F7000A6066CE18AE10E94A60667EC8BE10E945E
:100F8000A60660E08CE10E94A60662EB8DE10E945D
:100F9000A6066BEF80E20E94A60669EE83E20E943D
:100FA000A6066AE284E20E94A60660E085E20E944C
:100FB000A6066FE186E20E94A60669E08EE20E9424
:100FC000A60664E087E00E94A60662E388E00E942D
:100FD000A60688E0E4E3F1E0DE01119601900D92AF
:100FE0008A95E1F760E084E00E9417050E94F3040F
:100FF00018161906DCF38EE70E945F068E010F5F5C
:101000001F4F7E0189E0E80EF11CF80181918F01EC
:101010000E945F060E151F05C1F761E084E00E9483
:10102000170586E30E94660686E328960FB6F894B5
:10103000DEBF0FBECDBFDF91CF911F910F91FF900B
:10104000EF900C9466062F923F924F925F926F92B0
:101050007F928F929F92AF92BF92CF92DF92EF9248
:10106000FF920F931F93CF93DF93CDB7DEB7CA5C88
:10107000D1090FB6F894DEBF0FBECDBF2DB73EB776
:10108000C753DF4F39832883C95CD040E62EEE0C6E
:101090003FE0E30E70E09B01220F331F4DB75EB7B8
:1010A000421B530B0FB6F8945EBF0FBE4DBF2DB75A
:1010B0003EB72F5F3F4F40E1E4E2F1E08E010F5F6A
:1010C0001F4FD80101900D924A95E1F7DC01F12CF8
:1010D000BD906901CF0CD11C4B2D407F50E0E4E066
:1010E00055954795EA95E1F7400F511FFA01408168
:1010F000F601408341E04F0D420F532F511DEB2D60
:10110000EF70E00FF12FF11DD080FA01D082F3943F
:10111000F394AD01481B590B46175707CCF2AE01AB
:10112000465F5F4FF80185E58193E417F507E1F726
:101130009FEF9A871B8693E39C878D8783E58E8735
:10114000F901D801F12CC70101979D01201B310B3A
:101150002817390734F421911E962C931E97119667
:10116000F4CF800F911F25E3FC0120830E946107CB
:101170006EE282E00E94A60660E082E10E94A6067E
:1011800085E30E946606A701B80185E093E00E940E
:101190001B0385E093E00E94FC0386E30E94660641
:1011A0000E94BF060E9452062B013C01212C312CCB
:1011B00080E06E01F8ECCF0ED11C811117C10E94A6
:1011C00052066419750986099709F12C6D32714030
:1011D0008105910508F099C085E093E00E947903AC
:1011E000181619060CF08EC0F1108CC0FE01EB59D8
:1011F000FF4F8F0181818193EC15FD05D9F785E0C3
:1012000093E00E945703F6018083332009F4C3C0A2
:10121000F1E6F21508F4BDC023948533E9F6ADB6C6
:10122000BEB692E69219E92FF0E022E630E02E1BDE
:101230003F0B2F5F3F4F4DB75EB7421B530B0FB6AF
:10124000F8945EBF0FBE4DBF2DB73EB72F5F3F4F27
:1012500043E650E04E1B5F0B7A01F594E79440FDA6
:1012600093C0E00FF11FD90181918D939F5F933659
:10127000D9F7470151E0851A91088DB79EB78E19AD
:101280009F090FB6F8949EBF0FBE8DBF0DB71EB756
:101290000F5F1F4FA801622DC9010E94CA016E2D68
:1012A000C8010E94AE01F801E80DF91D9081891373
:1012B0006BC0F80194812091010535818091020570
:1012C000381302C081E0291380E0F8012681909153
:1012D0000305291359C0882309F456C02091FA0444
:1012E00090E0E92FF0E0E815F9050CF043C0E00FBD
:1012F000F11F3081313321F43181393D09F42581E9
:101300009F5FEFCFFF2009F45ACF86E30E94660665
:101310006EE282E00E94A60686E30E94660689E3EA
:101320000E9466068F2DC753DF4F28813981C95C23
:10133000D0400FB6F8943EBF0FBE2DBFC653DF4F4F
:101340000FB6F894DEBF0FBECDBFDF91CF911F91D6
:101350000F91FF90EF90DF90CF90BF90AF909F9054
:101360008F907F906F905F904F903F902F90089557
:10137000F12C32CF2093FA040FB6F894BEBE0FBE04
:10138000ADBE382EF82E28CF0FB6F894BEBE0FBED5
:10139000ADBE832D12CF8A3611F0863649F7C95378
:1013A000DF4F8881C75CD040893A11F7CA53DF4FBD
:1013B0008881C65CD0408335D9F6CB53DF4F888116
:1013C000C55CD0408535A1F6CC53DF4F8881C45C25
:1013D000D040833369F681E0CD53DF4F9881C35C01
:1013E000D040911180E0F12C382EF6CEF12C8DCF2B
:1013F0000F931F93CF93DF93EC018881998100971E
:1014000059F02A813B812617370730F081E0DF91C0
:10141000CF911F910F9108958B016F5F7F4F0E94B5
:101420009720009759F0998388831B830A832C8126
:101430003D81232B59F7FC011082E8CF80E0E7CFF4
:10144000CF93DF93EC0188819981009711F00E947E
:10145000C319198218821D821C821B821A82DF9195
:10146000CF9108950F931F93CF93DF93EC010C81DD
:101470001D810F5F1F4FB8010E94F809882391F06A
:10148000288139818C819D8167E671E0820F931FED
:101490000E945D211D830C83CE01DF91CF911F91AE
:1014A0000F910895CE010E94200AF6CFEF92FF928D
:1014B0000F931F93CF93DF93EC01FB01E080F1804A
:1014C000E114F10411F10481158101151105A9F050
:1014D0008C819D81080F191FB801CE010E94F80967
:1014E000882399F0288139818C819D81B701820FF1
:1014F000931F0E945D211D830C83CE01DF91CF914C
:101500001F910F91FF90EF900895CE010E94200A45
:10151000F4CFEF92FF920F931F93CF93DF93EC01E1
:101520007B018A01BA010E94F80981110BC0CE012A
:101530000E94200ACE01DF91CF911F910F91FF9061
:10154000EF9008951D830C83B701888199810E94D3
:101550005D21F0CFEF92FF920F931F93CF93DF9314
:10156000CDB7DEB7A1970FB6F894DEBF0FBECDBFE3
:101570008C01CB01BA01F801118210821382128210
:10158000158214822AE0AE014F5F5F4F7A010E94FC
:10159000EF1AF70101900020E9F73197AF014E19DA
:1015A0005F09B701C8010E94890AA1960FB6F89495
:1015B000DEBF0FBECDBFDF91CF911F910F91FF9086
:1015C000EF900895EF92FF920F931F93CF93DF93C5
:1015D000CDB7DEB729970FB6F894DEBF0FBECDBFEB
:1015E0008C01862FF80111821082138212821582DB
:1015F00014824AE09E012F5F3F4F7901B90190E0CC
:101600000E94111BF70101900020E9F73197AF010B
:101610004E195F09B701C8010E94890A29960FB6C1
:10162000F894DEBF0FBECDBFDF91CF911F910F9118
:10163000FF90EF900895FB01DC0111961C921E9221
:1016400013961C921E92129715961C921E92149736
:101650008617970749F0608171816115710521F046
:10166000448155810C94890A0895FC0180819181FF
:10167000009711F00C94C31908950F931F93CF9303
:10168000DF938C0180E06115710551F0EB01099049
:101690000020E9F721978C2F861B8A3108F089E119
:1016A000F801C381C770F8E08F9FC0011124C82BD7
:1016B000F801C38384818F718483C695C695C695CE
:1016C000CA3108F0C9E1D0E0AE01C80107960E9416
:1016D0006421C00FD11F1F82C801DF91CF911F91DC
:1016E0000F910895FC0124812295269527702130C1
:1016F00039F4878191E0811101C090E0892F08952C
:10170000211104C007960E944C1AF4CF80E0F2CF5A
:101710000F931F93CF93DF93EC018C818295869575
:101720008770D9F44B814695469546954A3108F025
:1017300049E150E0BE01695F7F4F87EA92E00E9475
:101740006421EB81E695E695E695EA3108F0E9E15A
:10175000F0E0E955FD4F10820AC0813009F044C025
:101760008F814AE067EA72E090E00E94B81A8C81AB
:1017700027EA32E03F932F939D811F929F9384FB32
:10178000992790F91F929F9387701F928F938E8154
:101790001F928F9389811F928F9386EA91E09F9386
:1017A0008F931F9288E78F93CFE2D2E0DF93CF939E
:1017B0000E942B1B09900020E9F7AE0140535240D4
:1017C0006FE272E082EA93E00E94CD05EDB7FEB7CA
:1017D00072960FB6F894FEBF0FBEEDBF81E0DF91A9
:1017E000CF911F910F910895823031F44AE067EA5A
:1017F00072E08F819885B9CF833041F44AE067EA7F
:1018000072E08F8198850E94111BB1CF843051F412
:101810006F81788589859A852AE047EA52E00E949F
:10182000C31AA5CF853051F46F81788589859A8553
:101830002AE047EA52E00E94EF1A99CF20E0873071
:1018400071F42B85293008F028E06F81788589852F
:101850009A8507EA12E042E00E94091988CFEB81DD
:10186000E695E695E695EA3108F0E9E12E1738F5B8
:10187000E22FF0E0AF01440F551FDA01A955BD4F2B
:10188000EC0FFD1F8781082E000C990B34E0959515
:1018900087953A95E1F78F708A3068F4805D8C9374
:1018A00048555D4F87818F708A3038F4805DFA012A
:1018B00080832F5FD4CF895CF2CF895CF8CFF0E0D2
:1018C000EE0FFF1F46CFFC012281211102C00C94B4
:1018D000880B80E00895FC0111829481907F9160D3
:1018E0009483CF010C94630CBC0182EF93E00E94BF
:1018F00054070C946B0CBC0183E194E00E945407E4
:101900000C946B0CCF92DF92EF92FF92CF93DF9308
:10191000CDB7DEB768970FB6F894DEBF0FBECDBF68
:10192000EAEFF4E08481C580D12CF12CE12CFE2C6F
:10193000ED2CDC2CCC24E82A8681C82AB701A6012C
:1019400063707727CE010D960E94AA0AC701B601DF
:1019500022E196958795779567952A95D1F7CE01DF
:1019600001960E94E20ABE016F5F7F4FCE0107968B
:101970000E941B0BCE0107960E94320ABE01635FD4
:101980007F4F0E94560ABC01CE0143960E941B0B5A
:10199000CE0107960E94350BCE0101960E94350BB1
:1019A000CE010D960E94350B6B897C8985E594E00C
:1019B0000E943D0B0E946B0CCE0143960E94350B9A
:1019C00068960FB6F894DEBF0FBECDBFDF91CF9102
:1019D000FF90EF90DF90CF900895CF92DF92EF923B
:1019E000FF92CF93DF93CDB7DEB768970FB6F89429
:1019F000DEBF0FBECDBFEAEFF4E08781C084D12CFB
:101A0000F12CE12CFE2CED2CDC2CCC24E82A818559
:101A1000C82AB701A60163707727CE010D960E94F0
:101A2000AA0AC701B60122E1969587957795679531
:101A30002A95D1F7CE0101960E94E20ABE016F5F9E
:101A40007F4FCE0107960E941B0BCE0107960E9486
:101A5000320ABE01635F7F4F0E94560ABC01CE016D
:101A600043960E941B0BCE0107960E94350BCE01B8
:101A700001960E94350BCE010D960E94350B6B89A5
:101A80007C8986E794E00E943D0B0E946B0CCE019E
:101A900043960E94350B68960FB6F894DEBF0FBED2
:101AA000CDBFDF91CF91FF90EF90DF90CF90089561
:101AB000CF93DF93FC01248124FD8EC0EC0185814E
:101AC0008230B1F48681823099F4CF010E94720B8A
:101AD000882371F081E090E09093E3028093E2022A
:101AE00061E070E084E394E00E9454070E946B0C74
:101AF0008E81813009F070C08D818230A9F4CE01D1
:101B00000E94720B811150C08091060190910701D3
:101B10009093DC028093DB02109205011092040185
:101B200090E080E00E94740C8D81833009F054C0F5
:101B30008C81829586958770823009F040C08F81B4
:101B400098859C018536910514F024E630E037FF36
:101B500002C030E020E03093050120930401809121
:101B600004019091050104978CF5809104019091F6
:101B700005019093050180930401809104019091E7
:101B80000501181619062CF58091040190910501A4
:101B900090930501809304018091040190910501C7
:101BA000DF91CF910C947B0C8091DB029091DC0251
:101BB000909305018093040181E090E0B3CF8111FF
:101BC000C8CFCE0107960E944C1ABBCF84E090E0AC
:101BD000D0CF90E080E0DCCFDF91CF9108951092DC
:101BE00098041092990480939D0460939C049091B2
:101BF0009B04907E90939B048F3F11F449E651E043
:101C0000BA0187E994E00E943D0B0C94630C1F938A
:101C1000CF93DF93C7E9D4E019821A821FEF1E83A6
:101C20008BE08D838C81807E83608C836FE671E096
:101C3000CE010E943D0B0E94630C19821A821E8302
:101C40008CE08D838C81807E83608C8364E771E07F
:101C5000CE010E943D0B0E94630C48E751E064E016
:101C600070E081E00E94EF0D42E851E063E070E037
:101C700082E00E94EF0D4FE851E067E170E083E001
:101C80000E94EF0D4EE951E067E170E084E0DF91E2
:101C9000CF911F910C94EF0D48EC51E061E170E0A1
:101CA0008FEF0E94EF0D0C94070EEF92FF921F939F
:101CB000CF93DF93CDB7DEB76B970FB6F894DEBF47
:101CC0000FBECDBF82EA93E00E948D04892B09F4F8
:101CD000E0C082EA93E00E944B0490912E0293367A
:101CE00008F0FCC0E92FF0E0E653FE4F8A3009F01F
:101CF000F0C010821092DA041092D9048091DD04B1
:101D00008F7E8093DD04AE01465E5F4F6DEA71E029
:101D10008AEC91E00E94911A47E0E42EF12C10E049
:101D2000009709F484C1153009F495C10E944C1A3A
:101D30001230D1F078F41130A1F08093DB04AE01C1
:101D4000465E5F4F6DEA71E090E080E00E94911A7C
:101D50001F5FE6CF133091F0143079F78093DE04E3
:101D6000EECF8093DF04EBCF7C018091DD04887F90
:101D70009E2D9770892B8093DD04E1CF2091DD04A7
:101D8000277F41E050E0892B11F450E040E0CA0188
:101D900033E0880F991F3A95E1F7822BECCF91360B
:101DA00014F0975567C1975365C1213614F0275534
:101DB00068C1275366C14091DC0447708A3108F03E
:101DC00089E128E0829FC0011124482B4093DC0464
:101DD0008091DD048F71806C8093DD04469546957B
:101DE00046954A3108F049E150E0BE016F5F7F4FF0
:101DF00080EE94E00E94542110922E0281E2E9EDDF
:101E0000F4E0A8EBB4E001900D928A95E1F710910F
:101E1000BA0411113EC08091BC0483FF17C091E247
:101E2000E8EBF4E0A7E9B4E001900D929A95E1F7B0
:101E3000877E806180939B04109298048091B904FE
:101E40008093990487E994E00E94880B8091BC04F8
:101E5000982F9770933009F0E5C09091BD049230AF
:101E600009F03FC010929804109299048FEF80936C
:101E70009D0490939C0480919B04807E836080935A
:101E80009B0469E671E087E994E00E943D0B0E94A3
:101E9000880B6B960FB6F894DEBF0FBECDBFDF91F7
:101EA000CF911F91FF90EF90089501900020E9F7E6
:101EB000E81BE250E80FF92FF11D20812D3011F0C1
:101EC0002A3009F41082BC0189ED94E00E943D0B98
:101ED00093CF80839F5F90932E02F4CE10922E02B8
:101EE000F1CEF090B904F11071C09D3059F488E141
:101EF00098E00FB6F894A895809360000FBE909379
:101F00006000FFCF9B3109F4C4CF963099F49091D3
:101F1000BF0481E0992319F09D3409F080E080939B
:101F2000E40241E050E063E071E084EE92E00E9460
:101F30003820AFCF933119F40E944C0EAACF9231C2
:101F400011F50E94520610929804109299042FEFF6
:101F500020939D0426E120939C0420919A042770ED
:101F6000206220939A0423EA20939B0460939E04AA
:101F700070939F048093A0049093A10487E994E058
:101F80000E94630C86CF913009F083CF20E030E0CF
:101F9000232B09F47ECF829586958770853059F47E
:101FA0006091BF047091C0048091C1049091C204FB
:101FB0000E9400006ECF811105C08FEB94E00E945B
:101FC0006A1AF6CF60E070E0CB01F2CF9A3109F0E7
:101FD00060CF8295869587708130E1F41091BF04BF
:101FE00010929804F09299048FEF80939D048BE1F6
:101FF00080939C0480919A048770886080939A04EF
:1020000083E280939B0481E0123008F480E08093A7
:102010009E04B4CF8111E4CF8FEB94E00E944C1A60
:10202000182FDECF88EB94E00E94580D32CF8091BC
:10203000DC04877088608093DC048091DD048F71FC
:1020400080628093DD041092E00410922E0215301D
:1020500009F4D4CE1ECFFC0124E0E216F10409F00D
:1020600024CF80E09081992309F4A5CE9A330CF017
:1020700096CE90539295907F21812A330CF095CE85
:102080002053A1E0B0E0AC0FBD1FA80FB11D920F0F
:102090009C938F5F3296E6CF8F929F92AF92BF92C2
:1020A000CF92DF92EF92FF924B015C010E945206A9
:1020B0006B017C010E9452066C197D098E099F09F3
:1020C000681579058A059B0520F4A8950E94550E90
:1020D000F1CFFF90EF90DF90CF90BF90AF909F90A7
:1020E0008F9008950F931F93CF93DF93D0E0C0E0BC
:1020F000082F10E0C017D107B4F460E087E00E9419
:10210000170562E370E080E090E00E944C1061E00F
:1021100087E00E94170562E370E080E090E00E9493
:102120004C102196E7CFDF91CF911F910F91089529
:102130002F923F924F925F926F927F928F929F92D7
:10214000AF92BF92CF92DF92EF92FF920F931F93C5
:10215000CF93DF93CDB7DEB7C656D1090FB6F8944B
:10216000DEBF0FBECDBF4DB75EB7A7965FAF4EAF18
:10217000A7978091E2029091E3028130910509F4E2
:102180009BC058F18230910509F497C1039709F477
:102190009CC1A895A796EEADFFADA7970FB6F89492
:1021A000FEBF0FBEEDBFCA59DF4F0FB6F894DEBFBA
:1021B0000FBECDBFDF91CF911F910F91FF90EF9098
:1021C000DF90CF90BF90AF909F908F907F906F9057
:1021D0005F904F903F902F90089581E00E94721081
:1021E00070E060E086E794E00E9454070E946B0C68
:1021F00070E060E085E594E00E9454070E946B0C5B
:1022000070E060E084E394E00E9454070E946B0C4D
:1022100070E060E083E194E00E9454070E946B0C40
:1022200070E060E082EF93E00E9454070E946B0C24
:1022300060E084E00E9417050E94F3041816190656
:10224000DCF385EF0E945F0680E00E945F06182F96
:1022500061E084E00E9417051F71113031F56EEFC7
:10226000C62E64E0D62E0DE911E0FF24F394C801D8
:102270000E943020F60181936F018F3F09F0F12C0D
:102280000F5F1F4F033AF1E01F0789F782E090E0EC
:10229000F11006C00E94ED0C0E94820C83E090E0D9
:1022A0009093E3028093E20274CF68EE73E080E0E3
:1022B00090E00E944C106DCF60E087E00E9417050F
:1022C0000E9461070E94BF060E9452062B013C013A
:1022D000812C912C80E06E0124E6C20ED11C81116C
:1022E00003C20E9452066419750986099709693864
:1022F00073418105910508F0F7C1F12C85E093E069
:102300000E947903181619060CF076C0F11074C0FB
:10231000FE0131968F0181818193CE16DF06D9F7B8
:1023200085E093E00E945703F6018083992009F429
:10233000A0C0F1E6F81508F49AC083948533F1F64D
:10234000ADB6BEB692E69819E92FF0E022E630E08D
:102350002E1B3F0B2F5F3F4F4DB75EB7421B530BFA
:102360000FB6F8945EBF0FBE4DBF2DB73EB72F5FBF
:102370003F4F43E650E04E1B5F0B7A01F594E79424
:1023800040FD70C0E00FF11FD90181918D939F5FD7
:102390009336D9F7170151E0251A31088DB79EB74A
:1023A0008E199F090FB6F8949EBF0FBE8DBF0DB753
:1023B0001EB70F5F1F4FA801682DC9010E94CA01F7
:1023C0006E2DC8010E94AE01F801E20DF31D90814F
:1023D000891348C0F8013196AEEFB4E0095F1F4F92
:1023E00081918D930E171F07D9F70FB6F894BEBED3
:1023F0000FBEADBEF92C82CFFF2009F472CF8EEF55
:10240000E82E84E0F82E0DE911E0F70161917F01DB
:10241000C8010E9448200F5F1F4F033AF1E01F07D9
:10242000A1F70E94ED0C0E94820C0E94520660935C
:10243000DE027093DF028093E0029093E10283E07A
:1024400090E09093E3028093E20261E087E00E94D3
:10245000170570E060E084E394E00E9454070E9456
:102460006B0C97CE0FB6F894BEBE0FBEADBE892DD5
:1024700036CF8A3509F041CFA4968FADA497893A1B
:1024800009F03BCFA3968FADA397833509F035CFE5
:10249000A2968FADA297853509F02FCFA1968FAD6B
:1024A000A197833309F029CF81E0A0969FADA09733
:1024B000911180E0F12C982E21CF82E00E947210C1
:1024C0006EEE72E080E090E0F4CE20910601309153
:1024D000070180910401909105012817390709F43B
:1024E00044C08091DD028530B8F58091040190915F
:1024F00005012CE12983EEEFF4E0DE011296219133
:102500002D9325E0E430F207D1F792E2988791EF1E
:10251000998793E09A871B868C8784E08D876EE08D
:10252000CE0101960E94AE018E876EE0CE0101962B
:102530000E942308882351F081E00E94721080914C
:10254000FA0490E090930701809306018091DD02E8
:102550008F5F8093DD021DCE809104019091050173
:10256000909307018093060114CE1092DD020E9421
:1025700052060091DE021091DF022091E0023091BC
:10258000E102AB01BC01401B510B620B730B4938DC
:1025900053416105710508F4FCCDD901C801885784
:1025A0009C4EAF4FBF4F8093DE029093DF02A0930B
:1025B000E002B093E1028CE18983EEEFF4E0DE010A
:1025C000129681918D9395E0E430F907D1F781E37C
:1025D000888780EE898788E08A871B861C861D860F
:1025E0001E8681E08F87188A84E6898B1A8A63E1C8
:1025F000CE0101960E94AE018B8B63E1CE01019664
:102600000E942308882309F4C4CD81E00E9472103F
:10261000909103018091FA04992319F190E090932D
:102620000701809306018091060190910701909324
:102630000501809304018091060190910701892B87
:1026400069F490E080E00E94740C80910601909102
:1026500007010E947B0C109203019BCD81E090E06A
:10266000F2CF20910601309107018217130609F479
:1026700090CD811119C0809106019091070190932E
:10268000DC028093DB021092070110920601809118
:10269000060190910701909305018093040190E059
:1026A00080E00E94740C75CD809106019091070125
:1026B000892B21F481E090E00E94740C8091FA044F
:1026C00090E090930701809306018091060190911C
:1026D0000701909305018093040180910601909178
:1026E00007010E947B0C55CD82E090E0AACE1F929C
:1026F0000F920FB60F9211248F939F938091E10058
:102700009091E100937F9093E10083FF0FC01092BE
:10271000E90091E09093EB001092EC0092E390932B
:10272000ED001092040398E09093F00082FF22C025
:1027300093E09093E9009091F200992319F09AE3C5
:102740009093E8009091F602992341F09091F6025F
:1027500091509093F602911101C05D9A90910303FC
:10276000992341F0909103039150909303039111A9
:1027700001C0289A84FF18C08091E2008E7E81609B
:102780008093E2008091E1008F7E8093E100809150
:10279000F5028E7E80618093F5029F918F910F905C
:1027A0000FBE0F901F90189580FFF7CF8091E20029
:1027B0008E7E80618093E2008091E1008E7E809326
:1027C000E1008091F5028E7E8160E5CF1F920F922D
:1027D0000FB60F921124CF92DF92EF92FF920F93D8
:1027E0001F932F933F934F935F936F937F938F9399
:1027F0009F93AF93BF93EF93FF93CF93DF93CDB7A7
:10280000DEB76C97DEBFCDBF1092E9008091E80083
:1028100083FF25C068E0CE0145960E940E0382EF3B
:102820008093E8008D8987FF39C09091E80090FF80
:10283000FCCF982F907609F034C19E894F89588D2E
:102840002F89F88C911131C0803861F58091F402A4
:102850008093F1001092F1008EEF8093E8006C9667
:102860000FB6F894DEBF0FBECDBFDF91CF91FF91C1
:10287000EF91BF91AF919F918F917F916F915F91F8
:102880004F913F912F911F910F91FF90EF90DF900B
:10289000CF900F900FBE0F901F9018959EEF9093C2
:1028A000E800C7CF1092F100D5CF913059F48111D3
:1028B000D3CF4130510581F68091F4028D7F809312
:1028C000F402CACF933049F48111C6CF413051058B
:1028D00019F68091F4028260F2CF953041F4809134
:1028E000E80080FFFCCF20682093E300B5CF96304E
:1028F00009F0A9C00B8D1C8D22E01092E900109206
:10290000F2021092F102F2122EC01092F002109216
:10291000EF020E94DD021F8299E09983FA8291E022
:102920009E8390EA98879AEF99872091F1023091DF
:10293000F202275F3F4F3C832B838D831092E90087
:102940001092F2021092F1021093F0020093EF0243
:1029500049E050E0BE016F5F7F4F80E00E94B70208
:102960000E94DD0279CF1093F0020093EF020E94E3
:102970004202DC0112960D911C910115110509F41A
:1029800051C1D801ED91FC910480F581E02DBE018B
:102990006B5E7F4FC8010995009709F03EC1F801B1
:1029A00000851185EACFF3E0FF120EC08F898823DE
:1029B00009F440C0823061F440E86EE089E392E0BF
:1029C0000E948402811148CF81E28093EB0047CFBF
:1029D000813029F440E86BE08DE292E0F1CF833062
:1029E00099F70E944202DC011296ED90FC908E0154
:1029F0000F5F1F4F6801E114F10479F0D701ED91E9
:102A0000FC910680F781E02DB801C7010995080FF8
:102A1000111DF701E084F184EECFD8011C92F6017C
:102A200001900020E9F73197BF016C197D0940E062
:102A3000C601C6CF67E172E0FB01449150E080E837
:102A40000E94B70209CF973009F4BECF983021F425
:102A500081E08093F10000CF993009F0FDCE8370C2
:102A600009F0B2CFEDE3F1E081E031E096E32191AE
:102A7000222371F08093E9003093EB00DF0111977E
:102A80002C912093EC009093ED008F5F873079F7C5
:102A90008EE78093EA001092EA008F898093040306
:102AA000DBCE8B8D9C8D1092E9001092F202109279
:102AB000F1029093F0028093EF02898D811192C010
:102AC0008E899D89913A49F4813209F07DCF47E0A2
:102AD00050E066E171E080E0B3CF913209F074CF4D
:102AE000833269F48F89988DB0E0A0E08093120161
:102AF00090931301A0931401B0931501ADCE8032D1
:102B000069F48091E80082FFFCCF67E086E191E004
:102B10000E940E038BEF8093E8009ECE823209F074
:102B20009BCE8F8980931D01EEEFFFE785919491F5
:102B30008B3F9C4D51F1E0E0F8E0809116019091BF
:102B40001701A0911801B0911901803B9440A10593
:102B5000B105F1F480911D0180FD1AC0EE3F8AE0BD
:102B6000F80789F587E797E7918380838091600074
:102B70008093F30288E19BE00FB6F894A8958093C8
:102B800060000FBE9093600067CEEEEFFAE0D5CF05
:102B9000808191818737974709F05ECEA895809113
:102BA00060008861809360008091F30280936000F0
:102BB000EE3F2AE0F20789F08091FE0A9091FF0A29
:102BC0009183808349CE808191818737980751F224
:102BD0009093FF0A8093FE0AC5CF1092FF0A1092CD
:102BE000FE0A3ACE0E944202DC0112960D911C911F
:102BF0000115110509F4E8CED801ED91FC91019081
:102C0000F081E02DBE016B5E7F4FC80109958111F7
:102C100023CEF80100851185EBCF181619060CF4A8
:102C20001BCED2CEF1E0FF12BECE6BE172E004CF3C
:102C30001F920F920FB60F9211242F933F934F9331
:102C40005F936F937F938F939F93AF93BF93EF9314
:102C5000FF9385E093E00E948F03FF91EF91BF9176
:102C6000AF919F918F917F916F915F914F913F9124
:102C70002F910F900FBE0F901F9018951F920F92DB
:102C80000FB60F9211242F938F939F93EF93FF937F
:102C9000E0911503F09116038081E0911B03F09100
:102CA0001C0382FD1BC0908180911E038F5F8F7378
:102CB00020911F03821741F0E0911E03F0E0EB5FCB
:102CC000FC4F958F80931E03FF91EF919F918F9101
:102CD0002F910F900FBE0F901F9018958081F4CF09
:102CE0001F920F920FB60F9211242F933F938F9341
:102CF0009F93AF93BF938091E7029091E802A091D8
:102D0000E902B091EA023091E60226E0230F2D3766
:102D100058F50296A11DB11D2093E6028093E702AB
:102D20009093E802A093E902B093EA028091EB024B
:102D30009091EC02A091ED02B091EE020196A11DDE
:102D4000B11D8093EB029093EC02A093ED02B0933F
:102D5000EE02BF91AF919F918F913F912F910F9074
:102D60000FBE0F901F90189529E8230F0396A11D01
:102D7000B11DD2CF1F920F920FB60F9211242F9335
:102D80003F934F935F936F937F938F939F93AF93F3
:102D9000BF93EF93FF93E0911001F091110109951A
:102DA000FF91EF91BF91AF919F918F917F916F9123
:102DB0005F914F913F912F910F900FBE0F901F90F9
:102DC00018951F920F920FB60F9211242F933F93D5
:102DD0004F935F936F937F938F939F93AF93BF9323
:102DE000EF93FF93E0910E01F0910F010995FF9190
:102DF000EF91BF91AF919F918F917F916F915F9173
:102E00004F913F912F910F900FBE0F901F901895EB
:102E10001F920F920FB60F9211242F933F934F934F
:102E20005F936F937F938F939F93AF93BF93EF9332
:102E3000FF93E0910C01F0910D010995FF91EF9145
:102E4000BF91AF919F918F917F916F915F914F91C2
:102E50003F912F910F900FBE0F901F9018951F92CA
:102E60000F920FB60F9211242F933F934F935F93BE
:102E70006F937F938F939F93AF93BF93EF93FF9342
:102E8000E0910A01F0910B010995FF91EF91BF913B
:102E9000AF919F918F917F916F915F914F913F91F2
:102EA0002F910F900FBE0F901F9018951F920F92A9
:102EB0000FB60F9211242F933F934F935F936F930D
:102EC0007F938F939F93AF93BF93EF93FF93E09183
:102ED0000801F09109010995FF91EF91BF91AF9120
:102EE0009F918F917F916F915F914F913F912F9122
:102EF0000F900FBE0F901F9018951F920F920FB654
:102F00000F9211240F900FBE0F901F901895CF9322
:102F1000DF93FC01108211821282148215821682C4
:102F2000DC0117968AE1ED0119928A95E9F782E0B2
:102F30008383DF91CF9108951F93CF93DF93E5E0D3
:102F4000F3E01382128288EE93E0A0E0B0E0848385
:102F50009583A683B78327E431E0318320832DEC6A
:102F600030E0358724872CEC30E03787268728EC43
:102F700030E0318B208B29EC30E0338B228B2AEC34
:102F800030E0358B248B2EEC30E0378B268B118E86
:102F9000128E138E148EE2EAF3E01382128284837F
:102FA0009583A683B78389E591E0918380838FEF32
:102FB0009FEF9587848789ED94E00E94871788EBBF
:102FC00094E00E94871787E994E00E94871786E7BC
:102FD00094E00E948717E6E7F4E013E01683C8E167
:102FE000C58385E594E00E948717E5E5F4E084E079
:102FF0008683C58384E394E00E948717E4E3F4E0CA
:10300000C2E0C683C58383E194E00E948717E3E1B1
:10301000F4E0D1E0D683158382EF93E00E94871716
:10302000E2EFF3E0D683C583DF91CF911F9108953E
:10303000789484B5826084BD84B5816084BD85B593
:10304000826085BD85B5816085BD80916E0081609F
:1030500080936E0010928100809181008260809345
:103060008100809181008160809381008091800047
:1030700081608093800080919100826080939100B4
:103080008091910081608093910080919000816097
:10309000809390008091C10084608093C1008091F2
:1030A000C10082608093C1008091C10081608093E3
:1030B000C1008091C30081608093C3008091C000F3
:1030C00082608093C0008091C20081608093C200C2
:1030D00080917A00846080937A0080917A00826087
:1030E00080937A0080917A008E7F80937A0080911D
:1030F0007A00806880937A00109204031092F402A0
:103100001092F5028091D70081608093D70080EA09
:103110008093D80089B58F7E89BD89B5826089BDCD
:1031200009B400FEFDCF61E070E080E090E00E9415
:103130009B058091D8008F7C80618093D80080911E
:10314000E000807F8093E0008091E1008E7E80939C
:10315000E1008DE08093E200559A209AA89580E0E6
:1031600090E0892B11F00E9400008FEF9FEF909369
:10317000AF038093AE03C0911D016AE070E080E070
:1031800090E00E949B05CC23B1F38091E5028D7FF6
:103190008093E5020E940F0741E050E063E071E098
:1031A00084EE92E00E9420201092980410929904DC
:1031B0008FEF80939D048EE080939C0480919B040C
:1031C000807E836080939B046FEA71E087E994E0DE
:1031D0000E943D0B0E94880B0E944C0E0E94CA0662
:1031E0008091E50281FD04C0816082608093E502E8
:1031F000A895C0E0D0E0A8950E94550E0E949810B6
:103200002097C9F30E9485038823A9F30E94000038
:10321000F2CFEF920F931F93CF93DF93E80134E047
:1032200047FD34E1042E000C550B57FF03C05195A8
:1032300041955109E32E022F242FAE010E94351D26
:10324000CE01DF91CF911F910F91EF9008950F93D1
:103250001F93CF93DF938230910510F482E090E0CA
:10326000E0910605F091070530E020E0B0E0A0E035
:10327000309799F42115310509F44AC0281B390B00
:1032800024303105D8F58A819B816115710589F15A
:10329000FB0193838283FE0111C040815181028131
:1032A000138148175907E0F04817590799F4109708
:1032B00061F012960C93129713961C933296CF01DD
:1032C000DF91CF911F910F91089500930605109300
:1032D0000705F4CF2115310551F04217530738F097
:1032E000A901DB019A01BD01DF01F801C1CFEF01A6
:1032F000F9CF9093070580930605CDCFFE01E20F2D
:10330000F31F819391932250310939832883D7CFBA
:103310002091040530910505232B41F420912001D3
:1033200030912101309305052093040520911E0161
:1033300030911F012115310541F42DB73EB7409161
:10334000220150912301241B350BE0910405F091DB
:103350000505E217F307A0F42E1B3F0B28173907CA
:1033600078F0AC014E5F5F4F2417350748F04E0FE1
:103370005F1F5093050540930405819391939FCF60
:10338000F0E0E0E09CCFCF93DF930097E9F0FC0101
:10339000329713821282A0910605B0910705ED01C4
:1033A00030E020E01097A1F420813181820F931F3B
:1033B00020910405309105052817390709F061C0EF
:1033C000F0930505E0930405DF91CF910895EA019C
:1033D000CE17DF07E8F54A815B819E014115510553
:1033E000B1F7E901FB83EA8349915991C40FD51FD5
:1033F000EC17FD0761F4808191810296840F951F7F
:10340000E90199838883828193819B838A83F0E099
:10341000E0E012968D919C9113970097B9F52D914C
:103420003C911197CD010296820F931F20910405C4
:10343000309105052817390739F6309751F5109264
:10344000070510920605B0930505A0930405BCCFAF
:10345000D383C28340815181840F951FC817D90738
:1034600061F44E5F5F4F88819981480F591F5183E6
:1034700040838A819B81938382832115310509F0E2
:10348000B0CFF0930705E09306059ECFFD01DC0168
:10349000C0CF13821282D7CFFC0188279927E894E6
:1034A00021912032E9F3293010F02E30C8F32B326D
:1034B00041F02D3239F4689404C00E94E71A820F5B
:1034C000911D219120532A30C0F31EF490958195CF
:1034D0009F4F08951F93FC0199278827BC01E8940A
:1034E00011911032E9F3193010F01E30C8F31B327D
:1034F00051F01D3249F4689406C00E94D21A610F3F
:10350000711D811D911D119110531A30B0F33EF4BD
:1035100090958095709561957F4F8F4F9F4F1F912C
:103520000895FA01A191B081009719F41097E1F084
:10353000CD01DC01CD010D90002011F4C00113C0BC
:10354000FB012191222319F02015D9F7F3CFFB01BC
:103550002191201519F41E92119606C02223C1F75D
:103560000D900020A1F7D001FA01A193B083089536
:10357000BB274A3031F4992322F4BDE2909581951E
:103580009F4F0C94121BBB272A3051F4992342F40D
:10359000BDE290958095709561957F4F8F4F9F4FBD
:1035A0000C94F01A592F482F372F262F660F771FAC
:1035B000881F991F660F771F881F991F620F731F3F
:1035C000841F951F660F771F881F991F08957AE043
:1035D000979F902D879F802D910D11240895BB27D3
:1035E000FA01A62F6217710581059105330B30FB97
:1035F00066F0AA27660F771F881F991FAA1FA217B8
:1036000010F0A21B63953850A9F7A05DAA3308F00B
:10361000A95DA19336F7B111B1931082CA010C9440
:10362000821FBB27FB015527AA27880F991FAA1FB6
:10363000A41710F0A41B83955051B9F7A05DAA33CD
:1036400008F0A95DA193009779F7B111B193119298
:10365000CB010C94821FAEE0B0E0E1E3FBE10C94FF
:1036600068200D891E898F89988D2EE02C831A83FE
:10367000098397FF02C080E090E801979E838D83C5
:10368000AE01455E5F4F698D7A8DCE0101960E9435
:103690005B1B4D815E8157FD0AC02F813885421723
:1036A00053070CF49A01020F131FF80110822E9693
:1036B000E4E00C948420ABE0B0E0E1E6FBE10C94A4
:1036C0005A207C013B018A01FC011782168283810A
:1036D00081FFC8C1CE0101965C01F7019381F3011E
:1036E00093FD859193FF81913F01882309F453C194
:1036F000853239F493FD859193FF81913F018532A5
:1037000029F4B70190E00E94921FE7CF912C212C61
:10371000312CFFE1F31538F08B3211F190F4803247
:1037200009F1833229F137FC3CC020ED280F2A3003
:1037300050F536FE20C08AE0989E200D1124922E6E
:1037400006C08D3291F0803371F7689430F8F30140
:1037500093FD859193FF81913F018111DACF21C0C3
:10376000689431F8689432F8F2CF689433F8EFCF68
:10377000689434F8ECCFEAE02E9E200D1124222E1E
:10378000689435F8E4CF8E3229F436FC04C168948D
:1037900036F8DDCF8C3619F4689437F8D8CF8836F0
:1037A000B1F2982F9F7D95549330E0F08336A1F1CC
:1037B0008337C1F1833509F063C02801F2E04F0E71
:1037C000511CF801C080D180692D70E036FC02C028
:1037D0006FEF7FEFC6010E946C1F4C01689437F8B1
:1037E00082010AC00C5F1F4FFFE3F9838824839492
:1037F000912C6501E89437F833FE2DC0522C8114CA
:10380000910471F5552009F468CFB70180E290E08A
:103810000E94921F5A94F6CFF801808189830E5F2F
:103820001F4FE4CF2801F2E04F0E511CF801C08079
:10383000D180692D70E036FC02C06FEF7FEFC601CA
:103840000E94771F4C018201D5CFB70180E290E042
:103850000E94921F2A942814190409F0B0F7CECFC1
:10386000F60137FC859137FE81916F01B70190E039
:103870000E94921F51105A94F1E08F1A9108BFCF05
:10388000843619F0893609F077C0F80137FE6BC02D
:1038900060817181828193810C5F1F4FF32DFF76D0
:1038A0003F2E97FF09C090958095709561957F4F49
:1038B0008F4F9F4F689437F82AE030E0A5010E94AF
:1038C000C21FC82ECA188C2C432C36FE0CC0E8949C
:1038D00040F8C91440F434FE05C032FC03C0F32D97
:1038E000FE7E4F2E892C44FE95C0FE01EC0DF11D8D
:1038F0008081803309F087C0242D297E422E842DBB
:103900008870582E43FC95C040FE8FC09C2C8214BA
:1039100018F42C0C922C981844FE91C0B70180E347
:1039200090E00E94921F42FE09C088E790E041FEAD
:1039300002C088E590E0B7010E94921FC91408F404
:103940008AC0CA94D12C9FEFC91AD90ACA0CDB1CB1
:10395000F60182916F01B70190E00E94921FAC14B2
:10396000BD04B1F74FCF60817181072E000C880B29
:10397000990B0E5F1F4F92CFD32CE894D4F82AE016
:1039800030E0853739F1232D297FD22E8F3601F192
:1039900048F48835A9F0F701868197812B96E2E1FA
:1039A0000C947620803749F08837A9F7D4FE02C0FE
:1039B0006894D2F820E130E00DC06894D4F8F6CFD6
:1039C00034FE03C0822F8660D82E20E132E002C090
:1039D00028E030E0F801D7FE0FC06081718182815C
:1039E00093810C5F1F4FA5010E94C21FC82ECA18E9
:1039F0003D2CE89437F867CF6081718190E080E0DA
:103A00000E5F1F4FF0CF42FC02C0839478CF8394A7
:103A1000839475CF842D867809F471CFF6CFB701E2
:103A200080E290E00E94921F83948214C0F3512C94
:103A300073CF522C5818821408F46ECFF8CF842D0F
:103A4000867809F47BCF8BE241FE80E247FC8DE271
:103A5000B70190E071CFB70180E390E00E94921F20
:103A60009A946CCF8FEF9FEF99CFA9E0B0E0EBE392
:103A7000FDE10C9460206A01F22EB02E102FFBE3C2
:103A8000AF2EA01608F41BE31F5F012F27E0AE0145
:103A90004F5F5F4F0E94941EBC018981982F9970DF
:103AA000913009F43FC09BE2E1FC04C09E2D91706F
:103AB000E0FC3AC05E2D5071E82FE87083FF46C0ED
:103AC00084E0911101C083E0EF2DE81B8F1508F011
:103AD000E0E0D6018E2F20E2552351F1992329F001
:103AE000D6019C93C60101966C0196012D5F3F4F54
:103AF000E2FE24C08EE4D6018C9391E411969C934F
:103B0000119712968C93D9018E2F90E281111BC0D0
:103B1000E20FF32FF11D10828EEF9FEF2996ECE05C
:103B20000C947C209DE2C6CF90E2C4CF2D938150AF
:103B30008111FCCFCE0ED11CE0E0D0CF8EE6D601B5
:103B40008C9391E6DBCF9D938150E0CF482F44705A
:103B500082FF3DC084E0911101C083E08F1510F415
:103B6000EF2DE81BD6018E2F20E2552309F1992372
:103B700029F0D6019C93C60101966C0196012D5F38
:103B80003F4FE2FE1BC089E4D6018C938EE4119670
:103B90008C93119786E412968C93D9018E2F90E224
:103BA000882309F4B5CF9D938150FACF2D9381508E
:103BB0008111FCCFCE0ED11CE0E0D9CF89E6D60131
:103BC0008C938EE611968C93119786E6E4CF9B0139
:103BD00077FF02C030E020E0A1E0B0E0911102C028
:103BE000B0E0A0E0F9013196AE0FBF1F8B2C912CF5
:103BF000BB2009F461C05401EFEFAE1ABE0AAA0D52
:103C0000BB1DFA161B0619F014F04F2D4A1B51115B
:103C100088C0E3FC59C07601A42FB0E2A1114FC0C7
:103C2000C40ED11C992309F45BC040E0D601119663
:103C3000F60190836D01552309F448C0012F060F4A
:103C40009A81582F507184FF03C0913309F40150B9
:103C500010160CF047C0093008F008E0EEE2FE2E26
:103C60005B01A01AB10885019194819491082F3FBE
:103C7000320729F4D601FC92F60131966F016217E2
:103C8000730794F1021713077CF5DB01A21BB30B3A
:103C9000AA24A394B12CAC0EBD1EAA0DBB1D119677
:103CA0008C9121503109D601119628153905F4F06F
:103CB000F60180836D01DBCFB12CA12CA0CFF701E1
:103CC000B1937F01A150AACF9111B0CFD601942F0B
:103CD00050E302C05D9391509111FCCFC40ED11CF2
:103CE00040E0ACCF01E0BACF80E3DBCF62177307CF
:103CF00031F4963388F4953311F4552369F0F601C5
:103D00008083FD01842F90E2811108C0A40FB11DB2
:103D10001C9290E080E002CF81E3F1CF919381503B
:103D2000F3CF911183CF8ACF283008F027E03327D3
:103D3000DA01990F311D87FD9160009661057105CB
:103D400039F432602E5F3D9330E32A95E1F7089510
:103D50009F3F30F080387105610509F03C5F3C5FA2
:103D60003D93913008F08068911DDF93CF931F93AE
:103D70000F93FF92EF92192F987F9695E92F9695C2
:103D80009695E90FFF27EA5FFE4F99273327EE2428
:103D9000FF24A701E70105900894079428F4360F43
:103DA000E71EF81E491F511D660F771F881F991FB8
:103DB0000694A1F70590079428F4E70EF81E491F12
:103DC000561FC11D770F881F991F661F0694A1F704
:103DD0000590079428F4F80E491F561FC71FD11DE0
:103DE000880F991F661F771F0694A1F70590079407
:103DF00020F4490F561FC71FD81F990F661F771F42
:103E0000881F0694A9F784911095177041F0D695F4
:103E1000C79557954795F794E7941A95C1F7ECEA3B
:103E2000F0E0689415901591359165919591059004
:103E30007FE27395E118F10A430B560BC90BD009C9
:103E4000C0F7E10CF11E431F561FC91FD01D7EF4A1
:103E5000703311F48A95E6CFE894015030F0080FE2
:103E60000AF40027021708F4202F2395022F7A3333
:103E700028F079E37D932A95E9F710C07D932A9580
:103E800089F6069497956795379517951794E118D5
:103E9000F10A430B560BC90BD00998F023957E917C
:103EA00073957A3308F070E37C932013B8F77E9112
:103EB00070617D9330F0839571E37D9370E32A9573
:103EC000E1F71124EF90FF900F911F91CF91DF91B7
:103ED000992787FD90950895FC01059061507040E9
:103EE0000110D8F7809590958E0F9F1F0895FC01C3
:103EF0006150704001900110D8F7809590958E0F19
:103F00009F1F0895DC01FC01672F71917723E1F772
:103F1000329704C07C916D9370836291AE17BF0796
:103F2000C8F308950F931F93CF93DF93182F092F92
:103F3000EB018B8181FD09C01FEF0FEF812F902FC7
:103F4000DF91CF911F910F91089582FF14C02E81B0
:103F50003F818C819D81281739073CF4E881F981E4
:103F6000CF0101969983888310838E819F8101966A
:103F70009F838E83E3CFE885F985812F0995892B6F
:103F8000A1F3DACFFA01AA27283051F1203181F1CB
:103F9000E8946F936E7F6E5F7F4F8F4F9F4FAF4F51
:103FA000B1E03ED0B4E03CD0670F781F891F9A1F64
:103FB000A11D680F791F8A1F911DA11D6A0F711D18
:103FC000811D911DA11D20D009F468943F912AE024
:103FD000269F11243019305D3193DEF6CF0108950C
:103FE000462F4770405D4193B3E00FD0C9F7F6CF3D
:103FF000462F4F70405D4A3318F0495D31FD405205
:10400000419302D0A9F7EACFB4E0A695979587959A
:1040100077956795BA95C9F7009761057105089579
:104020009B01AC010A2E0694579547953795279525
:10403000BA95C9F7620F731F841F951FA01D0895BD
:10404000DC01CB01FC01F999FECF06C0F2BDE1BD58
:10405000F89A319600B40D9241505040B8F7089547
:10406000F999FECF92BD81BDF89A992780B5089540
:10407000DC01A40FB51F4150504048F0CB01840F24
:10408000951F2E910E94492041505040D0F708952D
:10409000262FF999FECF92BD81BDF89A019700B401
:1040A000021639F01FBA20BD0FB6F894FA9AF99AA1
:1040B0000FBE08952F923F924F925F926F927F9220
:1040C0008F929F92AF92BF92CF92DF92EF92FF9228
:1040D0000F931F93CF93DF93CDB7DEB7CA1BDB0BD4
:1040E0000FB6F894DEBF0FBECDBF09942A88398879
:1040F00048885F846E847D848C849B84AA84B98480
:10410000C884DF80EE80FD800C811B81AA81B9818B
:10411000CE0FD11D0FB6F894DEBF0FBECDBFED019F
:104120000895EE0FFF1F0590F491E02D0994B0E083
:10413000A0E0EDE9F0E20C945C208C01009751F4D2
:10414000CB010E9427198C01C801CDB7DEB7E0E191
:104150000C947820FC01E60FF71F9C0122503109D6
:10416000E217F30708F49DC0D901CD91DC911197B6
:10417000C617D70798F0C530D10530F3CE010497A4
:104180008617970708F3C61BD70B2297C193D193C5
:104190006D937C93CF010E94C319D6CF5B01AC1AFB
:1041A000BD0A4C018C0E9D1EA0910605B09107051D
:1041B000512C412CF12CE12C109731F58091040504
:1041C000909105058815990509F05CC046165706BB
:1041D00008F058C080911E0190911F01009741F492
:1041E0008DB79EB74091220150912301841B950BFE
:1041F000E817F90708F055C0F0930505E0930405AA
:10420000F90171836083A0CF8D919C9111971296D3
:104210006C90129713967C901397A815B90559F5D1
:104220006C0142E0C40ED11CCA14DB0420F1AC01C5
:104230004A195B09DA011296159780F0628273823F
:1042400051834083D9016D937C93E114F10471F0A3
:10425000D7011396FC93EE93129776CF22968C0F8C
:104260009D1FF90191838083F301EFCFF093070540
:10427000E093060569CF4816590608F42C017D0124
:10428000D3019ACFCB010E9427197C01009749F0F6
:10429000AE01B8010E945421C8010E94C3198701D0
:1042A00053CF10E000E050CFFB01DC0102C00190D1
:1042B0000D9241505040D8F70895FB01DC01019068
:1042C0000D920020E1F70895FB01DC0141505040C0
:1042D00048F001900D920020C9F701C01D92415095
:1042E0005040E0F70895F894FFCFFFFFFF01010071
:1042F00001005E065E065E065E065E06FFFFFFFFCD
:1043000000E1000000000000000008058000AAA9EC
:10431000A6A59A9996956A6966655A5956556F2663
:104320002E7F8A84CAC400C1808100000000000082
:1043300000B0031B034803FC03790357036B03001E
:104340000000002604CD0547043C048D044B04699D
:10435000043A00322E332E320046616E5800312E60
:10436000310046414E20737065656400436C6F6E8A
:10437000652073776974636800546172676574209F
:104380006164647265737300536F75726365206155
:10439000646472657373003B00476174657761798B
:1043A000207374617274757020636F6D706C6574C6
:0443B000652E000076
:1070000055C000006EC000006CC000006AC00000E7
:1070100068C0000066C0000064C0000062C00000DC
:1070200060C000005EC00000FCC400005AC0000048
:1070300058C0000056C0000054C0000052C00000FC
:1070400050C000005DC000004CC000004AC00000FD
:1070500048C0000046C0000044C0000042C000001C
:1070600040C000003EC000003CC000003AC000002C
:1070700038C0000036C0000034C0000032C000003C
:1070800030C000002EC000002CC000002AC000004C
:1070900028C0000026C0000024C0000022C000005C
:1070A00020C000001EC000001CC0000011241FBE34
:1070B000CFEFDAE0DEBFCDBF11E0A0E0B1E0E2E467
:1070C000FFE702C005900D92A43BB107D9F711E08C
:1070D000A4EBB1E001C01D92AD3CB107E1F74FD385
:1070E0002EC78ECFF89410926F001092810081E02D
:1070F00085BF15BE47985D9A289A0C9400000895A4
:107100001F920F920FB60F9211242F938F939F937C
:10711000EF93FF9310928500109284008091B40148
:107120009091B501009741F001979093B50180933C
:10713000B401892B09F45D9A8091B6019091B70151
:10714000009741F001979093B7018093B601892B86
:1071500009F4289A8091BA019091BB01019690930D
:10716000BB018093BA01E0E0F0E0859194918F5FDC
:107170009F4F49F08091B8019091B9010196909389
:10718000B9018093B801FF91EF919F918F912F9159
:107190000F900FBE0F901F90189584E08093E90028
:1071A0000DC08091E8008B778093E80003C08EB318
:1071B000882351F08091E80082FFF9CF8091E800A8
:1071C00085FFEFCF8091F1000895982F83E08093A1
:1071D000E9008091E80085FD0DC08091E8008E7780
:1071E0008093E80003C08EB3882369F08091E800A3
:1071F00080FFF9CF9093F1005D9884E690E0909342
:10720000B5018093B40108954F925F926F927F927F
:107210008F929F92AF92BF92CF92DF92EF92FF92A6
:107220000F931F93CF93DF9384E08093E9008091C5
:10723000E80082FF57C2289884E690E09093B70157
:107240008093B601AADF182F853481F48CEA9DE083
:107250009093B9018093B80107B600FCFDCFF9996E
:10726000FECF81E180935700E89503C0843519F47F
:1072700094DF8DE00DC28C34E1F38035D1F3843797
:1072800021F484E4A2DF80E003C2813611F489E5B1
:10729000FFC18134B1F481DF182F7FDF90E0880FC8
:1072A000991FAA2797FDA095BA2F312F330F20E001
:1072B000442737FD4095542F822B932BA42BB52BBD
:1072C000B8C1803711F483E5E3C1833549F4C0E0E8
:1072D000D1E089917ADF21E0C730D207D1F7D9C157
:1072E000863521F481E371DF80E3D2C1833731F445
:1072F00087E86BDF85E969DF8EE1CAC18536B9F4BD
:10730000E0E0F0E093E085E090935700E89507B661
:1073100000FCFDCF80935700E89507B600FCFDCF39
:10732000E058FF4FA0E7E030FA0771F7A2CF8237AD
:1073300039F4E1E0F0E089E0809357008491A8C13E
:10734000863439F4E0E0F0E089E0809357008491DE
:107350009FC18E3439F4E3E0F0E089E08093570078
:10736000849196C1813539F4E2E0F0E089E08093C0
:10737000570084918DC1823631F489E526DF80E0A3
:1073800024DF80E885C1823419F0873609F0E5C032
:107390001092B9011092B80100DF082FFEDEF82E1E
:1073A000FCDE682E8554823008F071C1902F80E099
:1073B000CF2DD0E0C82BD92B10926F00173609F0D3
:1073C0004BC081E180935700E895DD24CC24C39421
:1073D0003FC0E090BD01F090BE010091BF0110914F
:1073E000C001B6E46B16D9F4ED2DF0E0EE29FF29CB
:1073F000E4918E2FEADEDD2081F082E090E0A0E0D3
:10740000B0E0E80EF91E0A1F1B1FE092BD01F092CA
:10741000BE010093BF011093C001DC2418C0D80145
:10742000C701B695A7959795879573D5CEDE82E06F
:1074300090E0A0E0B0E0E80EF91E0A1F1B1FE092EA
:10744000BD01F092BE010093BF011093C0012197CE
:10745000209709F0BECF7DC08090BD019090BE0105
:10746000A090BF01B090C00196E4691609F05DC01C
:1074700083E0F40180935700E89507B600FCFDCF48
:1074800054C0F6E46F1661F5772031F1E090BD014C
:10749000F090BE010091BF011091C0017EDED82E98
:1074A000CC24852D90E08C299D29F7010C01409278
:1074B0005700E895112482E090E0A0E0B0E0E80EEB
:1074C000F91E0A1F1B1FE092BD01F092BE0100933E
:1074D000BF011093C00102C060DE582E742423C087
:1074E000E090BD01F090BE010091BF011091C0017C
:1074F00016950795F794E79450DE682FC70111D5CC
:107500008091BD019091BE01A091BF01B091C001D9
:107510000296A11DB11D8093BD019093BE01A09361
:10752000BF01B093C001219704C05524772444249F
:107530004394209709F0A5CF96E4691641F485E0BD
:10754000F40180935700E89507B600FCFDCF8DE06D
:107550003CDE82E080936F009CC0833471F4009124
:10756000BD011091BE0119DE90E021E0F8010C018F
:1075700020935700E89511247CCE833619F5E090CE
:10758000BD01F090BE010091BF011091C00105DE68
:10759000F701E16090E021E00C0120935700E895AD
:1075A000112482E090E0A0E0B0E0E80EF91E0A1F8E
:1075B0001B1FE092BD01F092BE010093BF0110932A
:1075C000C00157CE8D3661F4E091BD01F091BE014E
:1075D00085E080935700E89507B600FCFDCF49CEC3
:1075E000823551F4E091BD01F091BE0105911491F5
:1075F000812FEBDD802F4CC0843421F5E090BD015C
:10760000F090BE010091BF011091C0011695079541
:10761000F794E794C2DD682FC70183D48091BD0140
:107620009091BE01A091BF01B091C0010296A11D31
:10763000B11D8093BD019093BE01A093BF01B09393
:10764000C00117CE843609F5E090BD01F090BE016F
:107650000091BF011091C001D801C701B695A7954F
:107660009795879556D4B1DD82E090E0A0E0B0E038
:10767000E80EF91E0A1F1B1FE092BD01F092BE0129
:107680000093BF011093C00104C08B3111F08FE350
:107690009CDD83E08093E9009091E8008091E80010
:1076A0008E778093E80095FF04C010C08EB38823C6
:1076B000C9F08091E80080FFF9CF8091E8008E77D3
:1076C0008093E80003C08EB3882361F08091E800C6
:1076D00080FFF9CF84E08093E9008091E8008B7708
:1076E0008093E800DF91CF911F910F91FF90EF9071
:1076F000DF90CF90BF90AF909F908F907F906F90D2
:107700005F904F9008959091C501892F8F778132B6
:1077100049F58091C6018032A1F0813219F5913A84
:1077200009F58091E800877F8093E8008CE091E084
:1077300067E070E025D28091E8008B778093E800C5
:107740000895913279F48091E800877F8093E80072
:107750008CE091E067E070E077D28091E8008E776E
:107760008093E800089582E061EC42E0D1D083E0AC
:1077700061E842E1CDD084E060E842E1C9C01F93F6
:10778000209100081092000844B714BE88E10FB69B
:10779000F89480936000109260000FBE80E8E0E0F3
:1077A000F0E00FB6F89480936100E09361000FBEA3
:1077B00031E035BF92E095BF3F9A209A559A809369
:1077C00061001092610047985D9A289A1092890092
:1077D0008AEF8093880090936F0083E0809381000C
:1077E000859194918F5F9F4F11F03093BC01942F3E
:1077F00041FF19C0809109012817A9F08093000862
:10780000789480911301882339F08091BA01909186
:10781000BB0188579140C8F3F8941092000881E0AA
:10782000809313010CC090FF04C08091BC01882399
:1078300051F493FF09C080910901281729F0809124
:10784000BC01882309F04EDCD4D078941092B901A1
:107850001092B8011EEF20C0D7DC49D38091B80147
:107860009091B901815A9F4010F0109213018091BC
:10787000C1019091C20101969093C2018093C10110
:10788000292F97FF03C0512F591B252F220F28178F
:1078900010F4479801C0479A809113018823E1F6BC
:1078A0008091E00081608093E0001CDC80E090E04B
:1078B0001F910895FA01923049F0933061F09130B0
:1078C000F9F484E191E022E130E01EC086E291E02B
:1078D0002EE330E019C0882329F484E691E024E007
:1078E00030E012C0813029F488E691E02EE130E0EA
:1078F0000BC0823029F488E891E02AE230E004C02D
:1079000080E090E020E030E091838083C901089519
:107910008093E9008091EB0081608093EB001092EE
:10792000ED006093EC004093ED008091EE00881F25
:107930008827881F08958091C50188238CF403C08F
:107940008EB38823B1F08091E80082FFF9CF809157
:10795000E8008B778093E80008958EB3882349F080
:107960008091E80080FFF9CF8091E8008E778093C6
:10797000E8000895EF92FF920F931F9345D04CD0EB
:1079800008ED10E0F80180818F7780838081806826
:10799000808380818F7D808319BC1EBA1092C301C1
:1079A00080EEE82EF12CF70180818B7F8083F80137
:1079B00080818160808380E060E042E0A9DFE1EEC9
:1079C000F0E080818E7F8083E2EEF0E08081816054
:1079D0008083808188608083F70180818E7F8083AF
:1079E000F8018081806180831F910F91FF90EF905B
:1079F0000895E7EDF0E08081816080838AE482BFB2
:107A000081E08093C401B6CFE8EDF0E080818E7F05
:107A100080831092E20008951092DA001092E10043
:107A200008951F920F920FB60F9211242F933F9338
:107A30004F935F936F937F938F939F93AF93BF9376
:107A4000EF93FF938091DA0080FF1AC08091D800F5
:107A500080FF16C08091DA008E7F8093DA008091DB
:107A6000D90080FF0AC019BC82E089BD09B400FEBC
:107A7000FDCF81E08EBB3AD203C019BC1EBA36D20C
:107A80008091E10080FF17C08091E20080FF13C069
:107A90008091E2008E7F8093E2008091E20080611D
:107AA0008093E2008091D80080628093D80019BC56
:107AB00085E08EBB1BD28091E10084FF2BC08091BA
:107AC000E20084FF27C019BC82E089BD09B400FE32
:107AD000FDCF8091D8008F7D8093D8008091E10008
:107AE0008F7E8093E1008091E2008F7E8093E200A0
:107AF0008091E20081608093E2008091C30188233D
:107B000031F48091E30087FD02C081E001C084E090
:107B10008EBBECD18091E10083FF21C08091E20017
:107B200083FF1DC08091E100877F8093E10082E0A8
:107B30008EBB1092C3018091E1008E7F8093E100A3
:107B40008091E2008E7F8093E2008091E20080616C
:107B50008093E20080E060E042E0DADEC7D1FF918E
:107B6000EF91BF91AF919F918F917F916F915F91B5
:107B70004F913F912F910F900FBE0F901F9018952E
:107B80009C014091CB015091CC014617570718F446
:107B9000F90190E044C06115710511F0AB01F8CF17
:107BA0008091E8008E778093E80040E050E0F0CFCD
:107BB0008EB3882309F444C0853009F443C0809112
:107BC000E80083FF02C081E008958091E80082FD13
:107BD00031C08091E80080FF22C08091F300909135
:107BE000F200782F60E0292F30E0262B372B07C0DA
:107BF00081918093F100415050402F5F3F4F4115DC
:107C0000510519F02830310598F390E028303105FE
:107C100009F491E08091E8008E778093E8004115A7
:107C2000510531F6992321F605C08EB3882341F022
:107C3000853041F08091E80082FFF7CF80E0089521
:107C400082E0089583E008959C016115710529F48F
:107C50008091E8008B778093E800F90126C08EB30D
:107C6000882391F1853091F18091E80083FF02C073
:107C700081E008958091E80082FFF1CF06C08091F5
:107C8000F10081936150704059F02091F300809190
:107C9000F200322F20E090E0822B932B892B79F792
:107CA0008091E8008B778093E80061157105B9F643
:107CB00005C08EB3882341F0853041F08091E80003
:107CC00080FFF7CF80E0089582E0089583E0089573
:107CD0000F931F93DF93CF9300D0CDB7DEB7E5ECC2
:107CE000F1E08091F100819381E0ED3CF807C9F764
:107CF0000ADD8091E80083FFE4C08091C501909186
:107D0000C601953009F46DC0963040F4913081F190
:107D1000913070F0933009F0D4C02AC0983009F443
:107D2000A3C0993009F4B2C0963009F0CAC07CC033
:107D3000803809F4C6C0823809F0C3C08091C901F7
:107D400087708093E9008091EB001092E900209108
:107D5000E800277F2093E80090E025E0969587953E
:107D60002A95E1F781708093F1001092F10087C0AD
:107D7000882319F0823009F0A4C08F71823009F095
:107D8000A0C08091C701882331F52091C9012770D7
:107D900009F497C02093E9008091EB0080FF1BC09D
:107DA000933021F48091EB00806213C08091EB004E
:107DB00080618093EB0081E090E002C0880F991F02
:107DC0002A95E2F78093EA001092EA008091EB0096
:107DD00088608093EB001092E9008091E800877F33
:107DE00051C0882309F06DC01091C7011F770FB7EC
:107DF000F8948091E800877F8093E8009CDD809173
:107E0000E80080FFFCCF8091E3008078812B809395
:107E1000E30080688093E300112311F482E001C045
:107E200083E08EBB0FBF4DC08058823008F049C040
:107E30008091C7019091C8016091C901AE014F5F67
:107E40005F4F38DDBC01009709F43BC08091E8002A
:107E5000877F8093E80089819A8192DE8091E80093
:107E60008B778093E8002DC0803859F58091E80029
:107E7000877F8093E8008091C3018093F100809117
:107E8000E8008E778093E80056DD1BC08823C9F494
:107E90009091C7019230A8F48091E800877F809389
:107EA000E8009093C30147DD8091C301882331F43A
:107EB0008091E30087FD02C081E001C084E08EBBB9
:107EC00052DC8091E80083FF0AC08091EB00806261
:107ED0008093EB008091E800877F8093E8000F900B
:107EE0000F90CF91DF911F910F91089508951F93E7
:107EF0008EB3882361F01091E9001092E90080911F
:107F0000E80083FF01C0E4DE17701093E9001F91C1
:107F10000895F999FECF92BD81BDF89A992780B551
:107F20000895262FF999FECF1FBA92BD81BD20BDBD
:107F30000FB6F894FA9AF99A0FBE01960895F8943C
:107F4000FFCF4341544552494E410077000800009D
:107F500000000000080112011001020000084F1B80
:107F6000039201000201000109023E0002010080AB
:107F7000320904000001020201000524001001047E
:107F80002402040524060001070582030800FF09F6
:107F9000040100020A0000000705040210000107A6
:107FA000058302100001040309041E03500072003F
:107FB0006F0020004D006900630072006F00200018
:107FC00033002E003300560000002A0353007000D7
:107FD000610072006B00460075006E0020004500D5
:107FE0006C0065006300740072006F006E00690031
:067FF000630073000000B5
:00000001FF
