:020000040000FA
:100000000C945A010C9411190C94EA180C94C3180E
:100010000C949C180C9482010C9482010C94751819
:100020000C9482010C9482010C9432150C94A1154D
:100030000C9438190C9482010C9482010C94820166
:100040000C9482010C9482010C9482010C94820124
:100050000C9482010C9482010C9482010C942B1854
:100060000C9482010C94F9170C94D3170C94820110
:100070000C9482010C9482010C9482010C948201F4
:100080000C9482010C9482010C9482010C948201E4
:100090000C9482010C9482010C9482010C948201D4
:1000A0000C9482010C9482010C94820100407A101D
:1000B000F35A00A0724E18090010A5D4E80000E819
:1000C0007648170000E40B54020000CA9A3B000077
:1000D00000E1F505000080969800000040420F0006
:1000E0000000A08601000000102700000000E803C7
:1000F000000000006400000000000A000000000092
:100100000100000000002C76D888DC674F0823DF50
:10011000C1DFAE59E1B1B796E5E3E453C63AE65123
:10012000997696E8E6C28426EB898C9B62ED407C4A
:100130006FFCEFBC9C9F40F2BAA56FA5F490055AE6
:100140002AF75C936B6CF9676DC11BFCE0E40D470B
:10015000FEF520E6B500D0ED902E0300943577052E
:100160000080841E080000204E0A000000C80C33E6
:100170003333330F986E12831141EF8D2114893B75
:10018000E65516CFFEE6DB18D1844B381BF77C1DF5
:10019000901DA4BBE424203284725E228100C9F148
:1001A00024ECA1E53D2725753B25753B25753B25B1
:1001B000753B25753B25730A0000000000240027CD
:1001C000002A002D00300000000000250028002B30
:1001D000002E003100080B0002020200000904009A
:1001E00000010202000005240010010524010101A4
:1001F00004240206052406000107058103100040BF
:1002000009040100020A0000000705020240000084
:10021000070583024000000403090412010002EFF5
:100220000201404123378000010102030141726451
:1002300075696E6F204C4C430046616E58205246E3
:1002400020446F6E676C65000000000023002600EC
:1002500029002C002F0004040404040304050202F6
:10026000020204030202020206060606060604044F
:1002700002020204040408020110408040102040E1
:10028000804080080204018040201002011080108C
:10029000204040200000000200090F00000304017C
:1002A000000C000000000000000000000000000042
:1002B0000000571911241FBECFEFDAE0DEBFCDBF1B
:1002C00012E0A0E0B1E0E4E0FAE402C005900D9293
:1002D000A43BB107D9F727E0A4EBB2E001C01D921F
:1002E000AE38B207E1F711E0CAE5D1E004C02197CA
:1002F000FE010E941E24C935D107C9F70E94381A91
:100300000C9400250C940000FC01838187708862A6
:1003100083838481806E848347835087618772875B
:1003200081E08387CF010895FC018091F003882349
:1003300011F13FB7F89482E08093E9002091F20038
:10034000822F90E01816190614F481E090E08823BB
:1003500039F0289844E64093EF034091F100408340
:10036000222339F02091F200211103C02BE62093C3
:10037000E8003FBF08958FEF9FEF0895FC0190E0E4
:1003800030E020E06150770B492F50E046175707C7
:1003900044F44E0F5F1FDA014C91240F311D9F5F13
:1003A000F3CF2130B1E03B0714F03A95FACF822F1A
:1003B000819508958F929F92AF92BF92CF92DF92D4
:1003C000EF92FF920F931F93CF93DF93CDB7DEB7DA
:1003D00060970FB6F894DEBF0FBECDBF8C0180E1F1
:1003E000E5E2F1E0DE01119601900D928A95E1F7C8
:1003F00090E0E92FEE0FE61778F5DE0111967D010A
:1004000020E048018E0E911C64013FEFC31AD30A0D
:100410005A01A90EB11CF70181917F01F6013081CB
:10042000381302C0F50120832F5F2031A1F720E0AF
:100430007A01E90EF11C8D91F4013081381307C067
:10044000F7013081722F7295707F372B30832F5FC9
:10045000203189F79F5FCDCFCA0160960FB6F8941F
:10046000DEBF0FBECDBFDF91CF911F910F91FF90E7
:10047000EF90DF90CF90BF90AF909F908F900895B6
:100480002FB7F89483E08093E9009091E800892FDA
:10049000807295FF04C09091F20080E4891B2FBF09
:1004A00008958091E70381110DC082E08093E303FA
:1004B00084E08093E4031092E6031092E50381E068
:1004C0008093E70383EE93E008954091DD0350911C
:1004D000DE032091DB033091DC0342175307B4F4B1
:1004E0009091E8009570E1F39091E80092FD19C0B9
:1004F0008093F1008091DD039091DE0301968F736C
:100500009927892B19F48EEF8093E8008091DD0301
:100510009091DE0301969093DE038093DD0381E0EA
:10052000089580E00895EF92FF920F931F93CF9369
:10053000DF93F82E192FE62E042F81E0860F880F07
:100540000E94650283E00E946502CF2DD12FEC0E40
:10055000FD2EF11CCE15DF05B9F007FF13C0FE011B
:1005600084910E946502182F80E00E946502812319
:1005700021968111EFCFDF91CF911F910F91FF90C5
:10058000EF9008958881EDCF81E0F5CFDF92EF9273
:10059000FF920F931F93CF93DF93D82E8A01EB0125
:1005A0007B01E40EF51ECE15DF0559F0D7FE12C013
:1005B000FE0184910E94650221968111F4CF0FEF14
:1005C0001FEFC801DF91CF911F910F91FF90EF9026
:1005D000DF9008958881EECF0F931F93CF93DF9321
:1005E0001F92CDB7DEB782E0898342E450E065ED2B
:1005F00071E080E80E94C6020E945102DC0112965E
:100600000D911C910115110589F0D801ED91FC9116
:100610000280F381E02DBE016F5F7F4FC801099515
:1006200097FD04C0F80100851185ECCF89810F90FA
:10063000DF91CF911F910F910895615030F020917B
:10064000F100FC0120830196F8CF289884E680937E
:10065000EF030895AF92BF92CF92DF92EF92FF9295
:100660000F931F93CF93DF936C017B018B01040FDA
:10067000151FEB015E01AE18BF08C017D10759F076
:100680006991D601ED91FC910190F081E02DC601B8
:100690000995892B79F7C501DF91CF911F910F91B2
:1006A000FF90EF90DF90CF90BF90AF900895FC0146
:1006B000538D448D252F30E0842F90E0821B930BC7
:1006C000541710F0CF96089501970895FC01918D6D
:1006D000828D981761F0A28DAE0FBF2FB11D5D9670
:1006E0008C91928D9F5F9F73928F90E008958FEF12
:1006F0009FEF0895FC01918D828D981731F0828DC6
:10070000E80FF11D858D90E008958FEF9FEF08951C
:10071000FC01918D228D892F90E0805C9F4F821B80
:1007200091098F739927089581EF93E00E948803C0
:1007300021E0892B09F420E0822F0895FC01A48D8B
:10074000A80FB92FB11DA35ABF4F2C91848D90E0F3
:1007500001968F739927848FA689B7892C93A089D6
:10076000B1898C9182748C93938D848D981306C07B
:100770000288F389E02D80818F7D80830895EF9238
:10078000FF920F931F93CF93DF93EC0181E0888F4B
:100790009B8D8C8D981319C0E889F989808185FF1C
:1007A00014C09FB7F894EE89FF896083E889F989BE
:1007B0008081827480839FBF81E090E0DF91CF9140
:1007C0001F910F91FF90EF900895F62E0B8D10E082
:1007D0000F5F1F4F0F731127E02E8C8D8E110CC0F1
:1007E0000FB607FCFACFE889F989808185FFF5CF3C
:1007F000CE010E949E03F1CFEB8DEC0FFD2FF11D7A
:10080000E35AFF4FF0829FB7F8940B8FEA89FB8978
:1008100080818062CFCFCF93DF93EC01888D8823D6
:10082000B9F0AA89BB89E889F9898C9185FD03C053
:10083000808186FD0DC00FB607FCF7CF8C9185FF38
:10084000F2CF808185FFEDCFCE010E949E03E9CFDC
:10085000DF91CF91089580E090E0892B29F00E94EC
:10086000940381110C9400000895CF93DF931F929D
:10087000CDB7DEB76983DC01ED91FC910280F38195
:10088000E02D41E050E0BE016F5F7F4F09950F9072
:10089000DF91CF91089583E08093E9008091F20089
:1008A000882319F08AE38093E80008950E944002AB
:1008B00090E00895CF93DF931F92CDB7DEB7FC0190
:1008C0008485958597FD08C02FEF3FEF35872487F6
:1008D0000F90DF91CF910895CE0101960E9494016F
:1008E000019719F4898190E0F3CF8FEF9FEFF0CF5C
:1008F0000F931F93CF93DF931F92CDB7DEB78C0179
:10090000FC018485958597FF0BC0CE0101960E945E
:100910009401019771F4898190E0F80195878487AB
:10092000F801848595850F90DF91CF911F910F91EC
:1009300008958FEF9FEFF1CFFC018485958597FD9A
:100940000BC09FB7F89482E08093E9008091F20099
:100950009FBF90E0019608959FB7F89482E080933E
:10096000E9008091F2009FBF90E0089581508F30A0
:1009700008F047C0E82FF0E0E054FB4F0C941E2431
:10098000DD04E104CF04D504D90401050105010506
:10099000E404EA04EE04F204F8040105FC04809186
:1009A00080008F77809380000895809180008F7DF4
:1009B000F9CF80918000877FF5CF84B58F7784BD94
:1009C000089584B58F7DFBCF809190008F778093C1
:1009D00090000895809190008F7DF9CF80919000D4
:1009E000877FF5CF8091C0008F778093C0000895F6
:1009F0008091C0008F7DF9CF8091C200877F809366
:100A0000C2000895CF93DF93E2EAF2E08491E3E835
:100A1000F2E0D491E4E6F2E0C491CC23A1F081119C
:100A20000E94B604EC2FF0E0EE0FFF1FE85BFD4FD5
:100A3000A591B491EC91ED2381E090E009F480E080
:100A4000DF91CF91089580E090E0FACF1F93CF938C
:100A5000DF93282F30E0F901EC56FD4F8491F90126
:100A6000EB58FD4FD491F901EA5AFD4FC491CC23C4
:100A7000A9F0162F81110E94B604EC2FF0E0EE0FC2
:100A8000FF1FE953FE4FA591B4918FB7F894EC91F5
:100A9000111108C0D095DE23DC938FBFDF91CF9179
:100AA0001F910895DE2BF8CFCF93DF9390E0FC01E8
:100AB000EB58FD4F24918A5A9D4FFC018491882365
:100AC000D1F090E0880F991FFC01E754FE4FA591EB
:100AD000B491FC01E953FE4FC591D49161110EC050
:100AE0009FB7F8948C91E22FE0958E238C93288108
:100AF000E223E8839FBFDF91CF9108958FB7F894E9
:100B0000EC91E22BEC938FBFF6CF3FB7F894809136
:100B1000D7039091D803A091D903B091DA0326B5F9
:100B2000A89B05C02F3F19F00196A11DB11D3FBF25
:100B3000BA2FA92F982F8827BC01CD01620F711DF4
:100B4000811D911D43E0660F771F881F991F4A95ED
:100B5000D1F708958F929F92AF92BF92CF92DF927A
:100B6000EF92FF924B015C010E9485056B017C01B5
:100B70000E9485056C197D098E099F09683E7340A6
:100B800081059105A8F321E0821A9108A108B10816
:100B900088EEC80E83E0D81EE11CF11C811491047C
:100BA000A104B10429F7FF90EF90DF90CF90BF90A0
:100BB000AF909F908F9008958F929F92AF92BF9227
:100BC000CF92DF92EF92FF920F931F93CF93DF9319
:100BD0006C017B018A0180911E01882309F45CC0AD
:100BE0008091F003882309F457C08091E10380FFCE
:100BF00005C08091E00082608093E000E801B12CA4
:100C00008AEFA82E93E0892E2AE3922E209711F4E2
:100C1000BB20D9F10E94400281110AC0AA94AA20E7
:100C2000D9F161E070E080E090E00E94AA05EECF8B
:100C30008C171D0611F00CF08C2F9FB7F894809242
:100C4000E9002091E80025FD02C09FBFDFCF282FDB
:100C500030E0C21BD30BF701815020F0419140934B
:100C6000F100FACFE20EF31EBB2021F09092E800D3
:100C7000B12CEBCF8091E80085FDE7CF9092E800A2
:100C8000BB24B394209709F3F3CF5D9884E6809357
:100C9000E203101611063CF081E090E0F601938328
:100CA000828310E000E0C801DF91CF911F910F9186
:100CB000FF90EF90DF90CF90BF90AF909F908F907C
:100CC00008952FB7F8946091D3037091D403809165
:100CD000D5039091D6032FBF08958F929F92AF9224
:100CE000BF92EF92FF920F931F93CF93DF937B01FD
:100CF0008C01D0E0C0E00E9461066093F90370931C
:100D0000FA038093FB039093FC0381EF93E00E942E
:100D1000660397FF27C00E9461068090F9039090B8
:100D2000FA03A090FB03B090FC03681979098A09C3
:100D30009B098090F5039090F603A090F703B09084
:100D4000F803681579058A059B05F8F2CE01DF9155
:100D5000CF911F910F91FF90EF90BF90AF909F9018
:100D60008F9008958533910589F3F80181938F0160
:100D70002196EC16FD0609F0BECFE8CF08958EBD92
:100D800000000DB407FEFDCF8EB50895CF93C82F98
:100D900060E084E00E9426050E94020518161906EC
:100DA000DCF38C2F0E94BF0661E084E0CF910C94AD
:100DB000260561E084E00E94260586E090E0019728
:100DC000F1F760E084E00E94260580E190E0019761
:100DD000F1F761E084E00E9426058EE490E001973F
:100DE000F1F760E084E00E9426050E9402051816D3
:100DF0001906DCF380E30E94BF060E940205181664
:100E00001906DCF361E084E00C942605CF93DF93B0
:100E1000D82FC62F60E084E00E9426050E940205BC
:100E200018161906DCF38D2F0E94BF068C2F0E9426
:100E3000BF0661E084E0DF91CF910C94260560E06D
:100E400082E10E9406076DE082E00E94060784E3CB
:100E50000C94C6069C01BC0190E080E037FF0AC0FC
:100E600001970E94422220E030E048EC52E40E94C8
:100E7000AC2308950E944022F6CF0FB6F894A895AF
:100E800080916000886180936000109260000FBEC6
:100E900061E087E00E94540561E087E00E9426053A
:100EA000E1EFF3E0A089B18982E08C93A485B58558
:100EB0001C92A685B78589E18C93108EA489B5898B
:100EC00086E08C93A289B3898C9180618C93A289EE
:100ED000B3898C9188608C93A289B3898C91806846
:100EE0008C930288F389E02D80818F7D808381E05F
:100EF0008093720788E199E20FB6F894A8958093E1
:100F000060000FBE909360000895CF9361E084E08D
:100F10000E945405CFB7F8948091C403811127C073
:100F2000E7E6F2E08491E6E8F2E09491E82FF0E061
:100F3000EE0FFF1FE754FE4FA591B491EC91E9230A
:100F400021F461E081E10E94260561E081E10E94D7
:100F500054058CB580618CBD8CB580648CBD61E01E
:100F60008FE00E94540561E080E10E945405809169
:100F7000C4038F5F8093C403CFBF60E08BE00E9407
:100F800054050E94D90686E30E94C60689E30E94A2
:100F9000C60680EA92E1909355078093540781EF4B
:100FA00092E290935207809351078AED91E39093D8
:100FB000580780935707CF910895FC01838187706C
:100FC0008061838384818F71806484837087678369
:100FD000CF010895FC0183818770886083838481B9
:100FE0008F71806284836783CF010895EF92FF92AF
:100FF0000F931F93CF93DF93CDB7DEB728970FB62C
:10100000F894DEBF0FBECDBF0E94D90661E28DE02D
:101010000E94060765E68EE00E9406076AE88FE0F8
:101020000E9406076EE282E00E9406076AE080E006
:101030000E94060768E08BE00E94060760E08CE0F3
:101040000E9406076AE580E10E94060763E881E1E5
:101050000E94060760E082E10E94060762E283E1E7
:101060000E94060768EF84E10E94060760E08AE0BC
:101070000E94060760E585E10E94060766EB81E2B3
:101080000E94060767E182E20E94060768E188E1A4
:101090000E9406076DE189E10E9406076CE18AE182
:1010A0000E94060767EC8BE10E94060760E08CE176
:1010B0000E94060762EB8DE10E9406076BEF80E25B
:1010C0000E94060769EE83E20E9406076AE284E254
:1010D0000E94060760E085E20E9406076FE186E253
:1010E0000E94060769E08EE20E94060764E087E03E
:1010F0000E94060762E388E00E94060788E0E5E3B5
:10110000F1E0DE01119601900D928A95E1F760E021
:1011100084E00E9426050E94020518161906DCF3D9
:101120008EE70E94BF068E010F5F1F4F7E0189E090
:10113000E80EF11CF80181918F010E94BF060E1587
:101140001F05C1F761E084E00E94260586E30E9446
:10115000C60686E328960FB6F894DEBF0FBECDBF55
:10116000DF91CF911F910F91FF90EF900C94C606E5
:101170002F923F924F925F926F927F928F929F92A7
:10118000AF92BF92CF92DF92EF92FF920F931F9395
:10119000CF93DF93CDB7DEB7C556D1090FB6F8941C
:1011A000DEBF0FBECDBF8DB69EB6262F220F215FAC
:1011B000E22EF12C9701215031092DB63EB62E18A2
:1011C0003F080FB6F8943EBE0FBE2DBE0DB71EB73A
:1011D0000F5F1F4F70E0AB01440F551FEDB7FEB717
:1011E000E41BF50B0FB6F894FEBF0FBEEDBF4DB775
:1011F0005EB74F5F5F4FB0E1DB2EE5E2F1E0DE016D
:10120000119601900D92DA94E1F7DC01B12CAD90CA
:101210006A01CB0CD11CEA2DE07FF0E0689413F852
:10122000F595E7951694E1F722242394312C2C0EA2
:101230003D1EE20DF31D3080F6013082CC24C394B4
:10124000CB0CC40ED52ED11CEA2DEF702224239492
:10125000312C2C0E3D1E2E0E311CF101A080F6010A
:10126000A082B394B394FD01E81BF90BE617F707CE
:1012700074F2F801C801099665E561938E179F071E
:10128000E1F78FEFF8018187128683E38387648714
:1012900083E58587D8011E96FA0181918D93CF0150
:1012A000841B950B82179307C4F3200F311F85E32E
:1012B000F90180838CE291E0A0E0B0E08093F50337
:1012C0009093F603A093F703B093F8030E94F607F8
:1012D0006EE282E00E94060760E082E10E9406075B
:1012E00085E30E94C606A701B80181EF93E00E9442
:1012F0002A0381EF93E00E940B0481EF93E00E94A8
:101300008803892B29F081EF93E00E946603F5CFD3
:1013100086E30E94C6060E941F070E9461066B01B9
:101320007C0181EF93E00E94880318161906CCF720
:1013300081EF93E00E946603182F8335A9F4F5E549
:101340005F1212C0A3E32A2E62100EC071100CC0EF
:101350004F120AC063E670E0CE0101960E946D064E
:101360000097B9F4F12C72C00E9461066C197D09D6
:101370008E099F096D3271408105910598F7A696F7
:101380004FACA697A6967FAEA697762C652C512ECD
:10139000C8CF8436910531F380FDE4CFCDB6DEB6FB
:1013A0005C0197FF03C03FEFA31AB30AB594A7945B
:1013B000750141E0E41AF108EDB7FEB7EA19FB093F
:1013C0000FB6F894FEBF0FBEEDBF0DB71EB70F5F8F
:1013D0001F4FA801682FCE0101960E94DA016A2DE5
:1013E000C8010E94BE01F801EE0DFF1D9081891316
:1013F0006FC0F801918180916F0732812091700751
:10140000321303C0FF24F3949813F12CF801938155
:101410008091710798135CC0FF2099F087819085B7
:101420009827892798272185813FF2E29F07D9F5E0
:10143000233039F4F801838580935A0781E0809343
:1014400053070FB6F894DEBE0FBECDBE86E30E94F2
:10145000C6066EE282E00E94060786E30E94C60688
:1014600089E30E94C6068F2D0FB6F8949EBE0FBE6C
:101470008DBECB59DF4F0FB6F894DEBF0FBECDBF88
:10148000DF91CF911F910F91FF90EF90DF90CF9060
:10149000BF90AF909F908F907F906F905F904F9094
:1014A0003F902F900895893DF1E39F0719F4F801CB
:1014B0008485C2CF803AF2E19F0761F4223009F6B9
:1014C000F801838580935B0781E080935607B9CF4D
:1014D000F12CB7CF8A3D914309F0B3CF2E3109F0FB
:1014E000B0CFF801878580935B07808980935C0784
:1014F000818990E0982F88272289820F911D9093EF
:101500005E0780935D07838990E0982F8827248960
:10151000820F911D9093600780935F07858990E00B
:10152000982F88272689820F911D909362078093B8
:101530006107878990E0982F8827208D820F911D61
:101540009093640780936307838D80936507858DEF
:1015500080936607868D8093670783A190E0982F1C
:10156000882724A1820F911D90936B0780936A07AF
:1015700085A190E0982F882726A1820F911D909336
:1015800069078093680781E0809359075ACF0F93CA
:101590001F93CF93DF93EC0188819981009759F0D5
:1015A0002A813B812617370730F081E0DF91CF9108
:1015B0001F910F9108958B016F5F7F4F0E9424242C
:1015C000009759F0998388831B830A832C813D817E
:1015D000232B59F7FC011082E8CF80E0E7CFCF93AF
:1015E000DF93EC0188819981009711F00E94E31B41
:1015F000198218821D821C821B821A82DF91CF9170
:1016000008950F931F93CF93DF93EC010C811D81FD
:101610000F5F1F4FB8010E94C70A882391F02881ED
:1016200039818C819D8168E671E0820F931F0E9451
:10163000EA241D830C83CE01DF91CF911F910F917E
:101640000895CE010E94EF0AF6CFEF92FF920F931A
:101650001F93CF93DF93EC01FB01E080F180E11455
:10166000F10411F10481158101151105A9F08C8196
:101670009D81080F191FB801CE010E94C70A882357
:1016800099F0288139818C819D81B701820F931F48
:101690000E94EA241D830C83CE01DF91CF911F911C
:1016A0000F91FF90EF900895CE010E94EF0AF4CFC2
:1016B000EF92FF920F931F93CF93DF93EC017B0187
:1016C0008A01BA010E94C70A81110BC0CE010E9493
:1016D000EF0ACE01DF91CF911F910F91FF90EF9014
:1016E00008951D830C83B701888199810E94EA24A3
:1016F000F0CFEF92FF920F931F93CF93DF93CDB76D
:10170000DEB7A1970FB6F894DEBF0FBECDBF8C0138
:10171000CB01BA01F8011182108213821282158264
:1017200014822AE0AE014F5F5F4F7A010E940F1DC5
:10173000F70101900020E9F73197AF014E195F09D9
:10174000B701C8010E94580BA1960FB6F894DEBFEE
:101750000FBECDBFDF91CF911F910F91FF90EF9002
:101760000895EF92FF920F931F93CF93DF93CDB71E
:10177000DEB729970FB6F894DEBF0FBECDBF8C0140
:10178000862FF80111821082138212821582148230
:101790004AE09E012F5F3F4F7901B90190E00E941E
:1017A000311DF70101900020E9F73197AF014E1983
:1017B0005F09B701C8010E94580B29960FB6F8942B
:1017C000DEBF0FBECDBFDF91CF911F910F91FF9074
:1017D000EF900895FB01DC0111961C921E92139666
:1017E0001C921E92129715961C921E9214978617A1
:1017F000970749F0608171816115710521F044817D
:1018000055810C94580B0895FC01808191810097BB
:1018100011F00C94E31B08950F931F93CF93DF9364
:101820008C0180E06115710551F0EB0109900020F9
:10183000E9F721978C2F861B8A3108F089E1F8019E
:10184000C381C770F8E08F9FC0011124C82BF80135
:10185000C38384818F718483C695C695C695CA312A
:1018600008F0C9E1D0E0AE01C80107960E94F1245A
:10187000C00FD11F1F82C801DF91CF911F910F911F
:101880000895FC012481229526952770213039F492
:10189000878191E0811101C090E0892F0895211185
:1018A00004C007960E946C1CF4CF80E0F2CF0F9327
:1018B0001F93CF93DF93EC018C818295869587707F
:1018C000D9F44B814695469546954A3108F049E151
:1018D00050E0BE01695F7F4F81E993E00E94F124EF
:1018E000EB81E695E695E695EA3108F0E9E1F0E06E
:1018F000EF56FC4F10820AC0813009F044C08F813E
:101900004AE061E973E090E00E94D81C8C8121E9F3
:1019100033E03F932F939D811F929F9384FB9927E0
:1019200090F91F929F9387701F928F938E811F92C1
:101930008F9389811F928F9386EA91E09F938F9373
:101940001F9288E78F93C9E1D3E0DF93CF930E9482
:101950004B1D09900020E9F7AE014A51534069E15F
:1019600073E08EE894E00E94DC05EDB7FEB7729656
:101970000FB6F894FEBF0FBEEDBF81E0DF91CF91AF
:101980001F910F910895823031F44AE061E973E0CC
:101990008F819885B9CF833041F44AE061E973E0E3
:1019A0008F8198850E94311DB1CF843051F46F81B1
:1019B000788589859A852AE041E953E00E94E31CF5
:1019C000A5CF853051F46F81788589859A852AE085
:1019D00041E953E00E940F1D99CF20E0873071F458
:1019E0002B85293008F028E06F81788589859A85D4
:1019F00001E913E042E00E94291B88CFEB81E695C4
:101A0000E695E695EA3108F0E9E12E1738F5E22F80
:101A1000F0E0AF01440F551FDA01AF56BC4FEC0F99
:101A2000FD1F8781082E000C990B34E09595879552
:101A30003A95E1F78F708A3068F4805D8C934E564A
:101A40005C4F87818F708A3038F4805DFA01808323
:101A50002F5FD4CF895CF2CF895CF8CFF0E0EE0F36
:101A6000FF1F46CFFC012281211102C00C94570CAC
:101A700080E00895FC0111829481907F91609483AD
:101A8000CF010C94320DBC0189E496E00E94DD0781
:101A90000C943A0DBC018AE696E00E94DD070C9496
:101AA0003A0DCF92DF92EF92FF92CF93DF93CDB7B3
:101AB000DEB768970FB6F894DEBF0FBECDBFE1E585
:101AC000F7E0838DC48CD12CF12CE12CFE2CED2C75
:101AD000DC2CCC24E82A858DC82AB701A6016370C6
:101AE0007727CE010D960E94790BC701B60122E13E
:101AF00096958795779567952A95D1F7CE010196AA
:101B00000E94B10BBE016F5F7F4FCE0107960E940E
:101B1000EA0BCE0107960E94010BBE01635F7F4F67
:101B20000E94250BBC01CE0143960E94EA0BCE0118
:101B300007960E94040CCE0101960E94040CCE016F
:101B40000D960E94040C6B897C898CEA96E00E94B9
:101B50000C0C0E943A0DCE0143960E94040C68962C
:101B60000FB6F894DEBF0FBECDBFDF91CF91FF90CF
:101B7000EF90DF90CF900895CF92DF92EF92FF9297
:101B8000CF93DF93CDB7DEB768970FB6F894DEBF7B
:101B90000FBECDBFE1E5F7E0868DC78CD12CF12CCF
:101BA000E12CFE2CED2CDC2CCC24E82A80A1C82AC8
:101BB000B701A60163707727CE010D960E94790BBD
:101BC000C701B60122E196958795779567952A9585
:101BD000D1F7CE0101960E94B10BBE016F5F7F4F1E
:101BE000CE0107960E94EA0BCE0107960E94010BD8
:101BF000BE01635F7F4F0E94250BBC01CE0143965F
:101C00000E94EA0BCE0107960E94040CCE010196B9
:101C10000E94040CCE010D960E94040C6B897C89F5
:101C20008DEC96E00E940C0C0E943A0DCE0143967A
:101C30000E94040C68960FB6F894DEBF0FBECDBFAD
:101C4000DF91CF91FF90EF90DF90CF900895CF93E9
:101C5000DF93FC01248124FD67C0EC018581823083
:101C6000B1F48681823099F4CF010E94410C88231F
:101C700071F081E090E09093CF038093CE0361E018
:101C800070E08BE896E00E94DD070E943A0D8E819D
:101C9000813009F049C08D818230A1F4CE010E94CB
:101CA000410C81112FC08091720790E09093C8037E
:101CB0008093C703109208011092070190E080E022
:101CC0000E94430D8D81833079F58C8182958695B4
:101CD0008770823011F58F8198859C01059714F0EB
:101CE00024E030E037FF02C030E020E0309308010C
:101CF000209307018091070190910801DF91CF9116
:101D00000C944A0D8091C7039091C80390930801E9
:101D10008093070181E090E0D3CF8111E5CFCE0120
:101D200007960E946C1CD9CFDF91CF910895109235
:101D3000EF061092F0068093F4066093F3069091FC
:101D4000F206907E9093F2068F3F11F44AE651E03E
:101D5000BA018EEE96E00E940C0C0C94320D1F938B
:101D6000CF93DF93CEEED6E019821A821FEF1E8347
:101D70008BE08D838C81807E83608C8360E771E053
:101D8000CE010E940C0C0E94320D19821A821E8311
:101D90008CE08D838C81807E83608C8365E771E02D
:101DA000CE010E940C0C0E94320D49E751E064E024
:101DB00070E081E00E94970E43E851E063E070E03C
:101DC00082E00E94970E40E951E067E170E083E015
:101DD0000E94970E4FE951E067E170E084E00E94B5
:101DE000970E4EEA51E067E070E085E00E94970EA2
:101DF00042EC51E067E070E086E00E94970E47ED0C
:101E000051E066E070E087E00E94970E41EF51E0FC
:101E100066E070E088E00E94970E4AE052E067E1D9
:101E200070E089E00E94970E4EE152E067E170E0B9
:101E30008AE00E94970E4EE252E067E170E08BE08C
:101E40000E94970E4DE352E067E170E08CE00E9443
:101E5000970E40E552E067E170E08DE00E94970E3A
:101E600044E652E066E070E08EE00E94970E4DE797
:101E700052E066E070E08FE0DF91CF911F910C940B
:101E8000970E4DE252E061E170E08FEF0E94970EF5
:101E90000C94AF0EEF92FF921F93CF93DF93CDB7C9
:101EA000DEB76B970FB6F894DEBF0FBECDBF8EE8DE
:101EB00094E00E949C04892B09F4E0C08EE894E031
:101EC0000E945A0490911803933608F0FCC0E92F41
:101ED000F0E0EC54FD4F8A3009F0F0C0108210920F
:101EE000310710923007809134078F7E809334073A
:101EF000AE01465E5F4F67E972E084EB92E00E94BC
:101F0000B11C47E0E42EF12C10E0009709F483C1E6
:101F1000153009F48BC10E946C1C1230D1F078F49A
:101F20001130A1F080933207AE01465E5F4F67E942
:101F300072E090E080E00E94B11C1F5FE6CF13309A
:101F400091F0143079F780933507EECF8093360700
:101F5000EBCF7C0180913407887F9E2D9770892B71
:101F600080933407E1CF20913407277F41E050E090
:101F7000892B11F450E040E0CA0133E0880F991F2B
:101F80003A95E1F7822BECCF913614F097555DC16D
:101F900097535BC1213614F027555EC127535CC1AE
:101FA0004091330747708A3108F089E128E0829F29
:101FB000C0011124482B40933307809134078F715F
:101FC000806C809334074695469546954A3108F0D3
:101FD00049E150E0BE016F5F7F4F87E397E00E94C9
:101FE000E1241092180381E2E0E3F7E0AFE0B7E00C
:101FF00001900D928A95E1F71091110711113EC0E1
:102000008091130783FF17C091E2EFE0F7E0AEEE97
:10201000B6E001900D929A95E1F7877E80618093FA
:10202000F2061092EF06809110078093F0068EEE74
:1020300096E00E94570C80911307982F9770933069
:1020400009F0E4C090911407923009F03FC010925B
:10205000EF061092F0068FEF8093F4069093F3064C
:102060008091F206807E83608093F2066AE671E0DA
:102070008EEE96E00E940C0C0E94570C6B960FB6E9
:10208000F894DEBF0FBECDBFDF91CF911F91FF90BF
:10209000EF90089501900020E9F7E81BE250E80F67
:1020A000F92FF11D20812D3011F02A3009F4108212
:1020B000BC0180E397E00E940C0C93CF80839F5F6C
:1020C00090931803F4CE10921803F1CEF0901007FD
:1020D000F11071C09D3059F488E198E00FB6F89482
:1020E000A895809360000FBE90936000FFCF9B3156
:1020F00009F4C4CF963099F49091160781E09923A2
:1021000019F09D3409F080E08093D00341E050E065
:1021100063E071E080ED93E00E945323AFCF9331F1
:1021200019F40E94410FAACF923111F50E94610665
:102130001092EF061092F0062FEF2093F40626E19E
:102140002093F3062091F106277020622093F10678
:1021500023EA2093F2066093F5067093F6068093C7
:10216000F7069093F8068EEE96E00E94320D86CF29
:10217000913009F083CF20E030E0232B09F47ECFAB
:10218000829586958770853059F460911607709115
:10219000170780911807909119070E9400006ECFD1
:1021A000811105C086E197E00E948A1CF6CF60E0AD
:1021B00070E0CB01F2CF9A3109F060CF829586951D
:1021C00087708130D9F4109116071092EF06F092C3
:1021D000F0068FEF8093F4068BE18093F3068091F5
:1021E000F206807E83608093F20661E0123008F48C
:1021F00060E08EEE96E00E94EA07B7CF8111E5CF4E
:1022000086E197E00E946C1C182FDFCF8FE097E0EB
:102210000E94270E33CF60E080E397E00E94EA0738
:1022200010921803153009F4DECE28CFFC0124E00B
:10223000E216F10409F02ECF80E09081992309F491
:10224000AFCE9A330CF0A0CE90539295907F21811F
:102250002A330CF09FCE2053A1E0B0E0AC0FBD1F9D
:10226000A80FB11D920F9C938F5F3296E6CF8F928D
:102270009F92AF92BF92CF92DF92EF92FF924B016B
:102280005C010E9461066B017C010E9461066C1971
:102290007D098E099F09681579058A059B0520F43B
:1022A000A8950E944A0FF1CFFF90EF90DF90CF905A
:1022B000BF90AF909F908F9008950F931F93CF93EF
:1022C000DF93D0E0C0E0082F10E0C017D107B4F4CE
:1022D00060E087E00E94260562E370E080E090E025
:1022E0000E94371161E087E00E94260562E370E0FA
:1022F00080E090E00E9437112196E7CFDF91CF91E7
:102300001F910F9108956F927F928F929F92AF923B
:10231000BF92CF92DF92EF92FF920F931F93CF93D2
:10232000DF93CDB7DEB7CB54D1090FB6F894DEBF3B
:102330000FBECDBFEDB6FEB68091CE039091CF0318
:102340008130910509F493C018F18230910509F4A8
:102350005DC1039709F462C1A8950FB6F894FEBE5B
:102360000FBEEDBEC55BDF4F0FB6F894DEBF0FBEEC
:10237000CDBFDF91CF911F910F91FF90EF90DF9034
:10238000CF90BF90AF909F908F907F906F90089567
:1023900081E00E945D1170E060E08DEC96E00E94AB
:1023A000DD070E943A0D70E060E08CEA96E00E9442
:1023B000DD070E943A0D70E060E08BE896E00E9435
:1023C000DD070E943A0D70E060E08AE696E00E9428
:1023D000DD070E943A0D70E060E089E496E00E941B
:1023E000DD070E943A0D60E084E00E9426050E940D
:1023F000020518161906DCF385EF0E94BF0680E07F
:102400000E94BF06182F61E084E00E9426051F711C
:10241000113031F55CE6A52E57E0B52E0DE911E03F
:10242000DD24D394C8010E944B23F50181935F0101
:102430008F3F09F0D12C0F5F1F4F033AF1E01F07C8
:1024400089F782E090E0D11006C00E94BC0D0E9486
:10245000510D83E090E09093CF038093CE037CCF27
:1024600068EE73E080E090E00E94371175CF60E085
:1024700087E00E9426050E94F6070E941F078CE253
:1024800091E0A0E0B0E08093F5039093F603A09371
:10249000F703B093F80381EF93E00E948803892B40
:1024A00029F081EF93E00E946603F5CF0E94610658
:1024B0004B015C0181EF93E00E9488031816190616
:1024C000CCF781EF93E00E946603782E23E5821318
:1024D00014C0153591F4033381F4D1100EC035E5E5
:1024E00063120BC06AE470E0CE0101960E946D0693
:1024F0000097A1F482E090E072C00E946106681922
:1025000079098A099B09693873418105910590F71A
:102510006C2CCD2CD02E012F172DCCCF84369105CD
:1025200049F380FDE7CFCDB6DEB64C0197FF03C07F
:10253000FFEF8F1A9F0A95948794540121E0A21A05
:10254000B108EDB7FEB7E819F9090FB6F894FEBF68
:102550000FBEEDBF0DB71EB70F5F1F4FA801682F4D
:10256000CE0101960E94DA01682DC8010E94BE01C9
:10257000F801EA0DFB1D9081891342C0F8013196E4
:102580003CE6A32E37E0B32E095F1F4FD5018191A2
:102590008D930E171F07D9F70FB6F894DEBE0FBE46
:1025A000CDBE0DE911E0F50161915F01C8010E9406
:1025B00063230F5F1F4F033AF1E01F07A1F70E944B
:1025C000BC0D0E94510D0E9461066093CA03709376
:1025D000CB038093CC039093CD0383E090E0909362
:1025E000CF038093CE0361E087E00E94260570E070
:1025F00060E08BE896E00E94DD070E943A0DACCEC9
:102600000FB6F894DEBE0FBECDBE74CF82E00E943E
:102610005D116EEE72E080E090E026CF80910701C0
:1026200090910801209172072817190609F43FC0FC
:102630008091C9038530A0F5809107019091080130
:102640002CE12983ECE6F7E0DE01129621912D932F
:1026500027E0E237F207D1F792E2988791EF998766
:1026600093E09A871B868C8784E08D876EE0CE018D
:1026700001960E94BE018E876EE0CE0101960E94F7
:10268000B808882339F081E00E945D1180915A07D3
:10269000809372078091C9038F5F8093C9035CCEDA
:1026A00080910701909108018093720755CE109296
:1026B000C9030E9461060091CA031091CB032091C7
:1026C000CC033091CD03AB01BC01401B510B620B1D
:1026D000730B493853416105710508F43DCED901AA
:1026E000C80188579C4EAF4FBF4F8093CA03909349
:1026F000CB03A093CC03B093CD031C861B868CE048
:10270000898301E00A8780916C078A8380916D0735
:102710008B8380916E078C8380916F078D8380916E
:1027200070078E83809171078F831091C603E12F0C
:10273000F0E0ED5FFE4FE0818E2F90E0FC01EE0FA8
:10274000FF1FE80FF91FEF5AF84F8081918198879A
:1027500089876CE0CE0101960E94BE018C87809132
:10276000C5038C3090F5123068F51F5F1093C603D7
:102770008F5F8093C5036CE0CE0101960E94B8087C
:10278000882309F4E9CD81E00E945D118091060162
:10279000882399F180915A0780937207282F30E09F
:1027A0003093080120930701811124C090E080E05C
:1027B0000E94430D8091720790E00E944A0D109292
:1027C0000601CACD1092C603D3CF109203018091A7
:1027D0005907882349F082E080930401111107C052
:1027E00081E08093C603C7CF00930401F7CF109216
:1027F000C603C1CF81E090E0DBCF60915B078091A1
:102800007307861751F088E296E00E94EA070E945B
:102810003A0D80915B078093730760915C0780910C
:102820007407861751F087E096E00E94EA070E943D
:102830003A0D80915C078093740780915D079091B9
:102840005E0720917507309176072817390791F0B8
:102850000E942A07AB01BC0186EE95E00E9484012C
:102860000E943A0D80915D0790915E0790937607E4
:102870008093750780915F0790916007209177079B
:10288000309178072817390791F00E942A07AB0189
:10289000BC0185EC95E00E9484010E943A0D809174
:1028A0005F079091600790937807809377078091F6
:1028B0006107909162072091790730917A07281774
:1028C000390791F00E942A07AB01BC0184EA95E028
:1028D0000E9484010E943A0D8091610790916207E5
:1028E00090937A07809379078091630790916407AA
:1028F00020917B0730917C072817390791F00E94BF
:102900002A07AB01BC0183E895E00E9484010E9484
:102910003A0D809163079091640790937C078093B0
:102920007B076091650780917D07861751F082E6ED
:1029300095E00E94EA070E943A0D80916507809316
:102940007D076091660780917E07861751F081E4CC
:1029500095E00E94EA070E943A0D809166078093F5
:102960007E076091670780917F07861751F080E2AC
:1029700095E00E94EA070E943A0D809167078093D4
:102980007F0760916A0770916B0780918207909131
:10299000830786179707C1F090E080E00E944022ED
:1029A00020E030E048EC52E40E94AC2326E636E614
:1029B00046E650E40E947D22AB01BC018FEF94E01B
:1029C0000E9484010E943A0D609168077091690726
:1029D000809180079091810786179707C1F090E05A
:1029E00080E00E94402220E030E048EC52E40E9467
:1029F000AC2326E636E646E650E40E947D22AB0193
:102A0000BC018EED94E00E9484010E943A0D8091F9
:102A1000720790915A07891709F49ECC911110C042
:102A200090E09093C8038093C703109272071092AE
:102A300008011092070190E080E00E94430D8CCCC9
:102A4000811104C081E090E00E94430D80915A07FB
:102A50008093720790E090930801809307010E9491
:102A60004A0D7ACC1F920F920FB60F9211248F93BA
:102A70009F938091E1009091E100937F9093E1001A
:102A800083FF0FC01092E90091E09093EB00109249
:102A9000EC0092E39093ED001092F00398E0909395
:102AA000F00082FF22C093E09093E9009091F20041
:102AB000992319F09AE39093E8009091E203992307
:102AC00041F09091E20391509093E203911101C083
:102AD0005D9A9091EF03992341F09091EF0391500B
:102AE0009093EF03911101C0289A84FF18C0809140
:102AF000E2008E7E81608093E2008091E1008F7E13
:102B00008093E1008091E1038E7E80618093E103F8
:102B10009F918F910F900FBE0F901F90189580FF7F
:102B2000F7CF8091E2008E7E80618093E2008091F9
:102B3000E1008E7E8093E1008091E1038E7E8160D2
:102B4000E5CF1F920F920FB60F921124CF92DF9212
:102B5000EF92FF920F931F932F933F934F935F93A7
:102B60006F937F938F939F93AF93BF93EF93FF9355
:102B7000CF93DF93CDB7DEB76C97DEBFCDBF10929A
:102B8000E9008091E80083FF25C068E0CE0145960A
:102B90000E941D0382EF8093E8008D8987FF39C072
:102BA0009091E80090FFFCCF982F907609F034C107
:102BB0009E894F89588D2F89F88C911131C08038AA
:102BC00061F58091E0038093F1001092F1008EEFA7
:102BD0008093E8006C960FB6F894DEBF0FBECDBFB1
:102BE000DF91CF91FF91EF91BF91AF919F918F9125
:102BF0007F916F915F914F913F912F911F910F9115
:102C0000FF90EF90DF90CF900F900FBE0F901F902E
:102C100018959EEF9093E800C7CF1092F100D5CFA2
:102C2000913059F48111D3CF4130510581F6809113
:102C3000E0038D7F8093E003CACF933049F4811184
:102C4000C6CF4130510519F68091E0038260F2CF82
:102C5000953041F48091E80080FFFCCF20682093FC
:102C6000E300B5CF963009F0A9C00B8D1C8D22E092
:102C70001092E9001092DE031092DD03F2122EC0D2
:102C80001092DC031092DB030E94EC021F8299E099
:102C90009983FA8291E09E8390EA98879AEF9987C8
:102CA0002091DD033091DE03275F3F4F3C832B8370
:102CB0008D831092E9001092DE031092DD031093D1
:102CC000DC030093DB0349E050E0BE016F5F7F4F00
:102CD00080E00E94C6020E94EC0279CF1093DC03D0
:102CE0000093DB030E945102DC0112960D911C91AE
:102CF0000115110509F451C1D801ED91FC91048031
:102D0000F581E02DBE016B5E7F4FC80109950097EC
:102D100009F03EC1F80100851185EACFF3E0FF120A
:102D20000EC08F89882309F440C0823061F440E8E6
:102D30006EE089E392E00E949302811148CF81E224
:102D40008093EB0047CF813029F440E86BE08DE2BF
:102D500092E0F1CF833099F70E945102DC01129684
:102D6000ED90FC908E010F5F1F4F6801E114F1049C
:102D700079F0D701ED91FC910680F781E02DB80143
:102D8000C7010995080F111DF701E084F184EECF0A
:102D9000D8011C92F60101900020E9F73197BF019C
:102DA0006C197D0940E0C601C6CF67E172E0FB0106
:102DB000449150E080E80E94C60209CF973009F4A0
:102DC000BECF983021F481E08093F10000CF99309C
:102DD00009F0FDCE837009F0B2CFEEE3F1E081E0BF
:102DE00031E096E32191222371F08093E900309342
:102DF000EB00DF0111972C912093EC009093ED00F4
:102E00008F5F873079F78EE78093EA001092EA00AF
:102E10008F898093F003DBCE8B8D9C8D1092E9001F
:102E20001092DE031092DD039093DC038093DB03AA
:102E3000898D811192C08E899D89913A49F48132A0
:102E400009F07DCF47E050E067E171E080E0B3CF6B
:102E5000913209F074CF833269F48F89988DB0E094
:102E6000A0E08093130190931401A0931501B093F7
:102E70001601ADCE803269F48091E80082FFFCCF6C
:102E800067E087E191E00E941D038BEF8093E800EB
:102E90009ECE823209F09BCE8F8980931E01EEEF89
:102EA000FFE7859194918B3F9C4D51F1E0E0F8E074
:102EB0008091170190911801A0911901B0911A0108
:102EC000803B9440A105B105F1F480911E0180FD85
:102ED0001AC0EE3F8AE0F80789F587E797E7918304
:102EE0008083809160008093DF0388E19BE00FB6D0
:102EF000F894A895809360000FBE9093600067CE11
:102F0000EEEFFAE0D5CF808191818737974709F0BE
:102F10005ECEA8958091600088618093600080916A
:102F2000DF0380936000EE3F2AE0F20789F0809192
:102F3000FE0A9091FF0A9183808349CE808191811E
:102F40008737980751F29093FF0A8093FE0AC5CF06
:102F50001092FF0A1092FE0A3ACE0E945102DC0142
:102F600012960D911C910115110509F4E8CED801B6
:102F7000ED91FC910190F081E02DBE016B5E7F4FE1
:102F8000C8010995811123CEF80100851185EBCF89
:102F9000181619060CF41BCED2CEF1E0FF12BECEED
:102FA0006BE172E004CF1F920F920FB60F921124C3
:102FB0002F933F934F935F936F937F938F939F9341
:102FC000AF93BF93EF93FF9381EF93E00E949E0333
:102FD000FF91EF91BF91AF919F918F917F916F91F1
:102FE0005F914F913F912F910F900FBE0F901F90C7
:102FF00018951F920F920FB60F9211242F938F9353
:103000009F93EF93FF93E0910104F091020480817C
:10301000E0910704F091080482FD1BC0908180912B
:103020000A048F5F8F7320910B04821741F0E091A7
:103030000A04F0E0EF50FC4F958F80930A04FF9153
:10304000EF919F918F912F910F900FBE0F901F9036
:1030500018958081F4CF1F920F920FB60F92112412
:103060002F933F938F939F93AF93BF938091D303FD
:103070009091D403A091D503B091D6033091D2039F
:1030800026E0230F2D3758F50296A11DB11D209380
:10309000D2038093D3039093D403A093D503B0932A
:1030A000D6038091D7039091D803A091D903B09112
:1030B000DA030196A11DB11D8093D7039093D80325
:1030C000A093D903B093DA03BF91AF919F918F91F1
:1030D0003F912F910F900FBE0F901F90189529E8E8
:1030E000230F0396A11DB11DD2CF1F920F920FB6D1
:1030F0000F9211242F933F934F935F936F937F937E
:103100008F939F93AF93BF93EF93FF93E091110140
:10311000F09112010995FF91EF91BF91AF919F91AD
:103120008F917F916F915F914F913F912F910F9070
:103130000FBE0F901F9018951F920F920FB60F920F
:1031400011242F933F934F935F936F937F938F93AC
:103150009F93AF93BF93EF93FF93E0910F01F09193
:1031600010010995FF91EF91BF91AF919F918F91C0
:103170007F916F915F914F913F912F910F900FBE73
:103180000F901F9018951F920F920FB60F92112457
:103190002F933F934F935F936F937F938F939F935F
:1031A000AF93BF93EF93FF93E0910D01F0910E0168
:1031B0000995FF91EF91BF91AF919F918F917F9171
:1031C0006F915F914F913F912F910F900FBE0F9094
:1031D0001F9018951F920F920FB60F9211242F93E4
:1031E0003F934F935F936F937F938F939F93AF938F
:1031F000BF93EF93FF93E0910B01F0910C010995C0
:10320000FF91EF91BF91AF919F918F917F916F91BE
:103210005F914F913F912F910F900FBE0F901F9094
:1032200018951F920F920FB60F9211242F933F9370
:103230004F935F936F937F938F939F93AF93BF93BE
:10324000EF93FF93E0910901F0910A010995FF9135
:10325000EF91BF91AF919F918F917F916F915F910E
:103260004F913F912F910F900FBE0F901F90189587
:103270001F920F920FB60F9211240F900FBE0F9056
:103280001F901895CF93DF93FC0110821182128258
:10329000148215821682DC0117968AE1ED011992DB
:1032A0008A95E9F782E08383DF91CF9108950F93A8
:1032B0001F93CF93DF93E1EFF3E01382128288EE46
:1032C00093E0A0E0B0E084839583A683B78328E4ED
:1032D00031E0318320832DEC30E0358724872CECDE
:1032E00030E03787268728EC30E0318B208B29ECC3
:1032F00030E0338B228B2AEC30E0358B248B2EECA4
:1033000030E0378B268B118E128E138E148EEEE8E2
:10331000F4E01382128284839583A683B7838AE5BF
:1033200091E0918380838FEF9FEF9587848780E37F
:1033300097E00E9442198FE097E00E9442198EEEBA
:1033400096E00E9442198DEC96E00E944219EDEC45
:10335000F6E003E00683C8E1C5838CEA96E00E94AC
:103360004219ECEAF6E084E08683C5838BE896E0B8
:103370000E944219EBE8F6E012E0168315838AE614
:1033800096E00E944219EAE6F6E0D1E0D683058392
:1033900089E496E00E944219E9E4F6E0D6831583B9
:1033A00088E296E00E944219E8E2F6E085E0868332
:1033B000D58387E096E00E944219E7E0F6E086E0D8
:1033C0008683D58386EE95E00E944219E6EEF5E00D
:1033D00087E08683158285EC95E00E944219E5EC32
:1033E000F5E088E08683158284EA95E00E94421920
:1033F000E4EAF5E08EE08683158283E895E00E949A
:103400004219E3E8F5E08FE08683158282E695E0D5
:103410000E944219E2E6F5E089E08683C58381E4F3
:1034200095E00E944219E1E4F5E08AE08683C583D5
:1034300080E295E00E944219E0E2F5E08BE08683AD
:10344000C5838FEF94E00E944219EFEFF4E08CE027
:103450008683C5838EED94E00E944219EEEDF4E080
:103460008DE08683C583DF91CF911F910F910895E1
:10347000789484B5826084BD84B5816084BD85B54F
:10348000826085BD85B5816085BD80916E0081605B
:1034900080936E0010928100809181008260809301
:1034A0008100809181008160809381008091800003
:1034B0008160809380008091910082608093910070
:1034C0008091910081608093910080919000816053
:1034D000809390008091C10084608093C1008091AE
:1034E000C10082608093C1008091C100816080939F
:1034F000C1008091C30081608093C3008091C000AF
:1035000082608093C0008091C20081608093C2007D
:1035100080917A00846080937A0080917A00826042
:1035200080937A0080917A008E7F80937A008091D8
:103530007A00806880937A001092F0031092E00382
:103540001092E1038091D70081608093D70080EAD8
:103550008093D80089B58F7E89BD89B5826089BD89
:1035600009B400FEFDCF61E070E080E090E00E94D1
:10357000AA058091D8008F7C80618093D8008091CB
:10358000E000807F8093E0008091E1008E7E809358
:10359000E1008DE08093E200559A209AA89580E0A2
:1035A00090E0892B11F00E9400008FEF9FEF909325
:1035B0009B0480939A04C0911E016AE070E080E051
:1035C00090E00E94AA05CC23B1F38091D1038D7FB6
:1035D0008093D1030E94850741E050E063E071E0F1
:1035E00080ED93E00E943B231092EF061092F006CC
:1035F0008FEF8093F4068EE08093F3068091F206BD
:10360000807E83608093F20669E972E08EEE96E038
:103610000E940C0C0E94570C0E94410F0E943D0713
:103620008091D10381FD04C0816082608093D103C9
:10363000A895C0E0D0E0A8950E944A0F0E9483118F
:103640002097C9F30E9494038823A9F30E940000E5
:10365000F2CFEF920F931F93CF93DF93E80134E003
:1036600047FD34E1042E000C550B57FF03C0519564
:1036700041955109E32E022F242FAE010E94551FC0
:10368000CE01DF91CF911F910F91EF9008950F938D
:103690001F93CF93DF938230910510F482E090E086
:1036A000E0918C07F0918D0730E020E0B0E0A0E0E1
:1036B000309799F42115310509F44AC0281B390BBC
:1036C00024303105D8F58A819B816115710589F116
:1036D000FB0193838283FE0111C0408151810281ED
:1036E000138148175907E0F04817590799F41097C4
:1036F00061F012960C93129713961C933296CF0199
:10370000DF91CF911F910F91089500938C07109333
:103710008D07F4CF2115310551F04217530738F0CA
:10372000A901DB019A01BD01DF01F801C1CFEF0161
:10373000F9CF90938D0780938C07CDCFFE01E20FD8
:10374000F31F819391932250310939832883D7CF76
:1037500020918A0730918B07232B41F4209121017E
:103760003091220130938B0720938A0720911F010B
:10377000309120012115310541F42DB73EB740911C
:10378000230150912401241B350BE0918A07F0910D
:103790008B07E217F307A0F42E1B3F0B28173907FE
:1037A00078F0AC014E5F5F4F2417350748F04E0F9D
:1037B0005F1F50938B0740938A07819391939FCF0C
:1037C000F0E0E0E09CCFCF93DF930097E9F0FC01BD
:1037D000329713821282A0918C07B0918D07ED0170
:1037E00030E020E01097A1F420813181820F931FF7
:1037F00020918A0730918B072817390709F061C09B
:10380000F0938B07E0938A07DF91CF910895EA0147
:10381000CE17DF07E8F54A815B819E01411551050E
:10382000B1F7E901FB83EA8349915991C40FD51F90
:10383000EC17FD0761F4808191810296840F951F3A
:10384000E90199838883828193819B838A83F0E055
:10385000E0E012968D919C9113970097B9F52D9108
:103860003C911197CD010296820F931F20918A07F8
:1038700030918B072817390739F6309751F5109298
:103880008D0710928C07B0938B07A0938A07BCCF4B
:10389000D383C28340815181840F951FC817D907F4
:1038A00061F44E5F5F4F88819981480F591F5183A2
:1038B00040838A819B81938382832115310509F09E
:1038C000B0CFF0938D07E0938C079ECFFD01DC0114
:1038D000C0CF13821282D7CFFC0188279927E894A2
:1038E00021912032E9F3293010F02E30C8F32B3229
:1038F00041F02D3239F4689404C00E94071D820FF4
:10390000911D219120532A30C0F31EF4909581958A
:103910009F4F08951F93FC0199278827BC01E894C5
:1039200011911032E9F3193010F01E30C8F31B3238
:1039300051F01D3249F4689406C00E94F21C610FD8
:10394000711D811D911D119110531A30B0F33EF479
:1039500090958095709561957F4F8F4F9F4F1F91E8
:103960000895FA01A191B081009719F41097E1F040
:10397000CD01DC01CD010D90002011F4C00113C078
:10398000FB012191222319F02015D9F7F3CFFB0178
:103990002191201519F41E92119606C02223C1F719
:1039A0000D900020A1F7D001FA01A193B0830895F2
:1039B000BB274A3031F4992322F4BDE290958195DA
:1039C0009F4F0C94321DBB272A3051F4992342F4A7
:1039D000BDE290958095709561957F4F8F4F9F4F79
:1039E0000C94101D592F482F372F262F660F771F45
:1039F000881F991F660F771F881F991F620F731FFB
:103A0000841F951F660F771F881F991F08957AE0FE
:103A1000979F902D879F802D910D11240895BB278E
:103A2000FA01A62F6217710581059105330B30FB52
:103A300066F0AA27660F771F881F991FAA1FA21773
:103A400010F0A21B63953850A9F7A05DAA3308F0C7
:103A5000A95DA19336F7B111B1931082CA010C94FC
:103A6000A221BB27FB015527AA27880F991FAA1F50
:103A7000A41710F0A41B83955051B9F7A05DAA3389
:103A800008F0A95DA193009779F7B111B193119254
:103A9000CB010C94A221AEE0B0E0E1E5FDE10C9495
:103AA00083230D891E898F89988D2EE02C831A839C
:103AB000098397FF02C080E090E801979E838D8381
:103AC000AE01455E5F4F698D7A8DCE0101960E94F1
:103AD0007B1D4D815E8157FD0AC02F8138854217BD
:103AE00053070CF49A01020F131FF80110822E964F
:103AF000E4E00C949F23ABE0B0E0E1E8FDE10C943E
:103B000075237C013B018A01FC01178216828381A7
:103B100081FFC8C1CE0101965C01F7019381F301D9
:103B200093FD859193FF81913F01882309F453C14F
:103B3000853239F493FD859193FF81913F01853260
:103B400029F4B70190E00E94B221E7CF912C212CFB
:103B5000312CFFE1F31538F08B3211F190F4803203
:103B600009F1833229F137FC3CC020ED280F2A30BF
:103B700050F536FE20C08AE0989E200D1124922E2A
:103B800006C08D3291F0803371F7689430F8F301FC
:103B900093FD859193FF81913F018111DACF21C07F
:103BA000689431F8689432F8F2CF689433F8EFCF24
:103BB000689434F8ECCFEAE02E9E200D1124222EDA
:103BC000689435F8E4CF8E3229F436FC04C1689449
:103BD00036F8DDCF8C3619F4689437F8D8CF8836AC
:103BE000B1F2982F9F7D95549330E0F08336A1F188
:103BF0008337C1F1833509F063C02801F2E04F0E2D
:103C0000511CF801C080D180692D70E036FC02C0E3
:103C10006FEF7FEFC6010E948C214C01689437F84A
:103C200082010AC00C5F1F4FFFE3F983882483944D
:103C3000912C6501E89437F833FE2DC0522C811485
:103C4000910471F5552009F468CFB70180E290E046
:103C50000E94B2215A94F6CFF801808189830E5FC9
:103C60001F4FE4CF2801F2E04F0E511CF801C08035
:103C7000D180692D70E036FC02C06FEF7FEFC60186
:103C80000E9497214C018201D5CFB70180E290E0DC
:103C90000E94B2212A942814190409F0B0F7CECF5B
:103CA000F60137FC859137FE81916F01B70190E0F5
:103CB0000E94B22151105A94F1E08F1A9108BFCF9F
:103CC000843619F0893609F077C0F80137FE6BC0E9
:103CD00060817181828193810C5F1F4FF32DFF768C
:103CE0003F2E97FF09C090958095709561957F4F05
:103CF0008F4F9F4F689437F82AE030E0A5010E946B
:103D0000E221C82ECA188C2C432C36FE0CC0E89435
:103D100040F8C91440F434FE05C032FC03C0F32D52
:103D2000FE7E4F2E892C44FE95C0FE01EC0DF11D48
:103D30008081803309F087C0242D297E422E842D76
:103D40008870582E43FC95C040FE8FC09C2C821476
:103D500018F42C0C922C981844FE91C0B70180E303
:103D600090E00E94B22142FE09C088E790E041FE47
:103D700002C088E590E0B7010E94B221C91408F49E
:103D80008AC0CA94D12C9FEFC91AD90ACA0CDB1C6D
:103D9000F60182916F01B70190E00E94B221AC144C
:103DA000BD04B1F74FCF60817181072E000C880BE5
:103DB000990B0E5F1F4F92CFD32CE894D4F82AE0D2
:103DC00030E0853739F1232D297FD22E8F3601F14E
:103DD00048F48835A9F0F701868197812B96E2E1B6
:103DE0000C949123803749F08837A9F7D4FE02C09C
:103DF0006894D2F820E130E00DC06894D4F8F6CF92
:103E000034FE03C0822F8660D82E20E132E002C04B
:103E100028E030E0F801D7FE0FC060817181828117
:103E200093810C5F1F4FA5010E94E221C82ECA1882
:103E30003D2CE89437F867CF6081718190E080E095
:103E40000E5F1F4FF0CF42FC02C0839478CF839463
:103E5000839475CF842D867809F471CFF6CFB7019E
:103E600080E290E00E94B22183948214C0F3512C2E
:103E700073CF522C5818821408F46ECFF8CF842DCB
:103E8000867809F47BCF8BE241FE80E247FC8DE22D
:103E9000B70190E071CFB70180E390E00E94B221BA
:103EA0009A946CCF8FEF9FEF99CFA9E0B0E0EBE54C
:103EB000FFE10C947B236A01F22EB02E102FFBE35E
:103EC000AF2EA01608F41BE31F5F012F27E0AE0101
:103ED0004F5F5F4F0E94B420BC018981982F997079
:103EE000913009F43FC09BE2E1FC04C09E2D91702B
:103EF000E0FC3AC05E2D5071E82FE87083FF46C0A9
:103F000084E0911101C083E0EF2DE81B8F1508F0CC
:103F1000E0E0D6018E2F20E2552351F1992329F0BC
:103F2000D6019C93C60101966C0196012D5F3F4F0F
:103F3000E2FE24C08EE4D6018C9391E411969C930A
:103F4000119712968C93D9018E2F90E281111BC08C
:103F5000E20FF32FF11D10828EEF9FEF2996ECE018
:103F60000C9497239DE2C6CF90E2C4CF2D9381504D
:103F70008111FCCFCE0ED11CE0E0D0CF8EE6D60171
:103F80008C9391E6DBCF9D938150E0CF482F447016
:103F900082FF3DC084E0911101C083E08F1510F4D1
:103FA000EF2DE81BD6018E2F20E2552309F199232E
:103FB00029F0D6019C93C60101966C0196012D5FF4
:103FC0003F4FE2FE1BC089E4D6018C938EE411962C
:103FD0008C93119786E412968C93D9018E2F90E2E0
:103FE000882309F4B5CF9D938150FACF2D9381504A
:103FF0008111FCCFCE0ED11CE0E0D9CF89E6D601ED
:104000008C938EE611968C93119786E6E4CF9B01F4
:1040100077FF02C030E020E0A1E0B0E0911102C0E3
:10402000B0E0A0E0F9013196AE0FBF1F8B2C912CB0
:10403000BB2009F461C05401EFEFAE1ABE0AAA0D0D
:10404000BB1DFA161B0619F014F04F2D4A1B511117
:1040500088C0E3FC59C07601A42FB0E2A1114FC083
:10406000C40ED11C992309F45BC040E0D60111961F
:10407000F60190836D01552309F448C0012F060F06
:104080009A81582F507184FF03C0913309F4015075
:1040900010160CF047C0093008F008E0EEE2FE2EE2
:1040A0005B01A01AB10885019194819491082F3F7A
:1040B000320729F4D601FC92F60131966F0162179E
:1040C000730794F1021713077CF5DB01A21BB30BF6
:1040D000AA24A394B12CAC0EBD1EAA0DBB1D119633
:1040E0008C9121503109D601119628153905F4F02B
:1040F000F60180836D01DBCFB12CA12CA0CFF7019D
:10410000B1937F01A150AACF9111B0CFD601942FC6
:1041100050E302C05D9391509111FCCFC40ED11CAD
:1041200040E0ACCF01E0BACF80E3DBCF621773078A
:1041300031F4963388F4953311F4552369F0F60180
:104140008083FD01842F90E2811108C0A40FB11D6E
:104150001C9290E080E002CF81E3F1CF91938150F7
:10416000F3CF911183CF8ACF283008F027E033278F
:10417000DA01990F311D87FD916000966105710587
:1041800039F432602E5F3D9330E32A95E1F70895CC
:104190009F3F30F080387105610509F03C5F3C5F5E
:1041A0003D93913008F08068911DDF93CF931F936A
:1041B0000F93FF92EF92192F987F9695E92F96957E
:1041C0009695E90FFF27EA5FFE4F99273327EE24E4
:1041D000FF24A701E70105900894079428F4360FFF
:1041E000E71EF81E491F511D660F771F881F991F74
:1041F0000694A1F70590079428F4E70EF81E491FCE
:10420000561FC11D770F881F991F661F0694A1F7BF
:104210000590079428F4F80E491F561FC71FD11D9B
:10422000880F991F661F771F0694A1F705900794C2
:1042300020F4490F561FC71FD81F990F661F771FFD
:10424000881F0694A9F784911095177041F0D695B0
:10425000C79557954795F794E7941A95C1F7ECEAF7
:10426000F0E06894159015913591659195910590C0
:104270007FE27395E118F10A430B560BC90BD00985
:10428000C0F7E10CF11E431F561FC91FD01D7EF45D
:10429000703311F48A95E6CFE894015030F0080F9E
:1042A0000AF40027021708F4202F2395022F7A33EF
:1042B00028F079E37D932A95E9F710C07D932A953C
:1042C00089F6069497956795379517951794E11891
:1042D000F10A430B560BC90BD00998F023957E9138
:1042E00073957A3308F070E37C932013B8F77E91CE
:1042F00070617D9330F0839571E37D9370E32A952F
:10430000E1F71124EF90FF900F911F91CF91DF9172
:10431000992787FD90950895FC01059061507040A4
:104320000110D8F7809590958E0F9F1F0895FC017E
:104330006150704001900110D8F7809590958E0FD4
:104340009F1F0895DC01FC01672F71917723E1F72E
:10435000329704C07C916D9370836291AE17BF0752
:10436000C8F308950F931F93CF93DF93182F092F4E
:10437000EB018B8181FD09C01FEF0FEF812F902F83
:10438000DF91CF911F910F91089582FF14C02E816C
:104390003F818C819D81281739073CF4E881F981A0
:1043A000CF0101969983888310838E819F81019626
:1043B0009F838E83E3CFE885F985812F0995892B2B
:1043C000A1F3DACFFA01AA27283051F1203181F187
:1043D000E8946F936E7F6E5F7F4F8F4F9F4FAF4F0D
:1043E000B1E03ED0B4E03CD0670F781F891F9A1F20
:1043F000A11D680F791F8A1F911DA11D6A0F711DD4
:10440000811D911DA11D20D009F468943F912AE0DF
:10441000269F11243019305D3193DEF6CF010895C7
:10442000462F4770405D4193B3E00FD0C9F7F6CFF8
:10443000462F4F70405D4A3318F0495D31FD4052C0
:10444000419302D0A9F7EACFB4E0A6959795879556
:1044500077956795BA95C9F7009761057105089535
:104460009B01AC010A2E06945795479537952795E1
:10447000BA95C9F7620F731F841F951FA01D089579
:10448000E89409C097FB3EF49095809570956195EE
:104490007F4F8F4F9F4F9923A9F0F92F96E9BB27A4
:1044A0009395F695879577956795B795F111F8CF20
:1044B000FAF4BB0F11F460FF1BC06F5F7F4F8F4F8B
:1044C0009F4F16C0882311F096E911C0772321F081
:1044D0009EE8872F762F05C0662371F096E8862F19
:1044E00070E060E02AF09A95660F771F881FDAF770
:1044F000880F9695879597F908950E9490220C94BD
:1045000001230E94F32238F00E94FA2220F0952322
:1045100011F00C94EA220C94F02211240C9435230F
:104520000E94122370F3959FC1F3950F50E0551F21
:10453000629FF001729FBB27F00DB11D639FAA27F8
:10454000F00DB11DAA1F649F6627B00DA11D661F47
:10455000829F2227B00DA11D621F739FB00DA11D68
:10456000621F839FA00D611D221F749F3327A00D22
:10457000611D231F849F600D211D822F762F6A2FBE
:1045800011249F5750409AF0F1F088234AF0EE0F23
:10459000FF1FBB1F661F771F881F91505040A9F750
:1045A0009E3F510580F00C94EA220C9435235F3F26
:1045B000E4F3983ED4F3869577956795B795F7958C
:1045C000E7959F5FC1F7FE2B880F911D9695879504
:1045D00097F9089597F99F6780E870E060E0089583
:1045E0009FEF80EC089500240A941616170618060B
:1045F0000906089500240A941216130614060506E7
:104600000895092E0394000C11F4882352F0BB0F77
:1046100040F4BF2B11F460FF04C06F5F7F4F8F4FDA
:104620009F4F089557FD9058440F551F59F05F3F15
:1046300071F04795880F97FB991F61F09F3F79F0C4
:1046400087950895121613061406551FF2CF469546
:10465000F1DF08C0161617061806991FF1CF8695C8
:104660007105610508940895E894BB2766277727AC
:10467000CB0197F90895DC01CB01FC01F999FECF3C
:1046800006C0F2BDE1BDF89A319600B40D924150DA
:104690005040B8F70895F999FECF92BD81BDF89AC0
:1046A000992780B50895DC01A40FB51F41505040F3
:1046B00048F0CB01840F951F2E910E946423415036
:1046C0005040D0F70895262FF999FECF92BD81BDB5
:1046D000F89A019700B4021639F01FBA20BD0FB640
:1046E000F894FA9AF99A0FBE08952F923F924F923A
:1046F0005F926F927F928F929F92AF92BF92CF9272
:10470000DF92EF92FF920F931F93CF93DF93CDB77A
:10471000DEB7CA1BDB0B0FB6F894DEBF0FBECDBFF2
:1047200009942A88398848885F846E847D848C84C3
:104730009B84AA84B984C884DF80EE80FD800C81CC
:104740001B81AA81B981CE0FD11D0FB6F894DEBFAF
:104750000FBECDBFED0108950E94C0230C9401232C
:104760000E94FA2258F00E94F32240F029F45F3FA1
:1047700029F00C94EA2251110C9435230C94F02268
:104780000E94122368F39923B1F3552391F3951BEB
:10479000550BBB27AA2762177307840738F09F5F62
:1047A0005F4F220F331F441FAA1FA9F335D00E2ECF
:1047B0003AF0E0E832D091505040E695001CCAF73C
:1047C0002BD0FE2F29D0660F771F881FBB1F2617FF
:1047D00037074807AB07B0E809F0BB0B802DBF01D6
:1047E000FF2793585F4F3AF09E3F510578F00C94A5
:1047F000EA220C9435235F3FE4F3983ED4F3869588
:1048000077956795B795F7959F5FC9F7880F911DC5
:104810009695879597F90895E1E0660F771F881FB1
:10482000BB1F621773078407BA0720F0621B730B64
:10483000840BBA0BEE1F88F7E0950895EE0FFF1F6B
:104840000590F491E02D0994B0E0A0E0EAE2F4E2F2
:104850000C9477238C01009751F4CB010E94471BE5
:104860008C01C801CDB7DEB7E0E10C949323FC01C5
:10487000E60FF71F9C0122503109E217F30708F4F5
:104880009DC0D901CD91DC911197C617D70798F03B
:10489000C530D10530F3CE0104978617970708F38A
:1048A000C61BD70B2297C193D1936D937C93CF01F5
:1048B0000E94E31BD6CF5B01AC1ABD0A4C018C0EE3
:1048C0009D1EA0918C07B0918D07512C412CF12C8D
:1048D000E12C109731F580918A0790918B0788150C
:1048E000990509F05CC04616570608F058C080913B
:1048F0001F0190912001009741F48DB79EB7409120
:10490000230150912401841B950BE817F90708F047
:1049100055C0F0938B07E0938A07F9017183608398
:10492000A0CF8D919C91119712966C90129713962F
:104930007C901397A815B90559F56C0142E0C40E97
:10494000D11CCA14DB0420F1AC014A195B09DA015D
:104950001296159780F06282738251834083D90149
:104960006D937C93E114F10471F0D7011396FC93DD
:10497000EE93129776CF22968C0F9D1FF9019183AB
:104980008083F301EFCFF0938D07E0938C0769CF1D
:104990004816590608F42C017D01D3019ACFCB01AA
:1049A0000E94471B7C01009749F0AE01B8010E94AC
:1049B000E124C8010E94E31B870153CF10E000E00F
:1049C00050CFFB01DC0102C001900D9241505040DC
:1049D000D8F70895FB01DC0101900D920020E1F76A
:1049E0000895FB01DC014150504048F001900D92C8
:1049F0000020C9F701C01D9241505040E0F70895D2
:104A0000F894FFCFFFFFFF000102010100BE06BEC8
:104A100006BE06BE06BE06FFFFFFFF00E100000067
:104A200000000000008E078000AAA9A6A59A99960A
:104A3000956A6966655A5956556F262E7F8A84CACB
:104A4000C400C1808100000000000000BF032A03F1
:104A500057030B04880366037A0300000000350443
:104A6000DC0556044B049C045A0478043A00322EA8
:104A7000332E320046616E5800312E370046414ECB
:104A800020737065656400436C6F6E652073776991
:104A90007463680054617267657420616464726550
:104AA000737300536F75726365206164647265731C
:104AB0007300496E646F6F722068756D6964697404
:104AC0007920282529004F7574646F6F72206875EE
:104AD0006D696469747920282529004578686175B5
:104AE00073742074656D70657261747572652028C9
:104AF000C2BA432900537570706C792074656D706B
:104B0000657261747572652028C2BA4329004279C2
:104B10007061737320706F736974696F6E202825DC
:104B20002900457868617573742046414E20282518
:104B30002900537570706C792046414E2028252934
:104B400000537570706C7920666C6F7720286D3318
:104B50002F6829004578686175737420666C6F77DB
:104B600020286D332F682900496E646F6F7220749E
:104B7000656D70657261747572652028C2BA4329CB
:104B8000004F7574646F6F722074656D706572612B
:104B9000747572652028C2BA4329003B00476174CE
:104BA00065776179207374617274757020636F6DBD
:084BB000706C6574652E0000B5
:1070000055C000006EC000006CC000006AC00000E7
:1070100068C0000066C0000064C0000062C00000DC
:1070200060C000005EC00000FCC400005AC0000048
:1070300058C0000056C0000054C0000052C00000FC
:1070400050C000005DC000004CC000004AC00000FD
:1070500048C0000046C0000044C0000042C000001C
:1070600040C000003EC000003CC000003AC000002C
:1070700038C0000036C0000034C0000032C000003C
:1070800030C000002EC000002CC000002AC000004C
:1070900028C0000026C0000024C0000022C000005C
:1070A00020C000001EC000001CC0000011241FBE34
:1070B000CFEFDAE0DEBFCDBF11E0A0E0B1E0E2E467
:1070C000FFE702C005900D92A43BB107D9F711E08C
:1070D000A4EBB1E001C01D92AD3CB107E1F74FD385
:1070E0002EC78ECFF89410926F001092810081E02D
:1070F00085BF15BE47985D9A289A0C9400000895A4
:107100001F920F920FB60F9211242F938F939F937C
:10711000EF93FF9310928500109284008091B40148
:107120009091B501009741F001979093B50180933C
:10713000B401892B09F45D9A8091B6019091B70151
:10714000009741F001979093B7018093B601892B86
:1071500009F4289A8091BA019091BB01019690930D
:10716000BB018093BA01E0E0F0E0859194918F5FDC
:107170009F4F49F08091B8019091B9010196909389
:10718000B9018093B801FF91EF919F918F912F9159
:107190000F900FBE0F901F90189584E08093E90028
:1071A0000DC08091E8008B778093E80003C08EB318
:1071B000882351F08091E80082FFF9CF8091E800A8
:1071C00085FFEFCF8091F1000895982F83E08093A1
:1071D000E9008091E80085FD0DC08091E8008E7780
:1071E0008093E80003C08EB3882369F08091E800A3
:1071F00080FFF9CF9093F1005D9884E690E0909342
:10720000B5018093B40108954F925F926F927F927F
:107210008F929F92AF92BF92CF92DF92EF92FF92A6
:107220000F931F93CF93DF9384E08093E9008091C5
:10723000E80082FF57C2289884E690E09093B70157
:107240008093B601AADF182F853481F48CEA9DE083
:107250009093B9018093B80107B600FCFDCFF9996E
:10726000FECF81E180935700E89503C0843519F47F
:1072700094DF8DE00DC28C34E1F38035D1F3843797
:1072800021F484E4A2DF80E003C2813611F489E5B1
:10729000FFC18134B1F481DF182F7FDF90E0880FC8
:1072A000991FAA2797FDA095BA2F312F330F20E001
:1072B000442737FD4095542F822B932BA42BB52BBD
:1072C000B8C1803711F483E5E3C1833549F4C0E0E8
:1072D000D1E089917ADF21E0C730D207D1F7D9C157
:1072E000863521F481E371DF80E3D2C1833731F445
:1072F00087E86BDF85E969DF8EE1CAC18536B9F4BD
:10730000E0E0F0E093E085E090935700E89507B661
:1073100000FCFDCF80935700E89507B600FCFDCF39
:10732000E058FF4FA0E7E030FA0771F7A2CF8237AD
:1073300039F4E1E0F0E089E0809357008491A8C13E
:10734000863439F4E0E0F0E089E0809357008491DE
:107350009FC18E3439F4E3E0F0E089E08093570078
:10736000849196C1813539F4E2E0F0E089E08093C0
:10737000570084918DC1823631F489E526DF80E0A3
:1073800024DF80E885C1823419F0873609F0E5C032
:107390001092B9011092B80100DF082FFEDEF82E1E
:1073A000FCDE682E8554823008F071C1902F80E099
:1073B000CF2DD0E0C82BD92B10926F00173609F0D3
:1073C0004BC081E180935700E895DD24CC24C39421
:1073D0003FC0E090BD01F090BE010091BF0110914F
:1073E000C001B6E46B16D9F4ED2DF0E0EE29FF29CB
:1073F000E4918E2FEADEDD2081F082E090E0A0E0D3
:10740000B0E0E80EF91E0A1F1B1FE092BD01F092CA
:10741000BE010093BF011093C001DC2418C0D80145
:10742000C701B695A7959795879573D5CEDE82E06F
:1074300090E0A0E0B0E0E80EF91E0A1F1B1FE092EA
:10744000BD01F092BE010093BF011093C0012197CE
:10745000209709F0BECF7DC08090BD019090BE0105
:10746000A090BF01B090C00196E4691609F05DC01C
:1074700083E0F40180935700E89507B600FCFDCF48
:1074800054C0F6E46F1661F5772031F1E090BD014C
:10749000F090BE010091BF011091C0017EDED82E98
:1074A000CC24852D90E08C299D29F7010C01409278
:1074B0005700E895112482E090E0A0E0B0E0E80EEB
:1074C000F91E0A1F1B1FE092BD01F092BE0100933E
:1074D000BF011093C00102C060DE582E742423C087
:1074E000E090BD01F090BE010091BF011091C0017C
:1074F00016950795F794E79450DE682FC70111D5CC
:107500008091BD019091BE01A091BF01B091C001D9
:107510000296A11DB11D8093BD019093BE01A09361
:10752000BF01B093C001219704C05524772444249F
:107530004394209709F0A5CF96E4691641F485E0BD
:10754000F40180935700E89507B600FCFDCF8DE06D
:107550003CDE82E080936F009CC0833471F4009124
:10756000BD011091BE0119DE90E021E0F8010C018F
:1075700020935700E89511247CCE833619F5E090CE
:10758000BD01F090BE010091BF011091C00105DE68
:10759000F701E16090E021E00C0120935700E895AD
:1075A000112482E090E0A0E0B0E0E80EF91E0A1F8E
:1075B0001B1FE092BD01F092BE010093BF0110932A
:1075C000C00157CE8D3661F4E091BD01F091BE014E
:1075D00085E080935700E89507B600FCFDCF49CEC3
:1075E000823551F4E091BD01F091BE0105911491F5
:1075F000812FEBDD802F4CC0843421F5E090BD015C
:10760000F090BE010091BF011091C0011695079541
:10761000F794E794C2DD682FC70183D48091BD0140
:107620009091BE01A091BF01B091C0010296A11D31
:10763000B11D8093BD019093BE01A093BF01B09393
:10764000C00117CE843609F5E090BD01F090BE016F
:107650000091BF011091C001D801C701B695A7954F
:107660009795879556D4B1DD82E090E0A0E0B0E038
:10767000E80EF91E0A1F1B1FE092BD01F092BE0129
:107680000093BF011093C00104C08B3111F08FE350
:107690009CDD83E08093E9009091E8008091E80010
:1076A0008E778093E80095FF04C010C08EB38823C6
:1076B000C9F08091E80080FFF9CF8091E8008E77D3
:1076C0008093E80003C08EB3882361F08091E800C6
:1076D00080FFF9CF84E08093E9008091E8008B7708
:1076E0008093E800DF91CF911F910F91FF90EF9071
:1076F000DF90CF90BF90AF909F908F907F906F90D2
:107700005F904F9008959091C501892F8F778132B6
:1077100049F58091C6018032A1F0813219F5913A84
:1077200009F58091E800877F8093E8008CE091E084
:1077300067E070E025D28091E8008B778093E800C5
:107740000895913279F48091E800877F8093E80072
:107750008CE091E067E070E077D28091E8008E776E
:107760008093E800089582E061EC42E0D1D083E0AC
:1077700061E842E1CDD084E060E842E1C9C01F93F6
:10778000209100081092000844B714BE88E10FB69B
:10779000F89480936000109260000FBE80E8E0E0F3
:1077A000F0E00FB6F89480936100E09361000FBEA3
:1077B00031E035BF92E095BF3F9A209A559A809369
:1077C00061001092610047985D9A289A1092890092
:1077D0008AEF8093880090936F0083E0809381000C
:1077E000859194918F5F9F4F11F03093BC01942F3E
:1077F00041FF19C0809109012817A9F08093000862
:10780000789480911301882339F08091BA01909186
:10781000BB0188579140C8F3F8941092000881E0AA
:10782000809313010CC090FF04C08091BC01882399
:1078300051F493FF09C080910901281729F0809124
:10784000BC01882309F04EDCD4D078941092B901A1
:107850001092B8011EEF20C0D7DC49D38091B80147
:107860009091B901815A9F4010F0109213018091BC
:10787000C1019091C20101969093C2018093C10110
:10788000292F97FF03C0512F591B252F220F28178F
:1078900010F4479801C0479A809113018823E1F6BC
:1078A0008091E00081608093E0001CDC80E090E04B
:1078B0001F910895FA01923049F0933061F09130B0
:1078C000F9F484E191E022E130E01EC086E291E02B
:1078D0002EE330E019C0882329F484E691E024E007
:1078E00030E012C0813029F488E691E02EE130E0EA
:1078F0000BC0823029F488E891E02AE230E004C02D
:1079000080E090E020E030E091838083C901089519
:107910008093E9008091EB0081608093EB001092EE
:10792000ED006093EC004093ED008091EE00881F25
:107930008827881F08958091C50188238CF403C08F
:107940008EB38823B1F08091E80082FFF9CF809157
:10795000E8008B778093E80008958EB3882349F080
:107960008091E80080FFF9CF8091E8008E778093C6
:10797000E8000895EF92FF920F931F9345D04CD0EB
:1079800008ED10E0F80180818F7780838081806826
:10799000808380818F7D808319BC1EBA1092C301C1
:1079A00080EEE82EF12CF70180818B7F8083F80137
:1079B00080818160808380E060E042E0A9DFE1EEC9
:1079C000F0E080818E7F8083E2EEF0E08081816054
:1079D0008083808188608083F70180818E7F8083AF
:1079E000F8018081806180831F910F91FF90EF905B
:1079F0000895E7EDF0E08081816080838AE482BFB2
:107A000081E08093C401B6CFE8EDF0E080818E7F05
:107A100080831092E20008951092DA001092E10043
:107A200008951F920F920FB60F9211242F933F9338
:107A30004F935F936F937F938F939F93AF93BF9376
:107A4000EF93FF938091DA0080FF1AC08091D800F5
:107A500080FF16C08091DA008E7F8093DA008091DB
:107A6000D90080FF0AC019BC82E089BD09B400FEBC
:107A7000FDCF81E08EBB3AD203C019BC1EBA36D20C
:107A80008091E10080FF17C08091E20080FF13C069
:107A90008091E2008E7F8093E2008091E20080611D
:107AA0008093E2008091D80080628093D80019BC56
:107AB00085E08EBB1BD28091E10084FF2BC08091BA
:107AC000E20084FF27C019BC82E089BD09B400FE32
:107AD000FDCF8091D8008F7D8093D8008091E10008
:107AE0008F7E8093E1008091E2008F7E8093E200A0
:107AF0008091E20081608093E2008091C30188233D
:107B000031F48091E30087FD02C081E001C084E090
:107B10008EBBECD18091E10083FF21C08091E20017
:107B200083FF1DC08091E100877F8093E10082E0A8
:107B30008EBB1092C3018091E1008E7F8093E100A3
:107B40008091E2008E7F8093E2008091E20080616C
:107B50008093E20080E060E042E0DADEC7D1FF918E
:107B6000EF91BF91AF919F918F917F916F915F91B5
:107B70004F913F912F910F900FBE0F901F9018952E
:107B80009C014091CB015091CC014617570718F446
:107B9000F90190E044C06115710511F0AB01F8CF17
:107BA0008091E8008E778093E80040E050E0F0CFCD
:107BB0008EB3882309F444C0853009F443C0809112
:107BC000E80083FF02C081E008958091E80082FD13
:107BD00031C08091E80080FF22C08091F300909135
:107BE000F200782F60E0292F30E0262B372B07C0DA
:107BF00081918093F100415050402F5F3F4F4115DC
:107C0000510519F02830310598F390E028303105FE
:107C100009F491E08091E8008E778093E8004115A7
:107C2000510531F6992321F605C08EB3882341F022
:107C3000853041F08091E80082FFF7CF80E0089521
:107C400082E0089583E008959C016115710529F48F
:107C50008091E8008B778093E800F90126C08EB30D
:107C6000882391F1853091F18091E80083FF02C073
:107C700081E008958091E80082FFF1CF06C08091F5
:107C8000F10081936150704059F02091F300809190
:107C9000F200322F20E090E0822B932B892B79F792
:107CA0008091E8008B778093E80061157105B9F643
:107CB00005C08EB3882341F0853041F08091E80003
:107CC00080FFF7CF80E0089582E0089583E0089573
:107CD0000F931F93DF93CF9300D0CDB7DEB7E5ECC2
:107CE000F1E08091F100819381E0ED3CF807C9F764
:107CF0000ADD8091E80083FFE4C08091C501909186
:107D0000C601953009F46DC0963040F4913081F190
:107D1000913070F0933009F0D4C02AC0983009F443
:107D2000A3C0993009F4B2C0963009F0CAC07CC033
:107D3000803809F4C6C0823809F0C3C08091C901F7
:107D400087708093E9008091EB001092E900209108
:107D5000E800277F2093E80090E025E0969587953E
:107D60002A95E1F781708093F1001092F10087C0AD
:107D7000882319F0823009F0A4C08F71823009F095
:107D8000A0C08091C701882331F52091C9012770D7
:107D900009F497C02093E9008091EB0080FF1BC09D
:107DA000933021F48091EB00806213C08091EB004E
:107DB00080618093EB0081E090E002C0880F991F02
:107DC0002A95E2F78093EA001092EA008091EB0096
:107DD00088608093EB001092E9008091E800877F33
:107DE00051C0882309F06DC01091C7011F770FB7EC
:107DF000F8948091E800877F8093E8009CDD809173
:107E0000E80080FFFCCF8091E3008078812B809395
:107E1000E30080688093E300112311F482E001C045
:107E200083E08EBB0FBF4DC08058823008F049C040
:107E30008091C7019091C8016091C901AE014F5F67
:107E40005F4F38DDBC01009709F43BC08091E8002A
:107E5000877F8093E80089819A8192DE8091E80093
:107E60008B778093E8002DC0803859F58091E80029
:107E7000877F8093E8008091C3018093F100809117
:107E8000E8008E778093E80056DD1BC08823C9F494
:107E90009091C7019230A8F48091E800877F809389
:107EA000E8009093C30147DD8091C301882331F43A
:107EB0008091E30087FD02C081E001C084E08EBBB9
:107EC00052DC8091E80083FF0AC08091EB00806261
:107ED0008093EB008091E800877F8093E8000F900B
:107EE0000F90CF91DF911F910F91089508951F93E7
:107EF0008EB3882361F01091E9001092E90080911F
:107F0000E80083FF01C0E4DE17701093E9001F91C1
:107F10000895F999FECF92BD81BDF89A992780B551
